Component: Arm Compiler for Embedded 6.18 Tool: armlink [5e4cc100]

==============================================================================

Section Cross References

    startup_stm32f469xx.o(STACK) refers (Special) to heapauxi.o(.text) for __use_two_region_memory
    startup_stm32f469xx.o(HEAP) refers (Special) to heapauxi.o(.text) for __use_two_region_memory
    startup_stm32f469xx.o(RESET) refers (Special) to heapauxi.o(.text) for __use_two_region_memory
    startup_stm32f469xx.o(RESET) refers to startup_stm32f469xx.o(STACK) for __initial_sp
    startup_stm32f469xx.o(RESET) refers to startup_stm32f469xx.o(.text) for Reset_Handler
    startup_stm32f469xx.o(RESET) refers to stm32f4xx_it.o(.text.NMI_Handler) for NMI_Handler
    startup_stm32f469xx.o(RESET) refers to stm32f4xx_it.o(.text.HardFault_Handler) for HardFault_Handler
    startup_stm32f469xx.o(RESET) refers to stm32f4xx_it.o(.text.MemManage_Handler) for MemManage_Handler
    startup_stm32f469xx.o(RESET) refers to stm32f4xx_it.o(.text.BusFault_Handler) for BusFault_Handler
    startup_stm32f469xx.o(RESET) refers to stm32f4xx_it.o(.text.UsageFault_Handler) for UsageFault_Handler
    startup_stm32f469xx.o(RESET) refers to stm32f4xx_it.o(.text.SVC_Handler) for SVC_Handler
    startup_stm32f469xx.o(RESET) refers to stm32f4xx_it.o(.text.DebugMon_Handler) for DebugMon_Handler
    startup_stm32f469xx.o(RESET) refers to stm32f4xx_it.o(.text.PendSV_Handler) for PendSV_Handler
    startup_stm32f469xx.o(RESET) refers to stm32f4xx_it.o(.text.SysTick_Handler) for SysTick_Handler
    startup_stm32f469xx.o(RESET) refers to stm32f4xx_it.o(.text.USART2_IRQHandler) for USART2_IRQHandler
    startup_stm32f469xx.o(RESET) refers to stm32f4xx_it.o(.text.USART3_IRQHandler) for USART3_IRQHandler
    startup_stm32f469xx.o(RESET) refers to stm32f4xx_it.o(.text.DMA2_Stream1_IRQHandler) for DMA2_Stream1_IRQHandler
    startup_stm32f469xx.o(RESET) refers to stm32f4xx_it.o(.text.OTG_FS_IRQHandler) for OTG_FS_IRQHandler
==============================================================================

Removing Unused input sections from the image.

    Removing main.o(.text), (0 bytes).
    Removing main.o(.ARM.exidx.text.RS485_set_mode), (8 bytes).
    Removing main.o(.ARM.exidx.text.main), (8 bytes).
    Removing main.o(.ARM.exidx.text.SystemClock_Config), (8 bytes).
    Removing main.o(.ARM.exidx.text.MX_GPIO_Init), (8 bytes).
    Removing main.o(.ARM.exidx.text.MX_DMA_Init), (8 bytes).
    Removing main.o(.ARM.exidx.text.MX_DMA2D_Init), (8 bytes).
    Removing main.o(.ARM.exidx.text.MX_I2C1_Init), (8 bytes).
    Removing main.o(.ARM.exidx.text.MX_SPI1_Init), (8 bytes).
    Removing main.o(.ARM.exidx.text.MX_SPI2_Init), (8 bytes).
    Removing main.o(.ARM.exidx.text.MX_SPI3_Init), (8 bytes).
    Removing main.o(.ARM.exidx.text.MX_USART2_UART_Init), (8 bytes).
    Removing main.o(.ARM.exidx.text.MX_USART6_UART_Init), (8 bytes).
    Removing main.o(.ARM.exidx.text.MX_I2C2_Init), (8 bytes).
    Removing main.o(.ARM.exidx.text.MX_QUADSPI_Init), (8 bytes).
    Removing main.o(.ARM.exidx.text.MX_SPI4_Init), (8 bytes).
    Removing main.o(.ARM.exidx.text.MX_USART3_UART_Init), (8 bytes).
    Removing main.o(.ARM.exidx.text.MX_ADC1_Init), (8 bytes).
==============================================================================

Image Symbol Table

    Local Symbols

    Symbol Name                              Value     Ov Type        Size  Object(Section)

    ../clib/angel/boardlib.s                 0x00000000   Number         0  boardinit1.o ABSOLUTE
    ../clib/angel/boardlib.s                 0x00000000   Number         0  boardinit2.o ABSOLUTE
    ../clib/angel/boardlib.s                 0x00000000   Number         0  boardinit3.o ABSOLUTE
    ../clib/angel/boardlib.s                 0x00000000   Number         0  boardshut.o ABSOLUTE
    ../clib/angel/handlers.s                 0x00000000   Number         0  __scatter_copy.o ABSOLUTE
    ../clib/angel/handlers.s                 0x00000000   Number         0  __scatter_zi.o ABSOLUTE
    ../clib/angel/kernel.s                   0x00000000   Number         0  __rtentry.o ABSOLUTE
    ../clib/angel/kernel.s                   0x00000000   Number         0  __rtentry2.o ABSOLUTE
    ../clib/angel/kernel.s                   0x00000000   Number         0  __rtentry4.o ABSOLUTE
    ../clib/angel/kernel.s                   0x00000000   Number         0  rtexit.o ABSOLUTE
    ../clib/angel/kernel.s                   0x00000000   Number         0  rtexit2.o ABSOLUTE
    ../clib/angel/rt.s                       0x00000000   Number         0  aeabi_ldiv0.o ABSOLUTE
    ../clib/angel/rt.s                       0x00000000   Number         0  aeabi_ldiv0_sigfpe.o ABSOLUTE
    ../clib/angel/rt.s                       0x00000000   Number         0  rt_div0.o ABSOLUTE
    ../clib/angel/rt.s                       0x00000000   Number         0  rt_errno_addr.o ABSOLUTE
    ../clib/angel/rt.s                       0x00000000   Number         0  rt_errno_addr_intlibspace.o ABSOLUTE
    ../clib/angel/rt.s                       0x00000000   Number         0  rt_ctype_table.o ABSOLUTE
    ../clib/angel/rt.s                       0x00000000   Number         0  rt_locale.o ABSOLUTE
    ../clib/angel/rt.s                       0x00000000   Number         0  rt_locale_intlibspace.o ABSOLUTE
    ../clib/angel/rt.s                       0x00000000   Number         0  rt_raise.o ABSOLUTE
    ../clib/angel/rt.s                       0x00000000   Number         0  rt_heap_descriptor.o ABSOLUTE
    ../clib/angel/rt.s                       0x00000000   Number         0  rt_heap_descriptor_intlibspace.o ABSOLUTE
    ../clib/angel/scatter.s                  0x00000000   Number         0  __scatter.o ABSOLUTE
    ../clib/angel/startup.s                  0x00000000   Number         0  __main.o ABSOLUTE
    ../clib/angel/sys.s                      0x00000000   Number         0  libspace.o ABSOLUTE
    ../clib/angel/sys.s                      0x00000000   Number         0  mutex_dummy.o ABSOLUTE
    ../clib/angel/sys.s                      0x00000000   Number         0  sys_stackheap_outer.o ABSOLUTE
    ../clib/angel/sys.s                      0x00000000   Number         0  use_no_semi.o ABSOLUTE
    ../clib/angel/sys.s                      0x00000000   Number         0  indicate_semi.o ABSOLUTE
    ../clib/angel/sysapp.c                   0x00000000   Number         0  sys_command.o ABSOLUTE
    ../clib/angel/sysapp.c                   0x00000000   Number         0  sys_command_hlt.o ABSOLUTE
    ../clib/angel/sysapp.c                   0x00000000   Number         0  sys_exit.o ABSOLUTE
    ../clib/angel/sysapp.c                   0x00000000   Number         0  sys_exit_hlt.o ABSOLUTE
    ../clib/angel/sysapp.c                   0x00000000   Number         0  sys_wrch.o ABSOLUTE
    ../clib/angel/sysapp.c                   0x00000000   Number         0  sys_wrch_hlt.o ABSOLUTE
    ../clib/armsys.c                         0x00000000   Number         0  argv_veneer.o ABSOLUTE
    ../clib/armsys.c                         0x00000000   Number         0  argv_veneer.o ABSOLUTE
    ../clib/armsys.c                         0x00000000   Number         0  _get_argv_nomalloc.o ABSOLUTE
    ../clib/armsys.c                         0x00000000   Number         0  no_argv.o ABSOLUTE
    ../clib/armsys.c                         0x00000000   Number         0  _get_argv.o ABSOLUTE
    ../clib/assert.c                         0x00000000   Number         0  assert_stdio.o ABSOLUTE
    ../clib/bigflt.c                         0x00000000   Number         0  bigflt0.o ABSOLUTE
    ../clib/btod.s                           0x00000000   Number         0  btod.o ABSOLUTE
    ../clib/btod_accurate.c                  0x00000000   Number         0  btod_accurate.o ABSOLUTE
    ../clib/btod_accurate.c                  0x00000000   Number         0  btod_accurate_common.o ABSOLUTE
    ../clib/fenv.c                           0x00000000   Number         0  _rserrno.o ABSOLUTE
    ../clib/heap1.c                          0x00000000   Number         0  h1_free.o ABSOLUTE
    ../clib/heap1.c                          0x00000000   Number         0  h1_free_threads.o ABSOLUTE
    ../clib/heap1.c                          0x00000000   Number         0  h1_alloc.o ABSOLUTE
    ../clib/heap1.c                          0x00000000   Number         0  h1_alloc_threads.o ABSOLUTE
    ../clib/heap1.c                          0x00000000   Number         0  h1_init.o ABSOLUTE
    ../clib/heap1.c                          0x00000000   Number         0  h1_extend.o ABSOLUTE
    ../clib/heap1.c                          0x00000000   Number         0  h1_init_threads.o ABSOLUTE
    ../clib/heap1.c                          0x00000000   Number         0  h1_extend_threads.o ABSOLUTE
    ../clib/heap1.c                          0x00000000   Number         0  h1_final.o ABSOLUTE
    ../clib/heap1.c                          0x00000000   Number         0  h1_final_threads.o ABSOLUTE
    ../clib/heap2.c                          0x00000000   Number         0  heap2.o ABSOLUTE
    ../clib/heap2.c                          0x00000000   Number         0  heap2_threads.o ABSOLUTE
    ../clib/heap2.c                          0x00000000   Number         0  fdtree.o ABSOLUTE
    ../clib/heapalloc.c                      0x00000000   Number         0  free.o ABSOLUTE
    ../clib/heapalloc.c                      0x00000000   Number         0  hguard.o ABSOLUTE
    ../clib/heapalloc.c                      0x00000000   Number         0  hrguard.o ABSOLUTE
    ../clib/heapalloc.c                      0x00000000   Number         0  init_alloc.o ABSOLUTE
    ../clib/heapalloc.c                      0x00000000   Number         0  malloc.o ABSOLUTE
    ../clib/heapalloc.c                      0x00000000   Number         0  heapstubs.o ABSOLUTE
    ../clib/heapalloc.c                      0x00000000   Number         0  term_alloc.o ABSOLUTE
    ../clib/heapaux.c                        0x00000000   Number         0  heapauxi.o ABSOLUTE
    ../clib/heapaux.c                        0x00000000   Number         0  heapauxa.o ABSOLUTE
    ../clib/libinit.s                        0x00000000   Number         0  libinit2.o ABSOLUTE
    ../clib/libinit.s                        0x00000000   Number         0  libinit.o ABSOLUTE
    ../clib/libinit.s                        0x00000000   Number         0  libshutdown2.o ABSOLUTE
    ../clib/libinit.s                        0x00000000   Number         0  libshutdown.o ABSOLUTE
    ../clib/locale.c                         0x00000000   Number         0  _c16rtomb.o ABSOLUTE
    ../clib/locale.s                         0x00000000   Number         0  lc_numeric_c.o ABSOLUTE
    ../clib/locale.s                         0x00000000   Number         0  lc_ctype_c.o ABSOLUTE
    ../clib/longlong.s                       0x00000000   Number         0  lludivv7m.o ABSOLUTE
    ../clib/longlong.s                       0x00000000   Number         0  lludiv10.o ABSOLUTE
    ../clib/longlong.s                       0x00000000   Number         0  llushr.o ABSOLUTE
    ../clib/maybe.s                          0x00000000   Number         0  maybetermalloc1.o ABSOLUTE
    ../clib/maybe.s                          0x00000000   Number         0  maybetermalloc2.o ABSOLUTE
    ../clib/memcpset.s                       0x00000000   Number         0  rt_memcpy_v6.o ABSOLUTE
    ../clib/memcpset.s                       0x00000000   Number         0  rt_memclr.o ABSOLUTE
    ../clib/memcpset.s                       0x00000000   Number         0  rt_memclr_w.o ABSOLUTE
    ../clib/memcpset.s                       0x00000000   Number         0  strcmpv7em.o ABSOLUTE
    ../clib/memcpset.s                       0x00000000   Number         0  rt_memcpy_w.o ABSOLUTE
    ../clib/misc.s                           0x00000000   Number         0  printf_stubs.o ABSOLUTE
    ../clib/printf.c                         0x00000000   Number         0  printf.o ABSOLUTE
    ../clib/printf.c                         0x00000000   Number         0  sprintf.o ABSOLUTE
    ../clib/printf.c                         0x00000000   Number         0  __printf.o ABSOLUTE
    ../clib/printf.c                         0x00000000   Number         0  _printf_pad.o ABSOLUTE
    ../clib/printf.c                         0x00000000   Number         0  _printf_truncate.o ABSOLUTE
    ../clib/printf.c                         0x00000000   Number         0  _printf_str.o ABSOLUTE
    ../clib/printf.c                         0x00000000   Number         0  _printf_dec.o ABSOLUTE
    ../clib/printf.c                         0x00000000   Number         0  _printf_charcount.o ABSOLUTE
    ../clib/printf.c                         0x00000000   Number         0  _printf_char_common.o ABSOLUTE
    ../clib/printf.c                         0x00000000   Number         0  _sputc.o ABSOLUTE
    ../clib/printf.c                         0x00000000   Number         0  _printf_char_file.o ABSOLUTE
    ../clib/printf.c                         0x00000000   Number         0  _printf_wctomb.o ABSOLUTE
    ../clib/printf.c                         0x00000000   Number         0  _printf_longlong_dec.o ABSOLUTE
    ../clib/printf.c                         0x00000000   Number         0  _printf_oct_ll.o ABSOLUTE
    ../clib/printf.c                         0x00000000   Number         0  _printf_oct_int.o ABSOLUTE
    ../clib/printf.c                         0x00000000   Number         0  _printf_oct_int_ll.o ABSOLUTE
    ../clib/printf.c                         0x00000000   Number         0  _printf_hex_ll.o ABSOLUTE
    ../clib/printf.c                         0x00000000   Number         0  _printf_hex_int.o ABSOLUTE
    ../clib/printf.c                         0x00000000   Number         0  _printf_hex_int_ll.o ABSOLUTE
    ../clib/printf.c                         0x00000000   Number         0  _printf_hex_ptr.o ABSOLUTE
    ../clib/printf.c                         0x00000000   Number         0  _printf_hex_int_ptr.o ABSOLUTE
    ../clib/printf.c                         0x00000000   Number         0  _printf_hex_ll_ptr.o ABSOLUTE
    ../clib/printf.c                         0x00000000   Number         0  _printf_hex_int_ll_ptr.o ABSOLUTE
    ../clib/printf.c                         0x00000000   Number         0  __printf_flags.o ABSOLUTE
    ../clib/printf.c                         0x00000000   Number         0  __printf_ss.o ABSOLUTE
    ../clib/printf.c                         0x00000000   Number         0  __printf_flags_ss.o ABSOLUTE
    ../clib/printf.c                         0x00000000   Number         0  __printf_wp.o ABSOLUTE
    ../clib/printf.c                         0x00000000   Number         0  __printf_flags_wp.o ABSOLUTE
    ../clib/printf.c                         0x00000000   Number         0  __printf_ss_wp.o ABSOLUTE
    ../clib/printf.c                         0x00000000   Number         0  __printf_flags_ss_wp.o ABSOLUTE
    ../clib/printf.c                         0x00000000   Number         0  _printf_intcommon.o ABSOLUTE
    ../clib/printf.c                         0x00000000   Number         0  _printf_fp_dec.o ABSOLUTE
    ../clib/printf.c                         0x00000000   Number         0  _printf_fp_dec_accurate.o ABSOLUTE
    ../clib/printf.c                         0x00000000   Number         0  _printf_fp_hex.o ABSOLUTE
    ../clib/printf.c                         0x00000000   Number         0  __printf_nopercent.o ABSOLUTE
    ../clib/printf.c                         0x00000000   Number         0  _printf_char.o ABSOLUTE
    ../clib/printf.c                         0x00000000   Number         0  _printf_wchar.o ABSOLUTE
    ../clib/printf.c                         0x00000000   Number         0  _printf_fp_infnan.o ABSOLUTE
    ../clib/printf.c                         0x00000000   Number         0  _printf_char_file_locked.o ABSOLUTE
    ../clib/printf_percent.s                 0x00000000   Number         0  _printf_c.o ABSOLUTE
    ../clib/printf_percent.s                 0x00000000   Number         0  _printf_s.o ABSOLUTE
    ../clib/printf_percent.s                 0x00000000   Number         0  _printf_n.o ABSOLUTE
    ../clib/printf_percent.s                 0x00000000   Number         0  _printf_x.o ABSOLUTE
    ../clib/printf_percent.s                 0x00000000   Number         0  _printf_p.o ABSOLUTE
    ../clib/printf_percent.s                 0x00000000   Number         0  _printf_o.o ABSOLUTE
    ../clib/printf_percent.s                 0x00000000   Number         0  _printf_i.o ABSOLUTE
    ../clib/printf_percent.s                 0x00000000   Number         0  _printf_d.o ABSOLUTE
    ../clib/printf_percent.s                 0x00000000   Number         0  _printf_u.o ABSOLUTE
    ../clib/printf_percent.s                 0x00000000   Number         0  _printf_f.o ABSOLUTE
    ../clib/printf_percent.s                 0x00000000   Number         0  _printf_e.o ABSOLUTE
    ../clib/printf_percent.s                 0x00000000   Number         0  _printf_g.o ABSOLUTE
    ../clib/printf_percent.s                 0x00000000   Number         0  _printf_a.o ABSOLUTE
    ../clib/printf_percent.s                 0x00000000   Number         0  _printf_percent.o ABSOLUTE
    ../clib/printf_percent.s                 0x00000000   Number         0  _printf_lli.o ABSOLUTE
    ../clib/printf_percent.s                 0x00000000   Number         0  _printf_lld.o ABSOLUTE
    ../clib/printf_percent.s                 0x00000000   Number         0  _printf_llu.o ABSOLUTE
    ../clib/printf_percent.s                 0x00000000   Number         0  _printf_ll.o ABSOLUTE
    ../clib/printf_percent.s                 0x00000000   Number         0  _printf_l.o ABSOLUTE
    ../clib/printf_percent.s                 0x00000000   Number         0  _printf_lc.o ABSOLUTE
    ../clib/printf_percent.s                 0x00000000   Number         0  _printf_ls.o ABSOLUTE
    ../clib/printf_percent.s                 0x00000000   Number         0  _printf_llo.o ABSOLUTE
    ../clib/printf_percent.s                 0x00000000   Number         0  _printf_llx.o ABSOLUTE
    ../clib/printf_percent.s                 0x00000000   Number         0  _printf_percent_end.o ABSOLUTE
    ../clib/signal.c                         0x00000000   Number         0  defsig_fpe_outer.o ABSOLUTE
    ../clib/signal.c                         0x00000000   Number         0  defsig_fpe_formal.o ABSOLUTE
    ../clib/signal.c                         0x00000000   Number         0  defsig_rtred_outer.o ABSOLUTE
    ../clib/signal.c                         0x00000000   Number         0  defsig_rtred_formal.o ABSOLUTE
    ../clib/signal.c                         0x00000000   Number         0  defsig_exit.o ABSOLUTE
    ../clib/signal.c                         0x00000000   Number         0  defsig_fpe_inner.o ABSOLUTE
    ../clib/signal.c                         0x00000000   Number         0  defsig_rtred_inner.o ABSOLUTE
    ../clib/signal.c                         0x00000000   Number         0  defsig_rtmem_outer.o ABSOLUTE
    ../clib/signal.c                         0x00000000   Number         0  defsig_rtmem_formal.o ABSOLUTE
    ../clib/signal.c                         0x00000000   Number         0  __raise.o ABSOLUTE
    ../clib/signal.c                         0x00000000   Number         0  defsig_general.o ABSOLUTE
    ../clib/signal.c                         0x00000000   Number         0  defsig_rtmem_inner.o ABSOLUTE
    ../clib/signal.c                         0x00000000   Number         0  defsig_abrt_inner.o ABSOLUTE
    ../clib/signal.c                         0x00000000   Number         0  defsig_stak_inner.o ABSOLUTE
    ../clib/signal.c                         0x00000000   Number         0  defsig_pvfn_inner.o ABSOLUTE
    ../clib/signal.c                         0x00000000   Number         0  defsig_cppl_inner.o ABSOLUTE
    ../clib/signal.c                         0x00000000   Number         0  defsig_segv_inner.o ABSOLUTE
    ../clib/signal.c                         0x00000000   Number         0  defsig_other.o ABSOLUTE
    ../clib/signal.s                         0x00000000   Number         0  defsig.o ABSOLUTE
    ../clib/stdio.c                          0x00000000   Number         0  stdio_streams.o ABSOLUTE
    ../clib/stdio.c                          0x00000000   Number         0  ferror.o ABSOLUTE
    ../clib/stdio.c                          0x00000000   Number         0  fputc.o ABSOLUTE
    ../clib/stdio.c                          0x00000000   Number         0  initio.o ABSOLUTE
    ../clib/stdio.c                          0x00000000   Number         0  fputc_locked.o ABSOLUTE
    ../clib/stdio.c                          0x00000000   Number         0  ferror_locked.o ABSOLUTE
    ../clib/stdio.c                          0x00000000   Number         0  initio_locked.o ABSOLUTE
    ../clib/stdio.c                          0x00000000   Number         0  flsbuf.o ABSOLUTE
    ../clib/stdio.c                          0x00000000   Number         0  setvbuf.o ABSOLUTE
    ../clib/stdio.c                          0x00000000   Number         0  streamlock.o ABSOLUTE
    ../clib/stdio.c                          0x00000000   Number         0  fopen.o ABSOLUTE
    ../clib/stdio.c                          0x00000000   Number         0  fclose.o ABSOLUTE
    ../clib/stdio.c                          0x00000000   Number         0  setvbuf_locked.o ABSOLUTE
    ../clib/stdio.c                          0x00000000   Number         0  fopen_locked.o ABSOLUTE
    ../clib/stdio.c                          0x00000000   Number         0  fseek.o ABSOLUTE
    ../clib/stdio.c                          0x00000000   Number         0  stdio.o ABSOLUTE
    ../clib/stdio.c                          0x00000000   Number         0  fwritefast.o ABSOLUTE
    ../clib/stdio.c                          0x00000000   Number         0  fwritefast_locked.o ABSOLUTE
    ../clib/stdio.c                          0x00000000   Number         0  fflush.o ABSOLUTE
    ../clib/stdio.c                          0x00000000   Number         0  fputs.o ABSOLUTE
    ../clib/stdio.c                          0x00000000   Number         0  ftell.o ABSOLUTE
    ../clib/stdio.c                          0x00000000   Number         0  fputs_locked.o ABSOLUTE
    ../clib/stdio.c                          0x00000000   Number         0  fflush_locked.o ABSOLUTE
    ../clib/stdlib.c                         0x00000000   Number         0  abs.o ABSOLUTE
    ../clib/stdlib.c                         0x00000000   Number         0  rand.o ABSOLUTE
    ../clib/stdlib.c                         0x00000000   Number         0  rand.o ABSOLUTE
    ../clib/stdlib.c                         0x00000000   Number         0  exit.o ABSOLUTE
    ../clib/string.c                         0x00000000   Number         0  strlen.o ABSOLUTE
    ../clib/wchar.c                          0x00000000   Number         0  flsbuf_fwide.o ABSOLUTE
    ../fplib/daddsub.s                       0x00000000   Number         0  daddsub_clz.o ABSOLUTE
    ../fplib/dcmp.s                          0x00000000   Number         0  dcmp.o ABSOLUTE
    ../fplib/dcmpi.s                         0x00000000   Number         0  dcmpi.o ABSOLUTE
    ../fplib/deqf.s                          0x00000000   Number         0  deqf.o ABSOLUTE
    ../fplib/dfix.s                          0x00000000   Number         0  dfix.o ABSOLUTE
    ../fplib/dflt.s                          0x00000000   Number         0  dflt_clz.o ABSOLUTE
    ../fplib/dgeqf.s                         0x00000000   Number         0  dgeqf.o ABSOLUTE
    ../fplib/dleqf.s                         0x00000000   Number         0  dleqf.o ABSOLUTE
    ../fplib/dmul.s                          0x00000000   Number         0  dmul.o ABSOLUTE
    ../fplib/dnaninf.s                       0x00000000   Number         0  dnaninf.o ABSOLUTE
    ../fplib/dretinf.s                       0x00000000   Number         0  dretinf.o ABSOLUTE
    ../fplib/dsqrt.s                         0x00000000   Number         0  dsqrt_umaal.o ABSOLUTE
    ../fplib/f2d.s                           0x00000000   Number         0  f2d.o ABSOLUTE
    ../fplib/fnaninf.s                       0x00000000   Number         0  fnaninf.o ABSOLUTE
    ../fplib/fpinit.s                        0x00000000   Number         0  fpinit.o ABSOLUTE
    ../fplib/istatus.s                       0x00000000   Number         0  istatus.o ABSOLUTE
    ../fplib/printf1.s                       0x00000000   Number         0  printf1.o ABSOLUTE
    ../fplib/printf2.s                       0x00000000   Number         0  printf2.o ABSOLUTE
    ../fplib/printf2a.s                      0x00000000   Number         0  printf2a.o ABSOLUTE
    ../fplib/printf2b.s                      0x00000000   Number         0  printf2b.o ABSOLUTE
    ../fplib/usenofp.s                       0x00000000   Number         0  usenofp.o ABSOLUTE
    ../mathlib/fpclassify.c                  0x00000000   Number         0  fpclassify.o ABSOLUTE
    ../mathlib/sqrt.c                        0x00000000   Number         0  sqrt.o ABSOLUTE
    DEV_Config.c                             0x00000000   Number         0  dev_config.o ABSOLUTE
    EventRecorder.c                          0x00000000   Number         0  eventrecorder.o ABSOLUTE
    LCD_Driver.c                             0x00000000   Number         0  lcd_driver.o ABSOLUTE
    LCD_GUI.c                                0x00000000   Number         0  lcd_gui.o ABSOLUTE
    LCD_Touch.c                              0x00000000   Number         0  lcd_touch.o ABSOLUTE
    dc.s                                     0x00000000   Number         0  dc.o ABSOLUTE
    font12.c                                 0x00000000   Number         0  font12.o ABSOLUTE
    font16.c                                 0x00000000   Number         0  font16.o ABSOLUTE
    font20.c                                 0x00000000   Number         0  font20.o ABSOLUTE
    font24.c                                 0x00000000   Number         0  font24.o ABSOLUTE
    font8.c                                  0x00000000   Number         0  font8.o ABSOLUTE
    main.c                                   0x00000000   Number         0  main.o ABSOLUTE
    retarget_io.c                            0x00000000   Number         0  retarget_io.o ABSOLUTE
    startup_stm32f469xx.s                    0x00000000   Number         0  startup_stm32f469xx.o ABSOLUTE
    stm32f4xx_hal.c                          0x00000000   Number         0  stm32f4xx_hal.o ABSOLUTE
    stm32f4xx_hal_adc.c                      0x00000000   Number         0  stm32f4xx_hal_adc.o ABSOLUTE
    stm32f4xx_hal_adc_ex.c                   0x00000000   Number         0  stm32f4xx_hal_adc_ex.o ABSOLUTE
    stm32f4xx_hal_cortex.c                   0x00000000   Number         0  stm32f4xx_hal_cortex.o ABSOLUTE
    stm32f4xx_hal_crc.c                      0x00000000   Number         0  stm32f4xx_hal_crc.o ABSOLUTE
    stm32f4xx_hal_dma.c                      0x00000000   Number         0  stm32f4xx_hal_dma.o ABSOLUTE
    stm32f4xx_hal_dma2d.c                    0x00000000   Number         0  stm32f4xx_hal_dma2d.o ABSOLUTE
    stm32f4xx_hal_dma_ex.c                   0x00000000   Number         0  stm32f4xx_hal_dma_ex.o ABSOLUTE
    stm32f4xx_hal_dsi.c                      0x00000000   Number         0  stm32f4xx_hal_dsi.o ABSOLUTE
    stm32f4xx_hal_exti.c                     0x00000000   Number         0  stm32f4xx_hal_exti.o ABSOLUTE
    stm32f4xx_hal_flash.c                    0x00000000   Number         0  stm32f4xx_hal_flash.o ABSOLUTE
    stm32f4xx_hal_flash_ex.c                 0x00000000   Number         0  stm32f4xx_hal_flash_ex.o ABSOLUTE
    stm32f4xx_hal_flash_ramfunc.c            0x00000000   Number         0  stm32f4xx_hal_flash_ramfunc.o ABSOLUTE
    stm32f4xx_hal_gpio.c                     0x00000000   Number         0  stm32f4xx_hal_gpio.o ABSOLUTE
    stm32f4xx_hal_i2c.c                      0x00000000   Number         0  stm32f4xx_hal_i2c.o ABSOLUTE
    stm32f4xx_hal_i2c_ex.c                   0x00000000   Number         0  stm32f4xx_hal_i2c_ex.o ABSOLUTE
    stm32f4xx_hal_ltdc.c                     0x00000000   Number         0  stm32f4xx_hal_ltdc.o ABSOLUTE
    stm32f4xx_hal_ltdc_ex.c                  0x00000000   Number         0  stm32f4xx_hal_ltdc_ex.o ABSOLUTE
    stm32f4xx_hal_msp.c                      0x00000000   Number         0  stm32f4xx_hal_msp.o ABSOLUTE
    stm32f4xx_hal_pcd.c                      0x00000000   Number         0  stm32f4xx_hal_pcd.o ABSOLUTE
    stm32f4xx_hal_pcd_ex.c                   0x00000000   Number         0  stm32f4xx_hal_pcd_ex.o ABSOLUTE
    stm32f4xx_hal_pwr.c                      0x00000000   Number         0  stm32f4xx_hal_pwr.o ABSOLUTE
    stm32f4xx_hal_pwr_ex.c                   0x00000000   Number         0  stm32f4xx_hal_pwr_ex.o ABSOLUTE
    stm32f4xx_hal_qspi.c                     0x00000000   Number         0  stm32f4xx_hal_qspi.o ABSOLUTE
    stm32f4xx_hal_rcc.c                      0x00000000   Number         0  stm32f4xx_hal_rcc.o ABSOLUTE
    stm32f4xx_hal_rcc_ex.c                   0x00000000   Number         0  stm32f4xx_hal_rcc_ex.o ABSOLUTE
    stm32f4xx_hal_sd.c                       0x00000000   Number         0  stm32f4xx_hal_sd.o ABSOLUTE
    stm32f4xx_hal_spi.c                      0x00000000   Number         0  stm32f4xx_hal_spi.o ABSOLUTE
    stm32f4xx_hal_tim.c                      0x00000000   Number         0  stm32f4xx_hal_tim.o ABSOLUTE
    stm32f4xx_hal_tim_ex.c                   0x00000000   Number         0  stm32f4xx_hal_tim_ex.o ABSOLUTE
    stm32f4xx_hal_uart.c                     0x00000000   Number         0  stm32f4xx_hal_uart.o ABSOLUTE
    stm32f4xx_it.c                           0x00000000   Number         0  stm32f4xx_it.o ABSOLUTE
    stm32f4xx_ll_adc.c                       0x00000000   Number         0  stm32f4xx_ll_adc.o ABSOLUTE
    stm32f4xx_ll_sdmmc.c                     0x00000000   Number         0  stm32f4xx_ll_sdmmc.o ABSOLUTE
    stm32f4xx_ll_usb.c                       0x00000000   Number         0  stm32f4xx_ll_usb.o ABSOLUTE
    system_stm32f4xx.c                       0x00000000   Number         0  system_stm32f4xx.o ABSOLUTE
    usb_device.c                             0x00000000   Number         0  usb_device.o ABSOLUTE
    usbd_cdc.c                               0x00000000   Number         0  usbd_cdc.o ABSOLUTE
    usbd_cdc_if.c                            0x00000000   Number         0  usbd_cdc_if.o ABSOLUTE
    usbd_conf.c                              0x00000000   Number         0  usbd_conf.o ABSOLUTE
    usbd_core.c                              0x00000000   Number         0  usbd_core.o ABSOLUTE
    usbd_ctlreq.c                            0x00000000   Number         0  usbd_ctlreq.o ABSOLUTE
    usbd_desc.c                              0x00000000   Number         0  usbd_desc.o ABSOLUTE
    usbd_ioreq.c                             0x00000000   Number         0  usbd_ioreq.o ABSOLUTE
    RESET                                    0x08000000   Section      436  startup_stm32f469xx.o(RESET)
    !!!main                                  0x080001b4   Section        8  __main.o(!!!main)
    !!!scatter                               0x080001bc   Section       52  __scatter.o(!!!scatter)
    !!handler_copy                           0x080001f0   Section       26  __scatter_copy.o(!!handler_copy)
    !!handler_zi                             0x0800020c   Section       28  __scatter_zi.o(!!handler_zi)
    .ARM.Collect$$_printf_percent$$00000000  0x08000228   Section        0  _printf_percent.o(.ARM.Collect$$_printf_percent$$00000000)
    .ARM.Collect$$_printf_percent$$00000001  0x08000228   Section        6  _printf_n.o(.ARM.Collect$$_printf_percent$$00000001)
    .ARM.Collect$$_printf_percent$$00000002  0x0800022e   Section        6  _printf_p.o(.ARM.Collect$$_printf_percent$$00000002)
    .ARM.Collect$$_printf_percent$$00000003  0x08000234   Section        6  _printf_f.o(.ARM.Collect$$_printf_percent$$00000003)
    .ARM.Collect$$_printf_percent$$00000004  0x0800023a   Section        6  _printf_e.o(.ARM.Collect$$_printf_percent$$00000004)
    .ARM.Collect$$_printf_percent$$00000005  0x08000240   Section        6  _printf_g.o(.ARM.Collect$$_printf_percent$$00000005)
    .ARM.Collect$$_printf_percent$$00000006  0x08000246   Section        6  _printf_a.o(.ARM.Collect$$_printf_percent$$00000006)
    .ARM.Collect$$_printf_percent$$00000007  0x0800024c   Section       10  _printf_ll.o(.ARM.Collect$$_printf_percent$$00000007)
    .ARM.Collect$$_printf_percent$$00000008  0x08000256   Section        6  _printf_i.o(.ARM.Collect$$_printf_percent$$00000008)
    .ARM.Collect$$_printf_percent$$00000009  0x0800025c   Section        6  _printf_d.o(.ARM.Collect$$_printf_percent$$00000009)
    .ARM.Collect$$_printf_percent$$0000000A  0x08000262   Section        6  _printf_u.o(.ARM.Collect$$_printf_percent$$0000000A)
    .ARM.Collect$$_printf_percent$$0000000B  0x08000268   Section        6  _printf_o.o(.ARM.Collect$$_printf_percent$$0000000B)
    .ARM.Collect$$_printf_percent$$0000000C  0x0800026e   Section        6  _printf_x.o(.ARM.Collect$$_printf_percent$$0000000C)
    .ARM.Collect$$_printf_percent$$0000000D  0x08000274   Section        6  _printf_lli.o(.ARM.Collect$$_printf_percent$$0000000D)
    .ARM.Collect$$_printf_percent$$0000000E  0x0800027a   Section        6  _printf_lld.o(.ARM.Collect$$_printf_percent$$0000000E)
    .ARM.Collect$$_printf_percent$$0000000F  0x08000280   Section        6  _printf_llu.o(.ARM.Collect$$_printf_percent$$0000000F)
    .ARM.Collect$$_printf_percent$$00000010  0x08000286   Section        6  _printf_llo.o(.ARM.Collect$$_printf_percent$$00000010)
    .ARM.Collect$$_printf_percent$$00000011  0x0800028c   Section        6  _printf_llx.o(.ARM.Collect$$_printf_percent$$00000011)
    .ARM.Collect$$_printf_percent$$00000012  0x08000292   Section       10  _printf_l.o(.ARM.Collect$$_printf_percent$$00000012)
    .ARM.Collect$$_printf_percent$$00000013  0x0800029c   Section        6  _printf_c.o(.ARM.Collect$$_printf_percent$$00000013)
    .ARM.Collect$$_printf_percent$$00000014  0x080002a2   Section        6  _printf_s.o(.ARM.Collect$$_printf_percent$$00000014)
    .ARM.Collect$$_printf_percent$$00000015  0x080002a8   Section        6  _printf_lc.o(.ARM.Collect$$_printf_percent$$00000015)
    .ARM.Collect$$_printf_percent$$00000016  0x080002ae   Section        6  _printf_ls.o(.ARM.Collect$$_printf_percent$$00000016)
    .ARM.Collect$$_printf_percent$$00000017  0x080002b4   Section        4  _printf_percent_end.o(.ARM.Collect$$_printf_percent$$00000017)
    .ARM.Collect$$libinit$$00000000          0x080002b8   Section        2  libinit.o(.ARM.Collect$$libinit$$00000000)
    .ARM.Collect$$libinit$$00000001          0x080002ba   Section        4  libinit2.o(.ARM.Collect$$libinit$$00000001)
    .ARM.Collect$$libinit$$00000004          0x080002be   Section        0  libinit2.o(.ARM.Collect$$libinit$$00000004)
    .ARM.Collect$$libinit$$00000006          0x080002be   Section        0  libinit2.o(.ARM.Collect$$libinit$$00000006)
    .ARM.Collect$$libinit$$00000007          0x080002be   Section        8  libinit2.o(.ARM.Collect$$libinit$$00000007)
    .ARM.Collect$$libinit$$0000000C          0x080002c6   Section        0  libinit2.o(.ARM.Collect$$libinit$$0000000C)
    .ARM.Collect$$libinit$$0000000E          0x080002c6   Section        0  libinit2.o(.ARM.Collect$$libinit$$0000000E)
    .ARM.Collect$$libinit$$0000000F          0x080002c6   Section        4  libinit2.o(.ARM.Collect$$libinit$$0000000F)
    .ARM.Collect$$libinit$$00000010          0x080002ca   Section        0  libinit2.o(.ARM.Collect$$libinit$$00000010)
    .ARM.Collect$$libinit$$00000011          0x080002ca   Section        6  libinit2.o(.ARM.Collect$$libinit$$00000011)
    .ARM.Collect$$libinit$$00000013          0x080002d0   Section        0  libinit2.o(.ARM.Collect$$libinit$$00000013)
    .ARM.Collect$$libinit$$00000014          0x080002d0   Section       12  libinit2.o(.ARM.Collect$$libinit$$00000014)
    .ARM.Collect$$libinit$$00000015          0x080002dc   Section        0  libinit2.o(.ARM.Collect$$libinit$$00000015)
    .ARM.Collect$$libinit$$00000017          0x080002dc   Section        0  libinit2.o(.ARM.Collect$$libinit$$00000017)
    .ARM.Collect$$libinit$$00000018          0x080002dc   Section       10  libinit2.o(.ARM.Collect$$libinit$$00000018)
    .ARM.Collect$$libinit$$00000019          0x080002e6   Section        0  libinit2.o(.ARM.Collect$$libinit$$00000019)
    .ARM.Collect$$libinit$$0000001B          0x080002e6   Section        0  libinit2.o(.ARM.Collect$$libinit$$0000001B)
    .ARM.Collect$$libinit$$0000001D          0x080002e6   Section        0  libinit2.o(.ARM.Collect$$libinit$$0000001D)
    .ARM.Collect$$libinit$$0000001F          0x080002e6   Section        0  libinit2.o(.ARM.Collect$$libinit$$0000001F)
    .ARM.Collect$$libinit$$00000021          0x080002e6   Section        0  libinit2.o(.ARM.Collect$$libinit$$00000021)
    .ARM.Collect$$libinit$$00000023          0x080002e6   Section        0  libinit2.o(.ARM.Collect$$libinit$$00000023)
    .ARM.Collect$$libinit$$00000025          0x080002e6   Section        0  libinit2.o(.ARM.Collect$$libinit$$00000025)
    .ARM.Collect$$libinit$$00000026          0x080002e6   Section        4  libinit2.o(.ARM.Collect$$libinit$$00000026)
    .ARM.Collect$$libinit$$00000027          0x080002ea   Section        0  libinit2.o(.ARM.Collect$$libinit$$00000027)
    .ARM.Collect$$libinit$$0000002E          0x080002ea   Section        0  libinit2.o(.ARM.Collect$$libinit$$0000002E)
    .ARM.Collect$$libinit$$00000030          0x080002ea   Section        0  libinit2.o(.ARM.Collect$$libinit$$00000030)
    .ARM.Collect$$libinit$$00000032          0x080002ea   Section        0  libinit2.o(.ARM.Collect$$libinit$$00000032)
    .ARM.Collect$$libinit$$00000034          0x080002ea   Section        0  libinit2.o(.ARM.Collect$$libinit$$00000034)
    .ARM.Collect$$libinit$$00000035          0x080002ea   Section        2  libinit2.o(.ARM.Collect$$libinit$$00000035)
    .ARM.Collect$$libshutdown$$00000000      0x080002ec   Section        2  libshutdown.o(.ARM.Collect$$libshutdown$$00000000)
    .ARM.Collect$$libshutdown$$00000002      0x080002ee   Section        0  libshutdown2.o(.ARM.Collect$$libshutdown$$00000002)
    .ARM.Collect$$libshutdown$$00000003      0x080002ee   Section        4  libshutdown2.o(.ARM.Collect$$libshutdown$$00000003)
    .ARM.Collect$$libshutdown$$00000004      0x080002f2   Section        0  libshutdown2.o(.ARM.Collect$$libshutdown$$00000004)
    .ARM.Collect$$libshutdown$$00000007      0x080002f2   Section        0  libshutdown2.o(.ARM.Collect$$libshutdown$$00000007)
    .ARM.Collect$$libshutdown$$0000000A      0x080002f2   Section        0  libshutdown2.o(.ARM.Collect$$libshutdown$$0000000A)
    .ARM.Collect$$libshutdown$$0000000C      0x080002f2   Section        0  libshutdown2.o(.ARM.Collect$$libshutdown$$0000000C)
    .ARM.Collect$$libshutdown$$0000000F      0x080002f2   Section        0  libshutdown2.o(.ARM.Collect$$libshutdown$$0000000F)
    .ARM.Collect$$libshutdown$$00000010      0x080002f2   Section        2  libshutdown2.o(.ARM.Collect$$libshutdown$$00000010)
    .ARM.Collect$$rtentry$$00000000          0x080002f4   Section        0  __rtentry.o(.ARM.Collect$$rtentry$$00000000)
    .ARM.Collect$$rtentry$$00000002          0x080002f4   Section        0  __rtentry2.o(.ARM.Collect$$rtentry$$00000002)
    .ARM.Collect$$rtentry$$00000004          0x080002f4   Section        6  __rtentry4.o(.ARM.Collect$$rtentry$$00000004)
    .ARM.Collect$$rtentry$$00000009          0x080002fa   Section        0  __rtentry2.o(.ARM.Collect$$rtentry$$00000009)
    .ARM.Collect$$rtentry$$0000000A          0x080002fa   Section        4  __rtentry2.o(.ARM.Collect$$rtentry$$0000000A)
    .ARM.Collect$$rtentry$$0000000C          0x080002fe   Section        0  __rtentry2.o(.ARM.Collect$$rtentry$$0000000C)
    .ARM.Collect$$rtentry$$0000000D          0x080002fe   Section        8  __rtentry2.o(.ARM.Collect$$rtentry$$0000000D)
    .ARM.Collect$$rtexit$$00000000           0x08000306   Section        2  rtexit.o(.ARM.Collect$$rtexit$$00000000)
    .ARM.Collect$$rtexit$$00000002           0x08000308   Section        0  rtexit2.o(.ARM.Collect$$rtexit$$00000002)
    .ARM.Collect$$rtexit$$00000003           0x08000308   Section        4  rtexit2.o(.ARM.Collect$$rtexit$$00000003)
    .ARM.Collect$$rtexit$$00000004           0x0800030c   Section        6  rtexit2.o(.ARM.Collect$$rtexit$$00000004)
    .emb_text                                0x08000314   Section       52  rand.o(.emb_text)
    $v0                                      0x08000348   Number         0  startup_stm32f469xx.o(.text)
    .text                                    0x08000348   Section       64  startup_stm32f469xx.o(.text)
    .text                                    0x08000388   Section      240  lludivv7m.o(.text)
    .text                                    0x08000478   Section        0  printf.o(.text)
    .text                                    0x08000490   Section        0  sprintf.o(.text)
    .text                                    0x080004bc   Section        0  abs.o(.text)
    .text                                    0x080004c4   Section        0  rand.o(.text)
    .text                                    0x08000500   Section        0  strlen.o(.text)
    .text                                    0x0800053e   Section      138  rt_memcpy_v6.o(.text)
    .text                                    0x080005c8   Section       68  rt_memclr.o(.text)
    .text                                    0x0800060c   Section       78  rt_memclr_w.o(.text)
    .text                                    0x08000660   Section      124  strcmpv7em.o(.text)
    .text                                    0x080006dc   Section        0  heapauxi.o(.text)
    .text                                    0x080006e2   Section        0  _rserrno.o(.text)
    .text                                    0x080006f8   Section        0  _printf_pad.o(.text)
    .text                                    0x08000746   Section        0  _printf_truncate.o(.text)
    .text                                    0x0800076a   Section        0  _printf_str.o(.text)
    .text                                    0x080007bc   Section        0  _printf_dec.o(.text)
    .text                                    0x08000834   Section        0  _printf_charcount.o(.text)
    _printf_input_char                       0x0800085d   Thumb Code    10  _printf_char_common.o(.text)
    .text                                    0x0800085c   Section        0  _printf_char_common.o(.text)
    .text                                    0x0800088c   Section        0  _sputc.o(.text)
    .text                                    0x08000898   Section        0  _printf_char_file.o(.text)
    .text                                    0x080008bc   Section        0  _printf_wctomb.o(.text)
    .text                                    0x08000978   Section        0  _printf_longlong_dec.o(.text)
    _printf_longlong_oct_internal            0x080009f5   Thumb Code     0  _printf_oct_int_ll.o(.text)
    .text                                    0x080009f4   Section        0  _printf_oct_int_ll.o(.text)
    _printf_hex_common                       0x08000a65   Thumb Code     0  _printf_hex_int_ll_ptr.o(.text)
    .text                                    0x08000a64   Section        0  _printf_hex_int_ll_ptr.o(.text)
    .text                                    0x08000af8   Section        0  __printf_flags_ss_wp.o(.text)
    .text                                    0x08000c80   Section      100  rt_memcpy_w.o(.text)
    .text                                    0x08000ce4   Section        8  rt_errno_addr_intlibspace.o(.text)
    .text                                    0x08000cec   Section      138  lludiv10.o(.text)
    .text                                    0x08000d76   Section        0  _printf_intcommon.o(.text)
    _fp_digits                               0x08000e29   Thumb Code   432  _printf_fp_dec.o(.text)
    .text                                    0x08000e28   Section        0  _printf_fp_dec.o(.text)
    .text                                    0x08001244   Section        0  _printf_fp_hex.o(.text)
    .text                                    0x08001540   Section        0  _printf_char.o(.text)
    .text                                    0x0800156c   Section        0  _printf_wchar.o(.text)
    .text                                    0x08001598   Section        0  ferror.o(.text)
    .text                                    0x080015a0   Section        0  initio.o(.text)
    .text                                    0x080016d8   Section        0  _c16rtomb.o(.text)
    .text                                    0x08001720   Section        8  libspace.o(.text)
    .text                                    0x08001728   Section       74  sys_stackheap_outer.o(.text)
    .text                                    0x08001774   Section       16  rt_ctype_table.o(.text)
    .text                                    0x08001784   Section        8  rt_locale_intlibspace.o(.text)
    .text                                    0x0800178c   Section        0  h1_free.o(.text)
    .text                                    0x080017dc   Section        0  _printf_fp_infnan.o(.text)
    .text                                    0x0800185c   Section        0  bigflt0.o(.text)
    .text                                    0x08001940   Section        0  flsbuf.o(.text)
    .text                                    0x08001b22   Section        0  setvbuf.o(.text)
    _freopen_locked                          0x08001b69   Thumb Code     0  fopen.o(.text)
    .text                                    0x08001b68   Section        0  fopen.o(.text)
    .text                                    0x08001c58   Section        0  fclose.o(.text)
    .text                                    0x08001ca4   Section        0  exit.o(.text)
    .text                                    0x08001cb6   Section        0  defsig_rtred_outer.o(.text)
    .text                                    0x08001cc4   Section        8  rt_heap_descriptor_intlibspace.o(.text)
    .text                                    0x08001ccc   Section        0  hguard.o(.text)
    .text                                    0x08001cd0   Section        0  init_alloc.o(.text)
    .text                                    0x08001d5a   Section        0  h1_alloc.o(.text)
    .text                                    0x08001db8   Section        0  fseek.o(.text)
    .text                                    0x08001eb0   Section        0  stdio.o(.text)
    .text                                    0x08001fa0   Section        0  defsig_exit.o(.text)
    .text                                    0x08001fac   Section        0  defsig_rtred_inner.o(.text)
    .text                                    0x08001fe0   Section        0  defsig_rtmem_outer.o(.text)
    .text                                    0x08001ff0   Section        0  sys_exit.o(.text)
    .text                                    0x08001ffc   Section        2  use_no_semi.o(.text)
    .text                                    0x08001ffe   Section        0  indicate_semi.o(.text)
    .text                                    0x08001ffe   Section        0  maybetermalloc1.o(.text)
    .text                                    0x08001ffe   Section        0  h1_init.o(.text)
    .text                                    0x0800200c   Section        0  h1_extend.o(.text)
    .text                                    0x08002040   Section        0  ftell.o(.text)
    .text                                    0x08002082   Section        0  defsig_general.o(.text)
    .text                                    0x080020b4   Section        0  defsig_rtmem_inner.o(.text)
    .text                                    0x08002104   Section        0  sys_wrch.o(.text)
    ADC_Init                                 0x08002115   Thumb Code   394  stm32f4xx_hal_adc.o(.text.ADC_Init)
    [Anonymous Symbol]                       0x08002114   Section        0  stm32f4xx_hal_adc.o(.text.ADC_Init)
    [Anonymous Symbol]                       0x080022a0   Section        0  stm32f4xx_it.o(.text.BusFault_Handler)
    CDC_Control_FS                           0x080022a5   Thumb Code    92  usbd_cdc_if.o(.text.CDC_Control_FS)
    [Anonymous Symbol]                       0x080022a4   Section        0  usbd_cdc_if.o(.text.CDC_Control_FS)
    CDC_DeInit_FS                            0x08002301   Thumb Code     4  usbd_cdc_if.o(.text.CDC_DeInit_FS)
    [Anonymous Symbol]                       0x08002300   Section        0  usbd_cdc_if.o(.text.CDC_DeInit_FS)
    CDC_Init_FS                              0x08002305   Thumb Code    50  usbd_cdc_if.o(.text.CDC_Init_FS)
    [Anonymous Symbol]                       0x08002304   Section        0  usbd_cdc_if.o(.text.CDC_Init_FS)
    CDC_Receive_FS                           0x08002339   Thumb Code    36  usbd_cdc_if.o(.text.CDC_Receive_FS)
    [Anonymous Symbol]                       0x08002338   Section        0  usbd_cdc_if.o(.text.CDC_Receive_FS)
    CDC_TransmitCplt_FS                      0x0800235d   Thumb Code    24  usbd_cdc_if.o(.text.CDC_TransmitCplt_FS)
    [Anonymous Symbol]                       0x0800235c   Section        0  usbd_cdc_if.o(.text.CDC_TransmitCplt_FS)
    [Anonymous Symbol]                       0x08002374   Section        0  usbd_cdc_if.o(.text.CDC_Transmit_FS)
    [Anonymous Symbol]                       0x080023d4   Section        0  lcd_gui.o(.text.CharTest)
    [Anonymous Symbol]                       0x08002540   Section        0  lcd_gui.o(.text.CircleTest)
    [Anonymous Symbol]                       0x08002634   Section        0  lcd_gui.o(.text.ClearTest)
    [Anonymous Symbol]                       0x08002648   Section        0  stm32f4xx_it.o(.text.DMA2_Stream1_IRQHandler)
    [Anonymous Symbol]                       0x08002658   Section        0  stm32f4xx_it.o(.text.DMA2_Stream6_IRQHandler)
    DMA_CalcBaseAndBitshift                  0x08002669   Thumb Code    86  stm32f4xx_hal_dma.o(.text.DMA_CalcBaseAndBitshift)
    [Anonymous Symbol]                       0x08002668   Section        0  stm32f4xx_hal_dma.o(.text.DMA_CalcBaseAndBitshift)
    DMA_CheckFifoParam                       0x080026c1   Thumb Code   240  stm32f4xx_hal_dma.o(.text.DMA_CheckFifoParam)
    [Anonymous Symbol]                       0x080026c0   Section        0  stm32f4xx_hal_dma.o(.text.DMA_CheckFifoParam)
    [Anonymous Symbol]                       0x080027b0   Section        0  stm32f4xx_it.o(.text.DebugMon_Handler)
    [Anonymous Symbol]                       0x080027b4   Section        0  dev_config.o(.text.Driver_Delay_ms)
    [Anonymous Symbol]                       0x080027c4   Section        0  dev_config.o(.text.Driver_Delay_us)
    [Anonymous Symbol]                       0x080027e4   Section        0  main.o(.text.Error_Handler)
    EventCheckFilter                         0x080027f5   Thumb Code    60  eventrecorder.o(.text.EventCheckFilter)
    [Anonymous Symbol]                       0x080027f4   Section        0  eventrecorder.o(.text.EventCheckFilter)
    EventGetTS                               0x08002831   Thumb Code    90  eventrecorder.o(.text.EventGetTS)
    [Anonymous Symbol]                       0x08002830   Section        0  eventrecorder.o(.text.EventGetTS)
    [Anonymous Symbol]                       0x0800288c   Section        0  eventrecorder.o(.text.EventRecordData)
    EventRecordItem                          0x08002a11   Thumb Code   254  eventrecorder.o(.text.EventRecordItem)
    [Anonymous Symbol]                       0x08002a10   Section        0  eventrecorder.o(.text.EventRecordItem)
    [Anonymous Symbol]                       0x08002b10   Section        0  eventrecorder.o(.text.EventRecorderEnable)
    [Anonymous Symbol]                       0x08002ba4   Section        0  eventrecorder.o(.text.EventRecorderInitialize)
    [Anonymous Symbol]                       0x08002d68   Section        0  eventrecorder.o(.text.EventRecorderStart)
    [Anonymous Symbol]                       0x08002db4   Section        0  eventrecorder.o(.text.EventRecorderTimerGetCount)
    [Anonymous Symbol]                       0x08002dc0   Section        0  eventrecorder.o(.text.EventRecorderTimerGetFreq)
    [Anonymous Symbol]                       0x08002dcc   Section        0  eventrecorder.o(.text.EventRecorderTimerSetup)
    [Anonymous Symbol]                       0x08002df0   Section        0  lcd_gui.o(.text.FillRectTest)
    [Anonymous Symbol]                       0x08002edc   Section        0  lcd_gui.o(.text.FullCircleTest)
    [Anonymous Symbol]                       0x08002fcc   Section        0  lcd_gui.o(.text.GUI_Clear)
    [Anonymous Symbol]                       0x08002fe0   Section        0  lcd_gui.o(.text.GUI_DisChar)
    [Anonymous Symbol]                       0x08003198   Section        0  lcd_gui.o(.text.GUI_DisNum)
    [Anonymous Symbol]                       0x080032c4   Section        0  lcd_gui.o(.text.GUI_DisString_EN)
    [Anonymous Symbol]                       0x080033d4   Section        0  lcd_gui.o(.text.GUI_DrawCircle)
    [Anonymous Symbol]                       0x08003800   Section        0  lcd_gui.o(.text.GUI_DrawLine)
    [Anonymous Symbol]                       0x08003a4c   Section        0  lcd_gui.o(.text.GUI_DrawPoint)
    [Anonymous Symbol]                       0x08003b9c   Section        0  lcd_gui.o(.text.GUI_DrawRectangle)
    [Anonymous Symbol]                       0x08003d40   Section        0  lcd_gui.o(.text.GUI_Show)
    [Anonymous Symbol]                       0x08004418   Section        0  lcd_gui.o(.text.GUI_Swop)
    GetContext                               0x08004441   Thumb Code    18  eventrecorder.o(.text.GetContext)
    [Anonymous Symbol]                       0x08004440   Section        0  eventrecorder.o(.text.GetContext)
    GetRecordIndex                           0x08004455   Thumb Code    18  eventrecorder.o(.text.GetRecordIndex)
    [Anonymous Symbol]                       0x08004454   Section        0  eventrecorder.o(.text.GetRecordIndex)
    Get_SerialNum                            0x08004469   Thumb Code    92  usbd_desc.o(.text.Get_SerialNum)
    [Anonymous Symbol]                       0x08004468   Section        0  usbd_desc.o(.text.Get_SerialNum)
    [Anonymous Symbol]                       0x080044c4   Section        0  stm32f4xx_hal_adc.o(.text.HAL_ADC_ConfigChannel)
    [Anonymous Symbol]                       0x080046fc   Section        0  stm32f4xx_hal_adc.o(.text.HAL_ADC_Init)
    [Anonymous Symbol]                       0x080047a4   Section        0  stm32f4xx_hal_msp.o(.text.HAL_ADC_MspInit)
    [Anonymous Symbol]                       0x0800486c   Section        0  stm32f4xx_hal_crc.o(.text.HAL_CRC_Init)
    [Anonymous Symbol]                       0x080048ac   Section        0  stm32f4xx_hal_msp.o(.text.HAL_CRC_MspInit)
    [Anonymous Symbol]                       0x080048ec   Section        0  stm32f4xx_hal_dma2d.o(.text.HAL_DMA2D_ConfigLayer)
    [Anonymous Symbol]                       0x08004a38   Section        0  stm32f4xx_hal_dma2d.o(.text.HAL_DMA2D_Init)
    [Anonymous Symbol]                       0x08004ac8   Section        0  stm32f4xx_hal_msp.o(.text.HAL_DMA2D_MspInit)
    [Anonymous Symbol]                       0x08004b08   Section        0  stm32f4xx_hal_dma.o(.text.HAL_DMA_Abort)
    [Anonymous Symbol]                       0x08004bf4   Section        0  stm32f4xx_hal_dma.o(.text.HAL_DMA_Abort_IT)
    [Anonymous Symbol]                       0x08004c38   Section        0  stm32f4xx_hal_dma.o(.text.HAL_DMA_IRQHandler)
    [Anonymous Symbol]                       0x08004f58   Section        0  stm32f4xx_hal_dma.o(.text.HAL_DMA_Init)
    [Anonymous Symbol]                       0x080050c8   Section        0  stm32f4xx_hal.o(.text.HAL_Delay)
    [Anonymous Symbol]                       0x0800510c   Section        0  stm32f4xx_hal_gpio.o(.text.HAL_GPIO_DeInit)
    [Anonymous Symbol]                       0x08005368   Section        0  stm32f4xx_hal_gpio.o(.text.HAL_GPIO_Init)
    [Anonymous Symbol]                       0x08005758   Section        0  stm32f4xx_hal_gpio.o(.text.HAL_GPIO_ReadPin)
    [Anonymous Symbol]                       0x08005788   Section        0  stm32f4xx_hal_gpio.o(.text.HAL_GPIO_WritePin)
    [Anonymous Symbol]                       0x080057b8   Section        0  stm32f4xx_hal.o(.text.HAL_GetTick)
    [Anonymous Symbol]                       0x080057c4   Section        0  stm32f4xx_hal_i2c.o(.text.HAL_I2C_Init)
    [Anonymous Symbol]                       0x08005a68   Section        0  stm32f4xx_hal_msp.o(.text.HAL_I2C_MspInit)
    [Anonymous Symbol]                       0x08005b78   Section        0  stm32f4xx_hal.o(.text.HAL_IncTick)
    [Anonymous Symbol]                       0x08005b94   Section        0  stm32f4xx_hal.o(.text.HAL_Init)
    [Anonymous Symbol]                       0x08005bcc   Section        0  stm32f4xx_hal.o(.text.HAL_InitTick)
    [Anonymous Symbol]                       0x08005c3c   Section        0  stm32f4xx_hal_msp.o(.text.HAL_MspInit)
    [Anonymous Symbol]                       0x08005c88   Section        0  stm32f4xx_hal_cortex.o(.text.HAL_NVIC_DisableIRQ)
    [Anonymous Symbol]                       0x08005c9c   Section        0  stm32f4xx_hal_cortex.o(.text.HAL_NVIC_EnableIRQ)
    [Anonymous Symbol]                       0x08005cb0   Section        0  stm32f4xx_hal_cortex.o(.text.HAL_NVIC_SetPriority)
    [Anonymous Symbol]                       0x08005ce4   Section        0  stm32f4xx_hal_cortex.o(.text.HAL_NVIC_SetPriorityGrouping)
    [Anonymous Symbol]                       0x08005cf4   Section        0  stm32f4xx_hal_pcd_ex.o(.text.HAL_PCDEx_ActivateLPM)
    [Anonymous Symbol]                       0x08005d2c   Section        0  usbd_conf.o(.text.HAL_PCDEx_LPM_Callback)
    [Anonymous Symbol]                       0x08005dc0   Section        0  stm32f4xx_hal_pcd_ex.o(.text.HAL_PCDEx_SetRxFiFo)
    [Anonymous Symbol]                       0x08005dd8   Section        0  stm32f4xx_hal_pcd_ex.o(.text.HAL_PCDEx_SetTxFiFo)
    [Anonymous Symbol]                       0x08005e74   Section        0  usbd_conf.o(.text.HAL_PCD_ConnectCallback)
    [Anonymous Symbol]                       0x08005e88   Section        0  usbd_conf.o(.text.HAL_PCD_DataInStageCallback)
    [Anonymous Symbol]                       0x08005eb0   Section        0  usbd_conf.o(.text.HAL_PCD_DataOutStageCallback)
    [Anonymous Symbol]                       0x08005ed8   Section        0  usbd_conf.o(.text.HAL_PCD_DisconnectCallback)
    [Anonymous Symbol]                       0x08005eec   Section        0  stm32f4xx_hal_pcd.o(.text.HAL_PCD_EP_Abort)
    [Anonymous Symbol]                       0x08005f4c   Section        0  stm32f4xx_hal_pcd.o(.text.HAL_PCD_EP_Close)
    [Anonymous Symbol]                       0x08005ff4   Section        0  stm32f4xx_hal_pcd.o(.text.HAL_PCD_EP_ClrStall)
    [Anonymous Symbol]                       0x080060bc   Section        0  stm32f4xx_hal_pcd.o(.text.HAL_PCD_EP_GetRxCount)
    [Anonymous Symbol]                       0x080060e0   Section        0  stm32f4xx_hal_pcd.o(.text.HAL_PCD_EP_Open)
    [Anonymous Symbol]                       0x080061cc   Section        0  stm32f4xx_hal_pcd.o(.text.HAL_PCD_EP_Receive)
    [Anonymous Symbol]                       0x08006254   Section        0  stm32f4xx_hal_pcd.o(.text.HAL_PCD_EP_SetStall)
    [Anonymous Symbol]                       0x08006334   Section        0  stm32f4xx_hal_pcd.o(.text.HAL_PCD_EP_Transmit)
    [Anonymous Symbol]                       0x080063bc   Section        0  stm32f4xx_hal_pcd.o(.text.HAL_PCD_IRQHandler)
    [Anonymous Symbol]                       0x08006c48   Section        0  usbd_conf.o(.text.HAL_PCD_ISOINIncompleteCallback)
    [Anonymous Symbol]                       0x08006c64   Section        0  usbd_conf.o(.text.HAL_PCD_ISOOUTIncompleteCallback)
    [Anonymous Symbol]                       0x08006c80   Section        0  stm32f4xx_hal_pcd.o(.text.HAL_PCD_Init)
    [Anonymous Symbol]                       0x08006f44   Section        0  usbd_conf.o(.text.HAL_PCD_MspInit)
    [Anonymous Symbol]                       0x08007014   Section        0  usbd_conf.o(.text.HAL_PCD_ResetCallback)
    [Anonymous Symbol]                       0x08007068   Section        0  usbd_conf.o(.text.HAL_PCD_ResumeCallback)
    [Anonymous Symbol]                       0x0800707c   Section        0  usbd_conf.o(.text.HAL_PCD_SOFCallback)
    [Anonymous Symbol]                       0x08007090   Section        0  stm32f4xx_hal_pcd.o(.text.HAL_PCD_SetAddress)
    [Anonymous Symbol]                       0x080070f0   Section        0  usbd_conf.o(.text.HAL_PCD_SetupStageCallback)
    [Anonymous Symbol]                       0x08007108   Section        0  stm32f4xx_hal_pcd.o(.text.HAL_PCD_Start)
    [Anonymous Symbol]                       0x08007184   Section        0  usbd_conf.o(.text.HAL_PCD_SuspendCallback)
    [Anonymous Symbol]                       0x080071c4   Section        0  stm32f4xx_hal_qspi.o(.text.HAL_QSPI_Init)
    [Anonymous Symbol]                       0x080072d8   Section        0  stm32f4xx_hal_msp.o(.text.HAL_QSPI_MspInit)
    [Anonymous Symbol]                       0x080074a4   Section        0  stm32f4xx_hal_qspi.o(.text.HAL_QSPI_SetTimeout)
    [Anonymous Symbol]                       0x080074b4   Section        0  stm32f4xx_hal_rcc_ex.o(.text.HAL_RCCEx_PeriphCLKConfig)
    [Anonymous Symbol]                       0x080079cc   Section        0  stm32f4xx_hal_rcc.o(.text.HAL_RCC_CSSCallback)
    [Anonymous Symbol]                       0x080079d0   Section        0  stm32f4xx_hal_rcc.o(.text.HAL_RCC_ClockConfig)
    [Anonymous Symbol]                       0x08007c34   Section        0  stm32f4xx_hal_rcc.o(.text.HAL_RCC_EnableCSS)
    [Anonymous Symbol]                       0x08007c40   Section        0  stm32f4xx_hal_rcc.o(.text.HAL_RCC_GetHCLKFreq)
    [Anonymous Symbol]                       0x08007c4c   Section        0  stm32f4xx_hal_rcc.o(.text.HAL_RCC_GetPCLK1Freq)
    [Anonymous Symbol]                       0x08007c70   Section        0  stm32f4xx_hal_rcc.o(.text.HAL_RCC_GetPCLK2Freq)
    [Anonymous Symbol]                       0x08007c94   Section        0  stm32f4xx_hal_rcc.o(.text.HAL_RCC_GetSysClockFreq)
    [Anonymous Symbol]                       0x08007d7c   Section        0  stm32f4xx_hal_rcc.o(.text.HAL_RCC_NMI_IRQHandler)
    [Anonymous Symbol]                       0x08007da4   Section        0  stm32f4xx_hal_rcc_ex.o(.text.HAL_RCC_OscConfig)
    [Anonymous Symbol]                       0x0800847c   Section        0  stm32f4xx_hal_spi.o(.text.HAL_SPI_DeInit)
    [Anonymous Symbol]                       0x080084d4   Section        0  stm32f4xx_hal_spi.o(.text.HAL_SPI_ErrorCallback)
    [Anonymous Symbol]                       0x080084dc   Section        0  stm32f4xx_hal_spi.o(.text.HAL_SPI_IRQHandler)
    [Anonymous Symbol]                       0x0800870c   Section        0  stm32f4xx_hal_spi.o(.text.HAL_SPI_Init)
    [Anonymous Symbol]                       0x0800880c   Section        0  stm32f4xx_hal_msp.o(.text.HAL_SPI_MspDeInit)
    [Anonymous Symbol]                       0x08008924   Section        0  stm32f4xx_hal_msp.o(.text.HAL_SPI_MspInit)
    [Anonymous Symbol]                       0x08008c58   Section        0  stm32f4xx_hal_spi.o(.text.HAL_SPI_Receive_IT)
    [Anonymous Symbol]                       0x08008db0   Section        0  stm32f4xx_hal_spi.o(.text.HAL_SPI_RxCpltCallback)
    [Anonymous Symbol]                       0x08008db8   Section        0  stm32f4xx_hal_spi.o(.text.HAL_SPI_Transmit)
    [Anonymous Symbol]                       0x0800903c   Section        0  stm32f4xx_hal_spi.o(.text.HAL_SPI_TransmitReceive_IT)
    [Anonymous Symbol]                       0x08009198   Section        0  stm32f4xx_hal_spi.o(.text.HAL_SPI_TxRxCpltCallback)
    [Anonymous Symbol]                       0x080091a0   Section        0  stm32f4xx_hal_cortex.o(.text.HAL_SYSTICK_Config)
    [Anonymous Symbol]                       0x080091b0   Section        0  stm32f4xx_hal_uart.o(.text.HAL_UARTEx_RxEventCallback)
    [Anonymous Symbol]                       0x080091bc   Section        0  stm32f4xx_hal_uart.o(.text.HAL_UART_ErrorCallback)
    [Anonymous Symbol]                       0x080091c4   Section        0  stm32f4xx_hal_uart.o(.text.HAL_UART_IRQHandler)
    [Anonymous Symbol]                       0x080095e4   Section        0  stm32f4xx_hal_uart.o(.text.HAL_UART_Init)
    [Anonymous Symbol]                       0x08009680   Section        0  stm32f4xx_hal_msp.o(.text.HAL_UART_MspInit)
    [Anonymous Symbol]                       0x080098ec   Section        0  stm32f4xx_hal_uart.o(.text.HAL_UART_Receive_IT)
    [Anonymous Symbol]                       0x08009964   Section        0  stm32f4xx_hal_uart.o(.text.HAL_UART_RxCpltCallback)
    [Anonymous Symbol]                       0x0800996c   Section        0  stm32f4xx_hal_uart.o(.text.HAL_UART_Transmit)
    [Anonymous Symbol]                       0x08009abc   Section        0  stm32f4xx_hal_uart.o(.text.HAL_UART_TxCpltCallback)
    [Anonymous Symbol]                       0x08009ac4   Section        0  stm32f4xx_it.o(.text.HardFault_Handler)
    IncrementRecordsDumped                   0x08009ae1   Thumb Code    18  eventrecorder.o(.text.IncrementRecordsDumped)
    [Anonymous Symbol]                       0x08009ae0   Section        0  eventrecorder.o(.text.IncrementRecordsDumped)
    IncrementRecordsWritten                  0x08009af5   Thumb Code    18  eventrecorder.o(.text.IncrementRecordsWritten)
    [Anonymous Symbol]                       0x08009af4   Section        0  eventrecorder.o(.text.IncrementRecordsWritten)
    IntToUnicode                             0x08009b09   Thumb Code   122  usbd_desc.o(.text.IntToUnicode)
    [Anonymous Symbol]                       0x08009b08   Section        0  usbd_desc.o(.text.IntToUnicode)
    [Anonymous Symbol]                       0x08009b84   Section        0  lcd_driver.o(.text.LCD_Clear)
    [Anonymous Symbol]                       0x08009bac   Section        0  lcd_driver.o(.text.LCD_Init)
    LCD_InitReg                              0x08009c05   Thumb Code   550  lcd_driver.o(.text.LCD_InitReg)
    [Anonymous Symbol]                       0x08009c04   Section        0  lcd_driver.o(.text.LCD_InitReg)
    LCD_Reset                                0x08009e2d   Thumb Code    72  lcd_driver.o(.text.LCD_Reset)
    [Anonymous Symbol]                       0x08009e2c   Section        0  lcd_driver.o(.text.LCD_Reset)
    [Anonymous Symbol]                       0x08009e74   Section        0  lcd_driver.o(.text.LCD_SetArealColor)
    LCD_SetBackLight                         0x08009ee9   Thumb Code    10  lcd_driver.o(.text.LCD_SetBackLight)
    [Anonymous Symbol]                       0x08009ee8   Section        0  lcd_driver.o(.text.LCD_SetBackLight)
    [Anonymous Symbol]                       0x08009ef4   Section        0  lcd_driver.o(.text.LCD_SetColor)
    [Anonymous Symbol]                       0x08009f1c   Section        0  lcd_driver.o(.text.LCD_SetCursor)
    [Anonymous Symbol]                       0x08009f3c   Section        0  lcd_driver.o(.text.LCD_SetGramScanWay)
    [Anonymous Symbol]                       0x0800a060   Section        0  lcd_driver.o(.text.LCD_SetPointlColor)
    [Anonymous Symbol]                       0x0800a0b8   Section        0  lcd_driver.o(.text.LCD_SetWindow)
    [Anonymous Symbol]                       0x0800a138   Section        0  lcd_driver.o(.text.LCD_WriteData)
    [Anonymous Symbol]                       0x0800a184   Section        0  lcd_driver.o(.text.LCD_WriteReg)
    LCD_Write_AllData                        0x0800a1c9   Thumb Code   106  lcd_driver.o(.text.LCD_Write_AllData)
    [Anonymous Symbol]                       0x0800a1c8   Section        0  lcd_driver.o(.text.LCD_Write_AllData)
    [Anonymous Symbol]                       0x0800a234   Section        0  lcd_gui.o(.text.LineTest)
    LockRecord                               0x0800a321   Thumb Code    54  eventrecorder.o(.text.LockRecord)
    [Anonymous Symbol]                       0x0800a320   Section        0  eventrecorder.o(.text.LockRecord)
    LockTS_Overflow                          0x0800a359   Thumb Code    18  eventrecorder.o(.text.LockTS_Overflow)
    [Anonymous Symbol]                       0x0800a358   Section        0  eventrecorder.o(.text.LockTS_Overflow)
    MX_ADC1_Init                             0x0800a36d   Thumb Code   122  main.o(.text.MX_ADC1_Init)
    [Anonymous Symbol]                       0x0800a36c   Section        0  main.o(.text.MX_ADC1_Init)
    MX_CRC_Init                              0x0800a3e9   Thumb Code    36  main.o(.text.MX_CRC_Init)
    [Anonymous Symbol]                       0x0800a3e8   Section        0  main.o(.text.MX_CRC_Init)
    MX_DMA2D_Init                            0x0800a40d   Thumb Code    82  main.o(.text.MX_DMA2D_Init)
    [Anonymous Symbol]                       0x0800a40c   Section        0  main.o(.text.MX_DMA2D_Init)
    MX_DMA_Init                              0x0800a461   Thumb Code    80  main.o(.text.MX_DMA_Init)
    [Anonymous Symbol]                       0x0800a460   Section        0  main.o(.text.MX_DMA_Init)
    MX_GPIO_Init                             0x0800a4b1   Thumb Code   524  main.o(.text.MX_GPIO_Init)
    [Anonymous Symbol]                       0x0800a4b0   Section        0  main.o(.text.MX_GPIO_Init)
    MX_I2C1_Init                             0x0800a6bd   Thumb Code    72  main.o(.text.MX_I2C1_Init)
    [Anonymous Symbol]                       0x0800a6bc   Section        0  main.o(.text.MX_I2C1_Init)
    MX_I2C2_Init                             0x0800a705   Thumb Code    72  main.o(.text.MX_I2C2_Init)
    [Anonymous Symbol]                       0x0800a704   Section        0  main.o(.text.MX_I2C2_Init)
    MX_QUADSPI_Init                          0x0800a74d   Thumb Code    64  main.o(.text.MX_QUADSPI_Init)
    [Anonymous Symbol]                       0x0800a74c   Section        0  main.o(.text.MX_QUADSPI_Init)
    MX_SPI1_Init                             0x0800a78d   Thumb Code    78  main.o(.text.MX_SPI1_Init)
    [Anonymous Symbol]                       0x0800a78c   Section        0  main.o(.text.MX_SPI1_Init)
    MX_SPI2_Init                             0x0800a7dd   Thumb Code    78  main.o(.text.MX_SPI2_Init)
    [Anonymous Symbol]                       0x0800a7dc   Section        0  main.o(.text.MX_SPI2_Init)
    MX_SPI3_Init                             0x0800a82d   Thumb Code    78  main.o(.text.MX_SPI3_Init)
    [Anonymous Symbol]                       0x0800a82c   Section        0  main.o(.text.MX_SPI3_Init)
    MX_SPI4_Init                             0x0800a87d   Thumb Code    68  main.o(.text.MX_SPI4_Init)
    [Anonymous Symbol]                       0x0800a87c   Section        0  main.o(.text.MX_SPI4_Init)
    MX_USART2_UART_Init                      0x0800a8c1   Thumb Code    64  main.o(.text.MX_USART2_UART_Init)
    [Anonymous Symbol]                       0x0800a8c0   Section        0  main.o(.text.MX_USART2_UART_Init)
    MX_USART3_UART_Init                      0x0800a901   Thumb Code    64  main.o(.text.MX_USART3_UART_Init)
    [Anonymous Symbol]                       0x0800a900   Section        0  main.o(.text.MX_USART3_UART_Init)
    MX_USART6_UART_Init                      0x0800a941   Thumb Code    64  main.o(.text.MX_USART6_UART_Init)
    [Anonymous Symbol]                       0x0800a940   Section        0  main.o(.text.MX_USART6_UART_Init)
    [Anonymous Symbol]                       0x0800a980   Section        0  usb_device.o(.text.MX_USB_DEVICE_Init)
    [Anonymous Symbol]                       0x0800a9f8   Section        0  stm32f4xx_it.o(.text.MemManage_Handler)
    [Anonymous Symbol]                       0x0800a9fc   Section        0  stm32f4xx_it.o(.text.NMI_Handler)
    NVIC_EncodePriority                      0x0800aa09   Thumb Code   108  stm32f4xx_hal_cortex.o(.text.NVIC_EncodePriority)
    [Anonymous Symbol]                       0x0800aa08   Section        0  stm32f4xx_hal_cortex.o(.text.NVIC_EncodePriority)
    [Anonymous Symbol]                       0x0800aa74   Section        0  stm32f4xx_it.o(.text.OTG_FS_IRQHandler)
    PCD_EP_OutSetupPacket_int                0x0800aa85   Thumb Code   138  stm32f4xx_hal_pcd.o(.text.PCD_EP_OutSetupPacket_int)
    [Anonymous Symbol]                       0x0800aa84   Section        0  stm32f4xx_hal_pcd.o(.text.PCD_EP_OutSetupPacket_int)
    PCD_EP_OutXfrComplete_int                0x0800ab11   Thumb Code   456  stm32f4xx_hal_pcd.o(.text.PCD_EP_OutXfrComplete_int)
    [Anonymous Symbol]                       0x0800ab10   Section        0  stm32f4xx_hal_pcd.o(.text.PCD_EP_OutXfrComplete_int)
    PCD_WriteEmptyTxFifo                     0x0800acd9   Thumb Code   306  stm32f4xx_hal_pcd.o(.text.PCD_WriteEmptyTxFifo)
    [Anonymous Symbol]                       0x0800acd8   Section        0  stm32f4xx_hal_pcd.o(.text.PCD_WriteEmptyTxFifo)
    [Anonymous Symbol]                       0x0800ae0c   Section        0  stm32f4xx_it.o(.text.PendSV_Handler)
    [Anonymous Symbol]                       0x0800ae10   Section        0  lcd_gui.o(.text.PixelTest)
    QSPI_WaitFlagStateUntilTimeout           0x0800aea9   Thumb Code   122  stm32f4xx_hal_qspi.o(.text.QSPI_WaitFlagStateUntilTimeout)
    [Anonymous Symbol]                       0x0800aea8   Section        0  stm32f4xx_hal_qspi.o(.text.QSPI_WaitFlagStateUntilTimeout)
    [Anonymous Symbol]                       0x0800af24   Section        0  main.o(.text.RS485_set_mode)
    [Anonymous Symbol]                       0x0800af5c   Section        0  dev_config.o(.text.SPI4W_Read_Byte)
    [Anonymous Symbol]                       0x0800af70   Section        0  dev_config.o(.text.SPI4W_Write_Byte)
    [Anonymous Symbol]                       0x0800aff4   Section        0  stm32f4xx_it.o(.text.SPI4_IRQHandler)
    SPI_2linesRxISR_16BIT                    0x0800b085   Thumb Code    76  stm32f4xx_hal_spi.o(.text.SPI_2linesRxISR_16BIT)
    [Anonymous Symbol]                       0x0800b084   Section        0  stm32f4xx_hal_spi.o(.text.SPI_2linesRxISR_16BIT)
    SPI_2linesRxISR_8BIT                     0x0800b0d1   Thumb Code    76  stm32f4xx_hal_spi.o(.text.SPI_2linesRxISR_8BIT)
    [Anonymous Symbol]                       0x0800b0d0   Section        0  stm32f4xx_hal_spi.o(.text.SPI_2linesRxISR_8BIT)
    SPI_2linesTxISR_16BIT                    0x0800b11d   Thumb Code    74  stm32f4xx_hal_spi.o(.text.SPI_2linesTxISR_16BIT)
    [Anonymous Symbol]                       0x0800b11c   Section        0  stm32f4xx_hal_spi.o(.text.SPI_2linesTxISR_16BIT)
    SPI_2linesTxISR_8BIT                     0x0800b169   Thumb Code    74  stm32f4xx_hal_spi.o(.text.SPI_2linesTxISR_8BIT)
    [Anonymous Symbol]                       0x0800b168   Section        0  stm32f4xx_hal_spi.o(.text.SPI_2linesTxISR_8BIT)
    SPI_CloseRxTx_ISR                        0x0800b1b5   Thumb Code   246  stm32f4xx_hal_spi.o(.text.SPI_CloseRxTx_ISR)
    [Anonymous Symbol]                       0x0800b1b4   Section        0  stm32f4xx_hal_spi.o(.text.SPI_CloseRxTx_ISR)
    SPI_CloseRx_ISR                          0x0800b2ad   Thumb Code   124  stm32f4xx_hal_spi.o(.text.SPI_CloseRx_ISR)
    [Anonymous Symbol]                       0x0800b2ac   Section        0  stm32f4xx_hal_spi.o(.text.SPI_CloseRx_ISR)
    SPI_DMAAbortOnError                      0x0800b329   Thumb Code    32  stm32f4xx_hal_spi.o(.text.SPI_DMAAbortOnError)
    [Anonymous Symbol]                       0x0800b328   Section        0  stm32f4xx_hal_spi.o(.text.SPI_DMAAbortOnError)
    SPI_EndRxTransaction                     0x0800b349   Thumb Code   228  stm32f4xx_hal_spi.o(.text.SPI_EndRxTransaction)
    [Anonymous Symbol]                       0x0800b348   Section        0  stm32f4xx_hal_spi.o(.text.SPI_EndRxTransaction)
    SPI_EndRxTxTransaction                   0x0800b42d   Thumb Code   164  stm32f4xx_hal_spi.o(.text.SPI_EndRxTxTransaction)
    [Anonymous Symbol]                       0x0800b42c   Section        0  stm32f4xx_hal_spi.o(.text.SPI_EndRxTxTransaction)
    SPI_RxISR_16BIT                          0x0800b4d1   Thumb Code    54  stm32f4xx_hal_spi.o(.text.SPI_RxISR_16BIT)
    [Anonymous Symbol]                       0x0800b4d0   Section        0  stm32f4xx_hal_spi.o(.text.SPI_RxISR_16BIT)
    SPI_RxISR_8BIT                           0x0800b509   Thumb Code    54  stm32f4xx_hal_spi.o(.text.SPI_RxISR_8BIT)
    [Anonymous Symbol]                       0x0800b508   Section        0  stm32f4xx_hal_spi.o(.text.SPI_RxISR_8BIT)
    SPI_WaitFlagStateUntilTimeout            0x0800b541   Thumb Code   298  stm32f4xx_hal_spi.o(.text.SPI_WaitFlagStateUntilTimeout)
    [Anonymous Symbol]                       0x0800b540   Section        0  stm32f4xx_hal_spi.o(.text.SPI_WaitFlagStateUntilTimeout)
    [Anonymous Symbol]                       0x0800b66c   Section        0  stm32f4xx_it.o(.text.SVC_Handler)
    SWAPBYTE                                 0x0800b671   Thumb Code    54  usbd_ctlreq.o(.text.SWAPBYTE)
    [Anonymous Symbol]                       0x0800b670   Section        0  usbd_ctlreq.o(.text.SWAPBYTE)
    SysTick_Config                           0x0800b6a9   Thumb Code    82  stm32f4xx_hal_cortex.o(.text.SysTick_Config)
    [Anonymous Symbol]                       0x0800b6a8   Section        0  stm32f4xx_hal_cortex.o(.text.SysTick_Config)
    [Anonymous Symbol]                       0x0800b6fc   Section        0  stm32f4xx_it.o(.text.SysTick_Handler)
    [Anonymous Symbol]                       0x0800b7f0   Section        0  main.o(.text.SystemClock_Config)
    [Anonymous Symbol]                       0x0800b8b0   Section        0  system_stm32f4xx.o(.text.SystemInit)
    [Anonymous Symbol]                       0x0800b8c8   Section        0  lcd_touch.o(.text.TP_Adjust)
    __arm_cp.0_6                             0x0800bef0   Number         4  lcd_touch.o(.text.TP_Adjust)
    [Anonymous Symbol]                       0x0800c490   Section        0  lcd_touch.o(.text.TP_Dialog)
    [Anonymous Symbol]                       0x0800c6d4   Section        0  lcd_touch.o(.text.TP_DrawBoard)
    TP_DrawCross                             0x0800cca5   Thumb Code   180  lcd_touch.o(.text.TP_DrawCross)
    [Anonymous Symbol]                       0x0800cca4   Section        0  lcd_touch.o(.text.TP_DrawCross)
    [Anonymous Symbol]                       0x0800cd58   Section        0  lcd_touch.o(.text.TP_GetAdFac)
    [Anonymous Symbol]                       0x0800ce7c   Section        0  lcd_touch.o(.text.TP_Init)
    TP_Read_ADC                              0x0800ceb1   Thumb Code   162  lcd_touch.o(.text.TP_Read_ADC)
    [Anonymous Symbol]                       0x0800ceb0   Section        0  lcd_touch.o(.text.TP_Read_ADC)
    TP_Read_ADC_Average                      0x0800cf55   Thumb Code   298  lcd_touch.o(.text.TP_Read_ADC_Average)
    [Anonymous Symbol]                       0x0800cf54   Section        0  lcd_touch.o(.text.TP_Read_ADC_Average)
    TP_Read_ADC_XY                           0x0800d081   Thumb Code    32  lcd_touch.o(.text.TP_Read_ADC_XY)
    [Anonymous Symbol]                       0x0800d080   Section        0  lcd_touch.o(.text.TP_Read_ADC_XY)
    TP_Read_TwiceADC                         0x0800d0a1   Thumb Code   204  lcd_touch.o(.text.TP_Read_TwiceADC)
    [Anonymous Symbol]                       0x0800d0a0   Section        0  lcd_touch.o(.text.TP_Read_TwiceADC)
    TP_Scan                                  0x0800d16d   Thumb Code  1052  lcd_touch.o(.text.TP_Scan)
    [Anonymous Symbol]                       0x0800d16c   Section        0  lcd_touch.o(.text.TP_Scan)
    TP_ShowInfo                              0x0800d589   Thumb Code   726  lcd_touch.o(.text.TP_ShowInfo)
    [Anonymous Symbol]                       0x0800d588   Section        0  lcd_touch.o(.text.TP_ShowInfo)
    UART_DMAAbortOnError                     0x0800d861   Thumb Code    32  stm32f4xx_hal_uart.o(.text.UART_DMAAbortOnError)
    [Anonymous Symbol]                       0x0800d860   Section        0  stm32f4xx_hal_uart.o(.text.UART_DMAAbortOnError)
    UART_EndRxTransfer                       0x0800d881   Thumb Code   148  stm32f4xx_hal_uart.o(.text.UART_EndRxTransfer)
    [Anonymous Symbol]                       0x0800d880   Section        0  stm32f4xx_hal_uart.o(.text.UART_EndRxTransfer)
    UART_EndTransmit_IT                      0x0800d915   Thumb Code    38  stm32f4xx_hal_uart.o(.text.UART_EndTransmit_IT)
    [Anonymous Symbol]                       0x0800d914   Section        0  stm32f4xx_hal_uart.o(.text.UART_EndTransmit_IT)
    UART_Receive_IT                          0x0800d93d   Thumb Code   356  stm32f4xx_hal_uart.o(.text.UART_Receive_IT)
    [Anonymous Symbol]                       0x0800d93c   Section        0  stm32f4xx_hal_uart.o(.text.UART_Receive_IT)
    [Anonymous Symbol]                       0x0800daa0   Section        0  lcd_gui.o(.text.UART_SHOW)
    UART_SetConfig                           0x0800db39   Thumb Code   314  stm32f4xx_hal_uart.o(.text.UART_SetConfig)
    [Anonymous Symbol]                       0x0800db38   Section        0  stm32f4xx_hal_uart.o(.text.UART_SetConfig)
    [Anonymous Symbol]                       0x0800dc74   Section        0  stm32f4xx_hal_uart.o(.text.UART_Start_Receive_IT)
    UART_Transmit_IT                         0x0800dce5   Thumb Code   148  stm32f4xx_hal_uart.o(.text.UART_Transmit_IT)
    [Anonymous Symbol]                       0x0800dce4   Section        0  stm32f4xx_hal_uart.o(.text.UART_Transmit_IT)
    UART_WaitOnFlagUntilTimeout              0x0800dd79   Thumb Code   210  stm32f4xx_hal_uart.o(.text.UART_WaitOnFlagUntilTimeout)
    [Anonymous Symbol]                       0x0800dd78   Section        0  stm32f4xx_hal_uart.o(.text.UART_WaitOnFlagUntilTimeout)
    [Anonymous Symbol]                       0x0800de4c   Section        0  stm32f4xx_it.o(.text.USART2_IRQHandler)
    [Anonymous Symbol]                       0x0800def0   Section        0  stm32f4xx_it.o(.text.USART3_IRQHandler)
    [Anonymous Symbol]                       0x0800df94   Section        0  stm32f4xx_it.o(.text.USART6_IRQHandler)
    USBD_CDC_DataIn                          0x0800e039   Thumb Code   244  usbd_cdc.o(.text.USBD_CDC_DataIn)
    [Anonymous Symbol]                       0x0800e038   Section        0  usbd_cdc.o(.text.USBD_CDC_DataIn)
    USBD_CDC_DataOut                         0x0800e12d   Thumb Code   112  usbd_cdc.o(.text.USBD_CDC_DataOut)
    [Anonymous Symbol]                       0x0800e12c   Section        0  usbd_cdc.o(.text.USBD_CDC_DataOut)
    USBD_CDC_DeInit                          0x0800e19d   Thumb Code   236  usbd_cdc.o(.text.USBD_CDC_DeInit)
    [Anonymous Symbol]                       0x0800e19c   Section        0  usbd_cdc.o(.text.USBD_CDC_DeInit)
    USBD_CDC_EP0_RxReady                     0x0800e289   Thumb Code   120  usbd_cdc.o(.text.USBD_CDC_EP0_RxReady)
    [Anonymous Symbol]                       0x0800e288   Section        0  usbd_cdc.o(.text.USBD_CDC_EP0_RxReady)
    [Anonymous Symbol]                       0x0800e300   Section        0  usbd_cdc.o(.text.USBD_CDC_GetDeviceQualifierDescriptor)
    USBD_CDC_GetFSCfgDesc                    0x0800e319   Thumb Code   108  usbd_cdc.o(.text.USBD_CDC_GetFSCfgDesc)
    [Anonymous Symbol]                       0x0800e318   Section        0  usbd_cdc.o(.text.USBD_CDC_GetFSCfgDesc)
    USBD_CDC_GetHSCfgDesc                    0x0800e385   Thumb Code   112  usbd_cdc.o(.text.USBD_CDC_GetHSCfgDesc)
    [Anonymous Symbol]                       0x0800e384   Section        0  usbd_cdc.o(.text.USBD_CDC_GetHSCfgDesc)
    USBD_CDC_GetOtherSpeedCfgDesc            0x0800e3f5   Thumb Code   108  usbd_cdc.o(.text.USBD_CDC_GetOtherSpeedCfgDesc)
    [Anonymous Symbol]                       0x0800e3f4   Section        0  usbd_cdc.o(.text.USBD_CDC_GetOtherSpeedCfgDesc)
    USBD_CDC_Init                            0x0800e461   Thumb Code   540  usbd_cdc.o(.text.USBD_CDC_Init)
    [Anonymous Symbol]                       0x0800e460   Section        0  usbd_cdc.o(.text.USBD_CDC_Init)
    [Anonymous Symbol]                       0x0800e67c   Section        0  usbd_cdc.o(.text.USBD_CDC_ReceivePacket)
    [Anonymous Symbol]                       0x0800e6fc   Section        0  usbd_cdc.o(.text.USBD_CDC_RegisterInterface)
    [Anonymous Symbol]                       0x0800e730   Section        0  usbd_cdc.o(.text.USBD_CDC_SetRxBuffer)
    [Anonymous Symbol]                       0x0800e76c   Section        0  usbd_cdc.o(.text.USBD_CDC_SetTxBuffer)
    USBD_CDC_Setup                           0x0800e7b5   Thumb Code   460  usbd_cdc.o(.text.USBD_CDC_Setup)
    [Anonymous Symbol]                       0x0800e7b4   Section        0  usbd_cdc.o(.text.USBD_CDC_Setup)
    [Anonymous Symbol]                       0x0800e980   Section        0  usbd_cdc.o(.text.USBD_CDC_TransmitPacket)
    [Anonymous Symbol]                       0x0800ea14   Section        0  usbd_core.o(.text.USBD_ClrClassConfig)
    USBD_ClrFeature                          0x0800ea49   Thumb Code    64  usbd_ctlreq.o(.text.USBD_ClrFeature)
    [Anonymous Symbol]                       0x0800ea48   Section        0  usbd_ctlreq.o(.text.USBD_ClrFeature)
    [Anonymous Symbol]                       0x0800ea88   Section        0  usbd_core.o(.text.USBD_CoreFindEP)
    [Anonymous Symbol]                       0x0800ea98   Section        0  usbd_core.o(.text.USBD_CoreFindIF)
    [Anonymous Symbol]                       0x0800eaa8   Section        0  usbd_ioreq.o(.text.USBD_CtlContinueRx)
    [Anonymous Symbol]                       0x0800eac8   Section        0  usbd_ioreq.o(.text.USBD_CtlContinueSendData)
    [Anonymous Symbol]                       0x0800eae8   Section        0  usbd_ctlreq.o(.text.USBD_CtlError)
    [Anonymous Symbol]                       0x0800eb04   Section        0  usbd_ioreq.o(.text.USBD_CtlPrepareRx)
    [Anonymous Symbol]                       0x0800eb3c   Section        0  usbd_ioreq.o(.text.USBD_CtlReceiveStatus)
    [Anonymous Symbol]                       0x0800eb60   Section        0  usbd_ioreq.o(.text.USBD_CtlSendData)
    [Anonymous Symbol]                       0x0800eb94   Section        0  usbd_ioreq.o(.text.USBD_CtlSendStatus)
    [Anonymous Symbol]                       0x0800ebb8   Section        0  usbd_desc.o(.text.USBD_FS_ConfigStrDescriptor)
    [Anonymous Symbol]                       0x0800ec08   Section        0  usbd_desc.o(.text.USBD_FS_DeviceDescriptor)
    [Anonymous Symbol]                       0x0800ec24   Section        0  usbd_desc.o(.text.USBD_FS_InterfaceStrDescriptor)
    [Anonymous Symbol]                       0x0800ec74   Section        0  usbd_desc.o(.text.USBD_FS_LangIDStrDescriptor)
    [Anonymous Symbol]                       0x0800ec90   Section        0  usbd_desc.o(.text.USBD_FS_ManufacturerStrDescriptor)
    [Anonymous Symbol]                       0x0800ecb8   Section        0  usbd_desc.o(.text.USBD_FS_ProductStrDescriptor)
    [Anonymous Symbol]                       0x0800ed08   Section        0  usbd_desc.o(.text.USBD_FS_SerialStrDescriptor)
    [Anonymous Symbol]                       0x0800ed28   Section        0  usbd_desc.o(.text.USBD_FS_USR_BOSDescriptor)
    USBD_GetConfig                           0x0800ed45   Thumb Code   100  usbd_ctlreq.o(.text.USBD_GetConfig)
    [Anonymous Symbol]                       0x0800ed44   Section        0  usbd_ctlreq.o(.text.USBD_GetConfig)
    USBD_GetDescriptor                       0x0800eda9   Thumb Code   798  usbd_ctlreq.o(.text.USBD_GetDescriptor)
    [Anonymous Symbol]                       0x0800eda8   Section        0  usbd_ctlreq.o(.text.USBD_GetDescriptor)
    [Anonymous Symbol]                       0x0800f0c8   Section        0  usbd_core.o(.text.USBD_GetEpDesc)
    USBD_GetLen                              0x0800f141   Thumb Code    50  usbd_ctlreq.o(.text.USBD_GetLen)
    [Anonymous Symbol]                       0x0800f140   Section        0  usbd_ctlreq.o(.text.USBD_GetLen)
    [Anonymous Symbol]                       0x0800f174   Section        0  usbd_core.o(.text.USBD_GetNextDesc)
    USBD_GetStatus                           0x0800f19d   Thumb Code    98  usbd_ctlreq.o(.text.USBD_GetStatus)
    [Anonymous Symbol]                       0x0800f19c   Section        0  usbd_ctlreq.o(.text.USBD_GetStatus)
    [Anonymous Symbol]                       0x0800f200   Section        0  usbd_ctlreq.o(.text.USBD_GetString)
    [Anonymous Symbol]                       0x0800f298   Section        0  usbd_conf.o(.text.USBD_Get_USB_Status)
    [Anonymous Symbol]                       0x0800f2ec   Section        0  usbd_core.o(.text.USBD_Init)
    [Anonymous Symbol]                       0x0800f358   Section        0  usbd_conf.o(.text.USBD_LL_ClearStallEP)
    [Anonymous Symbol]                       0x0800f394   Section        0  usbd_conf.o(.text.USBD_LL_CloseEP)
    [Anonymous Symbol]                       0x0800f3d0   Section        0  usbd_core.o(.text.USBD_LL_DataInStage)
    [Anonymous Symbol]                       0x0800f564   Section        0  usbd_core.o(.text.USBD_LL_DataOutStage)
    [Anonymous Symbol]                       0x0800f718   Section        0  usbd_core.o(.text.USBD_LL_DevConnected)
    [Anonymous Symbol]                       0x0800f724   Section        0  usbd_core.o(.text.USBD_LL_DevDisconnected)
    [Anonymous Symbol]                       0x0800f764   Section        0  usbd_conf.o(.text.USBD_LL_GetRxDataSize)
    [Anonymous Symbol]                       0x0800f780   Section        0  usbd_conf.o(.text.USBD_LL_Init)
    [Anonymous Symbol]                       0x0800f800   Section        0  usbd_conf.o(.text.USBD_LL_IsStallEP)
    [Anonymous Symbol]                       0x0800f85c   Section        0  usbd_core.o(.text.USBD_LL_IsoINIncomplete)
    [Anonymous Symbol]                       0x0800f8cc   Section        0  usbd_core.o(.text.USBD_LL_IsoOUTIncomplete)
    [Anonymous Symbol]                       0x0800f93c   Section        0  usbd_conf.o(.text.USBD_LL_OpenEP)
    [Anonymous Symbol]                       0x0800f988   Section        0  usbd_conf.o(.text.USBD_LL_PrepareReceive)
    [Anonymous Symbol]                       0x0800f9cc   Section        0  usbd_core.o(.text.USBD_LL_Reset)
    [Anonymous Symbol]                       0x0800fa68   Section        0  usbd_core.o(.text.USBD_LL_Resume)
    [Anonymous Symbol]                       0x0800fa8c   Section        0  usbd_core.o(.text.USBD_LL_SOF)
    [Anonymous Symbol]                       0x0800facc   Section        0  usbd_core.o(.text.USBD_LL_SetSpeed)
    [Anonymous Symbol]                       0x0800fae4   Section        0  usbd_conf.o(.text.USBD_LL_SetUSBAddress)
    [Anonymous Symbol]                       0x0800fb20   Section        0  usbd_core.o(.text.USBD_LL_SetupStage)
    [Anonymous Symbol]                       0x0800fbb4   Section        0  usbd_conf.o(.text.USBD_LL_StallEP)
    [Anonymous Symbol]                       0x0800fbf0   Section        0  usbd_conf.o(.text.USBD_LL_Start)
    [Anonymous Symbol]                       0x0800fc24   Section        0  usbd_core.o(.text.USBD_LL_Suspend)
    [Anonymous Symbol]                       0x0800fc44   Section        0  usbd_conf.o(.text.USBD_LL_Transmit)
    [Anonymous Symbol]                       0x0800fc88   Section        0  usbd_ctlreq.o(.text.USBD_ParseSetupRequest)
    [Anonymous Symbol]                       0x0800fcec   Section        0  usbd_core.o(.text.USBD_RegisterClass)
    [Anonymous Symbol]                       0x0800fd60   Section        0  usbd_core.o(.text.USBD_RunTestMode)
    USBD_SetAddress                          0x0800fd6d   Thumb Code   140  usbd_ctlreq.o(.text.USBD_SetAddress)
    [Anonymous Symbol]                       0x0800fd6c   Section        0  usbd_ctlreq.o(.text.USBD_SetAddress)
    [Anonymous Symbol]                       0x0800fdf8   Section        0  usbd_core.o(.text.USBD_SetClassConfig)
    USBD_SetConfig                           0x0800fe31   Thumb Code   382  usbd_ctlreq.o(.text.USBD_SetConfig)
    [Anonymous Symbol]                       0x0800fe30   Section        0  usbd_ctlreq.o(.text.USBD_SetConfig)
    USBD_SetFeature                          0x0800ffb1   Thumb Code    78  usbd_ctlreq.o(.text.USBD_SetFeature)
    [Anonymous Symbol]                       0x0800ffb0   Section        0  usbd_ctlreq.o(.text.USBD_SetFeature)
    [Anonymous Symbol]                       0x08010000   Section        0  usbd_core.o(.text.USBD_Start)
    [Anonymous Symbol]                       0x08010010   Section        0  usbd_ctlreq.o(.text.USBD_StdDevReq)
    [Anonymous Symbol]                       0x080100dc   Section        0  usbd_ctlreq.o(.text.USBD_StdEPReq)
    [Anonymous Symbol]                       0x08010488   Section        0  usbd_ctlreq.o(.text.USBD_StdItfReq)
    [Anonymous Symbol]                       0x0801057c   Section        0  usbd_conf.o(.text.USBD_static_free)
    [Anonymous Symbol]                       0x08010584   Section        0  usbd_conf.o(.text.USBD_static_malloc)
    [Anonymous Symbol]                       0x08010594   Section        0  stm32f4xx_ll_usb.o(.text.USB_ActivateEndpoint)
    [Anonymous Symbol]                       0x08010674   Section        0  stm32f4xx_ll_usb.o(.text.USB_ActivateSetup)
    [Anonymous Symbol]                       0x080106a0   Section        0  stm32f4xx_ll_usb.o(.text.USB_CoreInit)
    USB_CoreReset                            0x0801079d   Thumb Code   130  stm32f4xx_ll_usb.o(.text.USB_CoreReset)
    [Anonymous Symbol]                       0x0801079c   Section        0  stm32f4xx_ll_usb.o(.text.USB_CoreReset)
    [Anonymous Symbol]                       0x08010820   Section        0  stm32f4xx_ll_usb.o(.text.USB_DeactivateEndpoint)
    [Anonymous Symbol]                       0x08010958   Section        0  stm32f4xx_ll_usb.o(.text.USB_DevConnect)
    [Anonymous Symbol]                       0x08010984   Section        0  stm32f4xx_ll_usb.o(.text.USB_DevDisconnect)
    [Anonymous Symbol]                       0x080109b0   Section        0  stm32f4xx_ll_usb.o(.text.USB_DevInit)
    [Anonymous Symbol]                       0x08010c68   Section        0  stm32f4xx_ll_usb.o(.text.USB_DisableGlobalInt)
    [Anonymous Symbol]                       0x08010c7c   Section        0  stm32f4xx_ll_usb.o(.text.USB_EP0StartXfer)
    [Anonymous Symbol]                       0x08010e74   Section        0  stm32f4xx_ll_usb.o(.text.USB_EP0_OutStart)
    [Anonymous Symbol]                       0x08010f14   Section        0  stm32f4xx_ll_usb.o(.text.USB_EPClearStall)
    [Anonymous Symbol]                       0x08010fb4   Section        0  stm32f4xx_ll_usb.o(.text.USB_EPSetStall)
    [Anonymous Symbol]                       0x0801105c   Section        0  stm32f4xx_ll_usb.o(.text.USB_EPStartXfer)
    [Anonymous Symbol]                       0x080113c4   Section        0  stm32f4xx_ll_usb.o(.text.USB_EPStopXfer)
    [Anonymous Symbol]                       0x080114e0   Section        0  stm32f4xx_ll_usb.o(.text.USB_EnableGlobalInt)
    [Anonymous Symbol]                       0x080114f4   Section        0  stm32f4xx_ll_usb.o(.text.USB_FlushRxFifo)
    [Anonymous Symbol]                       0x08011574   Section        0  stm32f4xx_ll_usb.o(.text.USB_FlushTxFifo)
    [Anonymous Symbol]                       0x080115fc   Section        0  stm32f4xx_ll_usb.o(.text.USB_GetDevSpeed)
    [Anonymous Symbol]                       0x08011648   Section        0  stm32f4xx_ll_usb.o(.text.USB_GetMode)
    [Anonymous Symbol]                       0x08011658   Section        0  stm32f4xx_ll_usb.o(.text.USB_ReadDevAllInEpInterrupt)
    [Anonymous Symbol]                       0x0801167c   Section        0  stm32f4xx_ll_usb.o(.text.USB_ReadDevAllOutEpInterrupt)
    [Anonymous Symbol]                       0x080116a0   Section        0  stm32f4xx_ll_usb.o(.text.USB_ReadDevInEPInterrupt)
    [Anonymous Symbol]                       0x080116f0   Section        0  stm32f4xx_ll_usb.o(.text.USB_ReadDevOutEPInterrupt)
    [Anonymous Symbol]                       0x08011720   Section        0  stm32f4xx_ll_usb.o(.text.USB_ReadInterrupts)
    [Anonymous Symbol]                       0x0801173c   Section        0  stm32f4xx_ll_usb.o(.text.USB_ReadPacket)
    [Anonymous Symbol]                       0x080117f0   Section        0  stm32f4xx_ll_usb.o(.text.USB_SetCurrentMode)
    [Anonymous Symbol]                       0x080118d0   Section        0  stm32f4xx_ll_usb.o(.text.USB_SetDevAddress)
    [Anonymous Symbol]                       0x08011908   Section        0  stm32f4xx_ll_usb.o(.text.USB_SetDevSpeed)
    [Anonymous Symbol]                       0x0801192c   Section        0  stm32f4xx_ll_usb.o(.text.USB_SetTurnaroundTime)
    [Anonymous Symbol]                       0x08011ae8   Section        0  stm32f4xx_ll_usb.o(.text.USB_WritePacket)
    UnlockRecord                             0x08011b6d   Thumb Code    50  eventrecorder.o(.text.UnlockRecord)
    [Anonymous Symbol]                       0x08011b6c   Section        0  eventrecorder.o(.text.UnlockRecord)
    UnlockTS_Overflow                        0x08011ba1   Thumb Code    18  eventrecorder.o(.text.UnlockTS_Overflow)
    [Anonymous Symbol]                       0x08011ba0   Section        0  eventrecorder.o(.text.UnlockTS_Overflow)
    UpdateTS                                 0x08011bb5   Thumb Code    26  eventrecorder.o(.text.UpdateTS)
    [Anonymous Symbol]                       0x08011bb4   Section        0  eventrecorder.o(.text.UpdateTS)
    [Anonymous Symbol]                       0x08011bd0   Section        0  stm32f4xx_it.o(.text.UsageFault_Handler)
    __NVIC_DisableIRQ                        0x08011bd5   Thumb Code    56  stm32f4xx_hal_cortex.o(.text.__NVIC_DisableIRQ)
    [Anonymous Symbol]                       0x08011bd4   Section        0  stm32f4xx_hal_cortex.o(.text.__NVIC_DisableIRQ)
    __NVIC_EnableIRQ                         0x08011c0d   Thumb Code    48  stm32f4xx_hal_cortex.o(.text.__NVIC_EnableIRQ)
    [Anonymous Symbol]                       0x08011c0c   Section        0  stm32f4xx_hal_cortex.o(.text.__NVIC_EnableIRQ)
    __NVIC_GetPriorityGrouping               0x08011c3d   Thumb Code    16  stm32f4xx_hal_cortex.o(.text.__NVIC_GetPriorityGrouping)
    [Anonymous Symbol]                       0x08011c3c   Section        0  stm32f4xx_hal_cortex.o(.text.__NVIC_GetPriorityGrouping)
    __NVIC_SetPriority                       0x08011c4d   Thumb Code    66  stm32f4xx_hal_cortex.o(.text.__NVIC_SetPriority)
    [Anonymous Symbol]                       0x08011c4c   Section        0  stm32f4xx_hal_cortex.o(.text.__NVIC_SetPriority)
    __NVIC_SetPriorityGrouping               0x08011c91   Thumb Code    60  stm32f4xx_hal_cortex.o(.text.__NVIC_SetPriorityGrouping)
    [Anonymous Symbol]                       0x08011c90   Section        0  stm32f4xx_hal_cortex.o(.text.__NVIC_SetPriorityGrouping)
    [Anonymous Symbol]                       0x08011ccc   Section        0  retarget_io.o(.text._sys_close)
    [Anonymous Symbol]                       0x08011d18   Section        0  retarget_io.o(.text._sys_flen)
    [Anonymous Symbol]                       0x08011d60   Section        0  retarget_io.o(.text._sys_istty)
    [Anonymous Symbol]                       0x08011da8   Section        0  retarget_io.o(.text._sys_open)
    [Anonymous Symbol]                       0x08011e2c   Section        0  retarget_io.o(.text._sys_seek)
    [Anonymous Symbol]                       0x08011e80   Section        0  retarget_io.o(.text._sys_write)
    atomic_inc32                             0x08011ef9   Thumb Code    32  eventrecorder.o(.text.atomic_inc32)
    [Anonymous Symbol]                       0x08011ef8   Section        0  eventrecorder.o(.text.atomic_inc32)
    atomic_inc8                              0x08011f19   Thumb Code    36  eventrecorder.o(.text.atomic_inc8)
    [Anonymous Symbol]                       0x08011f18   Section        0  eventrecorder.o(.text.atomic_inc8)
    atomic_wr32                              0x08011f3d   Thumb Code    32  eventrecorder.o(.text.atomic_wr32)
    [Anonymous Symbol]                       0x08011f3c   Section        0  eventrecorder.o(.text.atomic_wr32)
    atomic_wr8                               0x08011f5d   Thumb Code    40  eventrecorder.o(.text.atomic_wr8)
    [Anonymous Symbol]                       0x08011f5c   Section        0  eventrecorder.o(.text.atomic_wr8)
    [Anonymous Symbol]                       0x08011f84   Section        0  stm32f4xx_it.o(.text.clear_UART_Buffer)
    crc16_ccitt                              0x0801204d   Thumb Code   130  eventrecorder.o(.text.crc16_ccitt)
    [Anonymous Symbol]                       0x0801204c   Section        0  eventrecorder.o(.text.crc16_ccitt)
    [Anonymous Symbol]                       0x080120d0   Section        0  main.o(.text.main)
    stdout_putchar                           0x0801242d   Thumb Code   124  retarget_io.o(.text.stdout_putchar)
    [Anonymous Symbol]                       0x0801242c   Section        0  retarget_io.o(.text.stdout_putchar)
    [Anonymous Symbol]                       0x080124a8   Section        0  lcd_gui.o(.text.string_show)
    CL$$btod_d2e                             0x080124d0   Section       62  btod.o(CL$$btod_d2e)
    CL$$btod_d2e_denorm_low                  0x0801250e   Section       70  btod.o(CL$$btod_d2e_denorm_low)
    CL$$btod_d2e_norm_op1                    0x08012554   Section       96  btod.o(CL$$btod_d2e_norm_op1)
    CL$$btod_div_common                      0x080125b4   Section      824  btod.o(CL$$btod_div_common)
    CL$$btod_e2e                             0x080128ec   Section      220  btod.o(CL$$btod_e2e)
    CL$$btod_ediv                            0x080129c8   Section       42  btod.o(CL$$btod_ediv)
    CL$$btod_emul                            0x080129f2   Section       42  btod.o(CL$$btod_emul)
    CL$$btod_mult_common                     0x08012a1c   Section      580  btod.o(CL$$btod_mult_common)
    i.__ARM_fpclassify                       0x08012c60   Section        0  fpclassify.o(i.__ARM_fpclassify)
    i.__hardfp_sqrt                          0x08012c90   Section        0  sqrt.o(i.__hardfp_sqrt)
    i._is_digit                              0x08012d0a   Section        0  __printf_wp.o(i._is_digit)
    i.fputc                                  0x08012d18   Section        0  fputc.o(i.fputc)
    locale$$code                             0x08012d34   Section       44  lc_numeric_c.o(locale$$code)
    locale$$code                             0x08012d60   Section       44  lc_ctype_c.o(locale$$code)
    $v0                                      0x08012d8c   Number         0  daddsub_clz.o(x$fpl$dadd)
    x$fpl$dadd                               0x08012d8c   Section      336  daddsub_clz.o(x$fpl$dadd)
    _dadd1                                   0x08012d9d   Thumb Code     0  daddsub_clz.o(x$fpl$dadd)
    $v0                                      0x08012edc   Number         0  dcmpi.o(x$fpl$dcmpinf)
    x$fpl$dcmpinf                            0x08012edc   Section       24  dcmpi.o(x$fpl$dcmpinf)
    $v0                                      0x08012ef4   Number         0  deqf.o(x$fpl$deqf)
    x$fpl$deqf                               0x08012ef4   Section      120  deqf.o(x$fpl$deqf)
    $v0                                      0x08012f6c   Number         0  dfix.o(x$fpl$dfix)
    x$fpl$dfix                               0x08012f6c   Section       94  dfix.o(x$fpl$dfix)
    $v0                                      0x08012fca   Number         0  dflt_clz.o(x$fpl$dflt)
    x$fpl$dflt                               0x08012fca   Section       46  dflt_clz.o(x$fpl$dflt)
    $v0                                      0x08012ff8   Number         0  dflt_clz.o(x$fpl$dfltu)
    x$fpl$dfltu                              0x08012ff8   Section       38  dflt_clz.o(x$fpl$dfltu)
    $v0                                      0x08013020   Number         0  dgeqf.o(x$fpl$dgeqf)
    x$fpl$dgeqf                              0x08013020   Section      120  dgeqf.o(x$fpl$dgeqf)
    $v0                                      0x08013098   Number         0  dleqf.o(x$fpl$dleqf)
    x$fpl$dleqf                              0x08013098   Section      120  dleqf.o(x$fpl$dleqf)
    $v0                                      0x08013110   Number         0  dmul.o(x$fpl$dmul)
    x$fpl$dmul                               0x08013110   Section      340  dmul.o(x$fpl$dmul)
    $v0                                      0x08013264   Number         0  dnaninf.o(x$fpl$dnaninf)
    x$fpl$dnaninf                            0x08013264   Section      156  dnaninf.o(x$fpl$dnaninf)
    $v0                                      0x08013300   Number         0  dretinf.o(x$fpl$dretinf)
    x$fpl$dretinf                            0x08013300   Section       12  dretinf.o(x$fpl$dretinf)
    $v0                                      0x0801330c   Number         0  dsqrt_umaal.o(x$fpl$dsqrt)
    x$fpl$dsqrt                              0x0801330c   Section      408  dsqrt_umaal.o(x$fpl$dsqrt)
    $v0                                      0x080134a4   Number         0  daddsub_clz.o(x$fpl$dsub)
    x$fpl$dsub                               0x080134a4   Section      476  daddsub_clz.o(x$fpl$dsub)
    _dsub1                                   0x080134b5   Thumb Code     0  daddsub_clz.o(x$fpl$dsub)
    $v0                                      0x08013680   Number         0  f2d.o(x$fpl$f2d)
    x$fpl$f2d                                0x08013680   Section       86  f2d.o(x$fpl$f2d)
    $v0                                      0x080136d6   Number         0  dcmp.o(x$fpl$fcmp)
    x$fpl$fcmp                               0x080136d6   Section       84  dcmp.o(x$fpl$fcmp)
    $v0                                      0x0801372a   Number         0  fnaninf.o(x$fpl$fnaninf)
    x$fpl$fnaninf                            0x0801372a   Section      140  fnaninf.o(x$fpl$fnaninf)
    $v0                                      0x080137b6   Number         0  fpinit.o(x$fpl$fpinit)
    x$fpl$fpinit                             0x080137b6   Section       26  fpinit.o(x$fpl$fpinit)
    $v0                                      0x080137d0   Number         0  printf1.o(x$fpl$printf1)
    x$fpl$printf1                            0x080137d0   Section        4  printf1.o(x$fpl$printf1)
    $v0                                      0x080137d4   Number         0  printf2.o(x$fpl$printf2)
    x$fpl$printf2                            0x080137d4   Section        4  printf2.o(x$fpl$printf2)
    initial_mbstate                          0x080137d8   Data           8  _printf_wctomb.o(.constdata)
    .constdata                               0x080137d8   Section        8  _printf_wctomb.o(.constdata)
    x$fpl$usenofp                            0x080137d8   Section        0  usenofp.o(x$fpl$usenofp)
    uc_hextab                                0x080137e0   Data          20  _printf_hex_int_ll_ptr.o(.constdata)
    .constdata                               0x080137e0   Section       40  _printf_hex_int_ll_ptr.o(.constdata)
    lc_hextab                                0x080137f4   Data          20  _printf_hex_int_ll_ptr.o(.constdata)
    maptable                                 0x08013808   Data          17  __printf_flags_ss_wp.o(.constdata)
    .constdata                               0x08013808   Section       17  __printf_flags_ss_wp.o(.constdata)
    lc_hextab                                0x08013819   Data          19  _printf_fp_hex.o(.constdata)
    .constdata                               0x08013819   Section       38  _printf_fp_hex.o(.constdata)
    uc_hextab                                0x0801382c   Data          19  _printf_fp_hex.o(.constdata)
    tenpwrs_x                                0x08013840   Data          60  bigflt0.o(.constdata)
    .constdata                               0x08013840   Section      148  bigflt0.o(.constdata)
    tenpwrs_i                                0x0801387c   Data          64  bigflt0.o(.constdata)
    DMA_CalcBaseAndBitshift.flagBitshiftOffset 0x080138ec   Data           8  stm32f4xx_hal_dma.o(.rodata.DMA_CalcBaseAndBitshift.flagBitshiftOffset)
    [Anonymous Symbol]                       0x080138ec   Section        0  stm32f4xx_hal_dma.o(.rodata.DMA_CalcBaseAndBitshift.flagBitshiftOffset)
    __tagsym$$used.0                         0x080138f4   Number         0  eventrecorder.o(.rodata.EventRecorderInfo)
    .L.str.2                                 0x080175ff   Data          31  main.o(.rodata.str1.1)
    [Anonymous Symbol]                       0x080175ff   Section        0  main.o(.rodata.str1.1)
    .L.str                                   0x0801761e   Data          14  main.o(.rodata.str1.1)
    .L.str.1                                 0x0801762c   Data          19  main.o(.rodata.str1.1)
    .L.str.3                                 0x0801763f   Data          11  main.o(.rodata.str1.1)
    .L.str.4                                 0x0801764a   Data          33  main.o(.rodata.str1.1)
    .L.str.5                                 0x0801766b   Data           8  main.o(.rodata.str1.1)
    .L.str                                   0x08017673   Data          33  stm32f4xx_it.o(.rodata.str1.1)
    [Anonymous Symbol]                       0x08017673   Section        0  stm32f4xx_it.o(.rodata.str1.1)
    .L.str.3                                 0x08017694   Data          14  usbd_desc.o(.rodata.str1.1)
    [Anonymous Symbol]                       0x08017694   Section        0  usbd_desc.o(.rodata.str1.1)
    .L.str.2                                 0x080176a2   Data          11  usbd_desc.o(.rodata.str1.1)
    .L.str.1                                 0x080176ad   Data          19  usbd_desc.o(.rodata.str1.1)
    .L.str                                   0x080176c0   Data          22  usbd_desc.o(.rodata.str1.1)
    .L.str.10                                0x080176d6   Data          28  lcd_gui.o(.rodata.str1.1)
    [Anonymous Symbol]                       0x080176d6   Section        0  lcd_gui.o(.rodata.str1.1)
    .L.str.9                                 0x080176f2   Data          30  lcd_gui.o(.rodata.str1.1)
    .L.str.2                                 0x08017710   Data          49  lcd_gui.o(.rodata.str1.1)
    .L.str.5                                 0x08017741   Data          66  lcd_gui.o(.rodata.str1.1)
    .L.str.3                                 0x08017783   Data          64  lcd_gui.o(.rodata.str1.1)
    .L.str.1                                 0x080177c3   Data          62  lcd_gui.o(.rodata.str1.1)
    .L.str.6                                 0x08017801   Data          60  lcd_gui.o(.rodata.str1.1)
    .L.str.4                                 0x0801783d   Data          61  lcd_gui.o(.rodata.str1.1)
    .L.str                                   0x0801787a   Data          63  lcd_gui.o(.rodata.str1.1)
    .L.str.7                                 0x0801787f   Data          32  lcd_gui.o(.rodata.str1.1)
    .L.str.8                                 0x0801789f   Data          78  lcd_gui.o(.rodata.str1.1)
    .L.str.12                                0x080178b9   Data          25  lcd_gui.o(.rodata.str1.1)
    .L.str.11                                0x080178d2   Data          20  lcd_gui.o(.rodata.str1.1)
    .L.str.15                                0x080178e6   Data          25  lcd_gui.o(.rodata.str1.1)
    .L.str.18                                0x080178ff   Data          26  lcd_gui.o(.rodata.str1.1)
    .L.str.14                                0x08017919   Data          33  lcd_gui.o(.rodata.str1.1)
    .L.str.13                                0x0801793a   Data          29  lcd_gui.o(.rodata.str1.1)
    .L.str.21                                0x08017957   Data           8  lcd_gui.o(.rodata.str1.1)
    .L.str.20                                0x0801795f   Data          13  lcd_gui.o(.rodata.str1.1)
    .L.str.17                                0x0801796c   Data          15  lcd_gui.o(.rodata.str1.1)
    .L.str.19                                0x0801797b   Data          17  lcd_gui.o(.rodata.str1.1)
    .L.str.16                                0x0801798c   Data          21  lcd_gui.o(.rodata.str1.1)
    .L.str.13                                0x080179a1   Data          30  lcd_touch.o(.rodata.str1.1)
    [Anonymous Symbol]                       0x080179a1   Section        0  lcd_touch.o(.rodata.str1.1)
    .L.str.14                                0x080179bf   Data          30  lcd_touch.o(.rodata.str1.1)
    .L.str.11                                0x080179dd   Data          30  lcd_touch.o(.rodata.str1.1)
    .L.str.12                                0x080179fb   Data          30  lcd_touch.o(.rodata.str1.1)
    .L.str.4                                 0x08017a19   Data          30  lcd_touch.o(.rodata.str1.1)
    .L.str.5                                 0x08017a37   Data          30  lcd_touch.o(.rodata.str1.1)
    .L.str.19                                0x08017a55   Data          21  lcd_touch.o(.rodata.str1.1)
    .L.str.8                                 0x08017a6a   Data          18  lcd_touch.o(.rodata.str1.1)
    .L.str.15                                0x08017a7c   Data          20  lcd_touch.o(.rodata.str1.1)
    .L.str.9                                 0x08017a90   Data          18  lcd_touch.o(.rodata.str1.1)
    .L.str.10                                0x08017aa2   Data          18  lcd_touch.o(.rodata.str1.1)
    .L.str.7                                 0x08017ab4   Data          18  lcd_touch.o(.rodata.str1.1)
    .L.str.1                                 0x08017ac6   Data          34  lcd_touch.o(.rodata.str1.1)
    .L.str.2                                 0x08017ae8   Data          34  lcd_touch.o(.rodata.str1.1)
    .L.str.3                                 0x08017b0a   Data          34  lcd_touch.o(.rodata.str1.1)
    .L.str.22                                0x08017b2c   Data          24  lcd_touch.o(.rodata.str1.1)
    .L.str.6                                 0x08017b44   Data          36  lcd_touch.o(.rodata.str1.1)
    .L.str.31                                0x08017b68   Data          10  lcd_touch.o(.rodata.str1.1)
    .L.str.16                                0x08017b72   Data          24  lcd_touch.o(.rodata.str1.1)
    .L.str.17                                0x08017b8a   Data          18  lcd_touch.o(.rodata.str1.1)
    .L.str                                   0x08017b9c   Data         120  lcd_touch.o(.rodata.str1.1)
    .L.str.23                                0x08017c14   Data           3  lcd_touch.o(.rodata.str1.1)
    .L.str.24                                0x08017c17   Data           3  lcd_touch.o(.rodata.str1.1)
    .L.str.25                                0x08017c1a   Data           3  lcd_touch.o(.rodata.str1.1)
    .L.str.26                                0x08017c1d   Data           3  lcd_touch.o(.rodata.str1.1)
    .L.str.27                                0x08017c20   Data           3  lcd_touch.o(.rodata.str1.1)
    .L.str.28                                0x08017c23   Data           3  lcd_touch.o(.rodata.str1.1)
    .L.str.29                                0x08017c26   Data           3  lcd_touch.o(.rodata.str1.1)
    .L.str.30                                0x08017c29   Data           3  lcd_touch.o(.rodata.str1.1)
    .L.str.21                                0x08017c2c   Data           3  lcd_touch.o(.rodata.str1.1)
    .L.str.20                                0x08017c2f   Data           6  lcd_touch.o(.rodata.str1.1)
    .L.str.18                                0x08017c35   Data          66  lcd_touch.o(.rodata.str1.1)
    .L.str                                   0x08017c77   Data           7  retarget_io.o(.rodata.str1.1)
    [Anonymous Symbol]                       0x08017c77   Section        0  retarget_io.o(.rodata.str1.1)
    .L.str.2                                 0x08017c7e   Data           8  retarget_io.o(.rodata.str1.1)
    .L.str.1                                 0x08017c86   Data           8  retarget_io.o(.rodata.str1.1)
    locale$$data                             0x08017cb0   Section       28  lc_numeric_c.o(locale$$data)
    __lcnum_c_name                           0x08017cb4   Data           2  lc_numeric_c.o(locale$$data)
    __lcnum_c_start                          0x08017cbc   Data           0  lc_numeric_c.o(locale$$data)
    __lcnum_c_point                          0x08017cc8   Data           0  lc_numeric_c.o(locale$$data)
    __lcnum_c_thousands                      0x08017cca   Data           0  lc_numeric_c.o(locale$$data)
    __lcnum_c_grouping                       0x08017ccb   Data           0  lc_numeric_c.o(locale$$data)
    __lcnum_c_end                            0x08017ccc   Data           0  lc_numeric_c.o(locale$$data)
    locale$$data                             0x08017ccc   Section      272  lc_ctype_c.o(locale$$data)
    __lcctype_c_name                         0x08017cd0   Data           2  lc_ctype_c.o(locale$$data)
    __lcctype_c_start                        0x08017cd8   Data           0  lc_ctype_c.o(locale$$data)
    __lcctype_c_end                          0x08017ddc   Data           0  lc_ctype_c.o(locale$$data)
    .data                                    0x20000000   Section        4  stdio_streams.o(.data)
    .data                                    0x20000004   Section        4  stdio_streams.o(.data)
    .data                                    0x20000008   Section        4  stdio_streams.o(.data)
    CDCCmdEpAdd                              0x2000000c   Data           1  usbd_cdc.o(.data.CDCCmdEpAdd)
    [Anonymous Symbol]                       0x2000000c   Section        0  usbd_cdc.o(.data.CDCCmdEpAdd)
    CDCInEpAdd                               0x2000000d   Data           1  usbd_cdc.o(.data.CDCInEpAdd)
    [Anonymous Symbol]                       0x2000000d   Section        0  usbd_cdc.o(.data.CDCInEpAdd)
    CDCOutEpAdd                              0x2000000e   Data           1  usbd_cdc.o(.data.CDCOutEpAdd)
    [Anonymous Symbol]                       0x2000000e   Section        0  usbd_cdc.o(.data.CDCOutEpAdd)
    USBD_CDC_CfgDesc                         0x20000094   Data          67  usbd_cdc.o(.data.USBD_CDC_CfgDesc)
    [Anonymous Symbol]                       0x20000094   Section        0  usbd_cdc.o(.data.USBD_CDC_CfgDesc)
    USBD_CDC_DeviceQualifierDesc             0x200000d8   Data          10  usbd_cdc.o(.data.USBD_CDC_DeviceQualifierDesc)
    [Anonymous Symbol]                       0x200000d8   Section        0  usbd_cdc.o(.data.USBD_CDC_DeviceQualifierDesc)
    .bss                                     0x20000140   Section      228  rand.o(.bss)
    .bss                                     0x20000224   Section       84  stdio_streams.o(.bss)
    .bss                                     0x20000278   Section       84  stdio_streams.o(.bss)
    .bss                                     0x200002cc   Section       84  stdio_streams.o(.bss)
    .bss                                     0x20000320   Section       96  libspace.o(.bss)
    TP_Scan.X_old_point                      0x20000480   Data           2  lcd_touch.o(.bss.TP_Scan.X_old_point)
    [Anonymous Symbol]                       0x20000480   Section        0  lcd_touch.o(.bss.TP_Scan.X_old_point)
    TP_Scan.Y_old_point                      0x20000482   Data           2  lcd_touch.o(.bss.TP_Scan.Y_old_point)
    [Anonymous Symbol]                       0x20000482   Section        0  lcd_touch.o(.bss.TP_Scan.Y_old_point)
    TS_OverflowLock                          0x20000484   Data           1  eventrecorder.o(.bss.TS_OverflowLock)
    [Anonymous Symbol]                       0x20000484   Section        0  eventrecorder.o(.bss.TS_OverflowLock)
    USBD_SetConfig.cfgidx                    0x20000794   Data           1  usbd_ctlreq.o(.bss.USBD_SetConfig.cfgidx)
    [Anonymous Symbol]                       0x20000794   Section        0  usbd_ctlreq.o(.bss.USBD_SetConfig.cfgidx)
    USBD_static_malloc.mem                   0x20000898   Data         544  usbd_conf.o(.bss.USBD_static_malloc.mem)
    [Anonymous Symbol]                       0x20000898   Section        0  usbd_conf.o(.bss.USBD_static_malloc.mem)
    EventBuffer                              0x20002740   Data        1024  eventrecorder.o(.bss.noinit)
    [Anonymous Symbol]                       0x20002740   Section        0  eventrecorder.o(.bss.noinit)
    EventFilter                              0x20002b40   Data         128  eventrecorder.o(.bss.noinit)
    EventStatus                              0x20002bc0   Data          36  eventrecorder.o(.bss.noinit)
    sTP_DEV                                  0x20002bf0   Data          28  lcd_touch.o(.bss.sTP_DEV)
    [Anonymous Symbol]                       0x20002bf0   Section        0  lcd_touch.o(.bss.sTP_DEV)
    sTP_Draw                                 0x20002c0c   Data           8  lcd_touch.o(.bss.sTP_Draw)
    [Anonymous Symbol]                       0x20002c0c   Section        0  lcd_touch.o(.bss.sTP_Draw)
    stdout_putchar.buffer                    0x20002c15   Data           8  retarget_io.o(.bss.stdout_putchar.buffer)
    [Anonymous Symbol]                       0x20002c15   Section        0  retarget_io.o(.bss.stdout_putchar.buffer)
    stdout_putchar.index                     0x20002c20   Data           4  retarget_io.o(.bss.stdout_putchar.index)
    [Anonymous Symbol]                       0x20002c20   Section        0  retarget_io.o(.bss.stdout_putchar.index)
    Heap_Mem                                 0x20002c68   Data         512  startup_stm32f469xx.o(HEAP)
    HEAP                                     0x20002c68   Section      512  startup_stm32f469xx.o(HEAP)
    Stack_Mem                                0x20002e68   Data        2048  startup_stm32f469xx.o(STACK)
    STACK                                    0x20002e68   Section     2048  startup_stm32f469xx.o(STACK)
    __initial_sp                             0x20003668   Data           0  startup_stm32f469xx.o(STACK)

    Global Symbols

    Symbol Name                              Value     Ov Type        Size  Object(Section)

    BuildAttributes$$THM_ISAv4$E$P$D$K$B$S$7EM$VFPi3$EXTD16$VFPS$VFMA$PE$A:L22UL41UL21$X:L11$S22US41US21$IEEE1$IW$~IW$USESV6$~STKCKD$USESV7$~SHL$OTIME$ROPI$IEEEJ$EBA8$UX$STANDARDLIB$REQ8$PRES8$EABIv2 0x00000000   Number         0  anon$$obj.o ABSOLUTE
    _printf_flags                            0x00000000   Number         0  printf_stubs.o ABSOLUTE
    _printf_return_value                     0x00000000   Number         0  printf_stubs.o ABSOLUTE
    _printf_sizespec                         0x00000000   Number         0  printf_stubs.o ABSOLUTE
    _printf_widthprec                        0x00000000   Number         0  printf_stubs.o ABSOLUTE
    __ARM_exceptions_init                     - Undefined Weak Reference
    __alloca_initialize                       - Undefined Weak Reference
    __arm_preinit_                            - Undefined Weak Reference
    __arm_relocate_pie_                       - Undefined Weak Reference
    __cpp_initialize__aeabi_                  - Undefined Weak Reference
    __cxa_finalize                            - Undefined Weak Reference
    __decompress                              - Undefined Weak Reference
    __sigvec_lookup                           - Undefined Weak Reference
    __user_heap_extent                        - Undefined Weak Reference
    _atexit_init                              - Undefined Weak Reference
    _call_atexit_fns                          - Undefined Weak Reference
    _clock_init                               - Undefined Weak Reference
    _fp_trap_init                             - Undefined Weak Reference
    _fp_trap_shutdown                         - Undefined Weak Reference
    _get_lc_collate                           - Undefined Weak Reference
    _get_lc_monetary                          - Undefined Weak Reference
    _get_lc_time                              - Undefined Weak Reference
    _getenv_init                              - Undefined Weak Reference
    _handle_redirection                       - Undefined Weak Reference
    _mutex_acquire                            - Undefined Weak Reference
    _mutex_free                               - Undefined Weak Reference
    _mutex_release                            - Undefined Weak Reference
    _printf_mbtowc                            - Undefined Weak Reference
    _printf_wc                                - Undefined Weak Reference
    _signal_finish                            - Undefined Weak Reference
    _signal_init                              - Undefined Weak Reference
    __Vectors_Size                           0x000001b4   Number         0  startup_stm32f469xx.o ABSOLUTE
    __Vectors                                0x08000000   Data           4  startup_stm32f469xx.o(RESET)
    __Vectors_End                            0x080001b4   Data           0  startup_stm32f469xx.o(RESET)
    __main                                   0x080001b5   Thumb Code     8  __main.o(!!!main)
    __scatterload                            0x080001bd   Thumb Code     0  __scatter.o(!!!scatter)
    __scatterload_rt2                        0x080001bd   Thumb Code    44  __scatter.o(!!!scatter)
    __scatterload_rt2_thumb_only             0x080001bd   Thumb Code     0  __scatter.o(!!!scatter)
    __scatterload_null                       0x080001cb   Thumb Code     0  __scatter.o(!!!scatter)
    __scatterload_copy                       0x080001f1   Thumb Code    26  __scatter_copy.o(!!handler_copy)
    __scatterload_zeroinit                   0x0800020d   Thumb Code    28  __scatter_zi.o(!!handler_zi)
    _printf_n                                0x08000229   Thumb Code     0  _printf_n.o(.ARM.Collect$$_printf_percent$$00000001)
    _printf_percent                          0x08000229   Thumb Code     0  _printf_percent.o(.ARM.Collect$$_printf_percent$$00000000)
    _printf_p                                0x0800022f   Thumb Code     0  _printf_p.o(.ARM.Collect$$_printf_percent$$00000002)
    _printf_f                                0x08000235   Thumb Code     0  _printf_f.o(.ARM.Collect$$_printf_percent$$00000003)
    _printf_e                                0x0800023b   Thumb Code     0  _printf_e.o(.ARM.Collect$$_printf_percent$$00000004)
    _printf_g                                0x08000241   Thumb Code     0  _printf_g.o(.ARM.Collect$$_printf_percent$$00000005)
    _printf_a                                0x08000247   Thumb Code     0  _printf_a.o(.ARM.Collect$$_printf_percent$$00000006)
    _printf_ll                               0x0800024d   Thumb Code     0  _printf_ll.o(.ARM.Collect$$_printf_percent$$00000007)
    _printf_i                                0x08000257   Thumb Code     0  _printf_i.o(.ARM.Collect$$_printf_percent$$00000008)
    _printf_d                                0x0800025d   Thumb Code     0  _printf_d.o(.ARM.Collect$$_printf_percent$$00000009)
    _printf_u                                0x08000263   Thumb Code     0  _printf_u.o(.ARM.Collect$$_printf_percent$$0000000A)
    _printf_o                                0x08000269   Thumb Code     0  _printf_o.o(.ARM.Collect$$_printf_percent$$0000000B)
    _printf_x                                0x0800026f   Thumb Code     0  _printf_x.o(.ARM.Collect$$_printf_percent$$0000000C)
    _printf_lli                              0x08000275   Thumb Code     0  _printf_lli.o(.ARM.Collect$$_printf_percent$$0000000D)
    _printf_lld                              0x0800027b   Thumb Code     0  _printf_lld.o(.ARM.Collect$$_printf_percent$$0000000E)
    _printf_llu                              0x08000281   Thumb Code     0  _printf_llu.o(.ARM.Collect$$_printf_percent$$0000000F)
    _printf_llo                              0x08000287   Thumb Code     0  _printf_llo.o(.ARM.Collect$$_printf_percent$$00000010)
    _printf_llx                              0x0800028d   Thumb Code     0  _printf_llx.o(.ARM.Collect$$_printf_percent$$00000011)
    _printf_l                                0x08000293   Thumb Code     0  _printf_l.o(.ARM.Collect$$_printf_percent$$00000012)
    _printf_c                                0x0800029d   Thumb Code     0  _printf_c.o(.ARM.Collect$$_printf_percent$$00000013)
    _printf_s                                0x080002a3   Thumb Code     0  _printf_s.o(.ARM.Collect$$_printf_percent$$00000014)
    _printf_lc                               0x080002a9   Thumb Code     0  _printf_lc.o(.ARM.Collect$$_printf_percent$$00000015)
    _printf_ls                               0x080002af   Thumb Code     0  _printf_ls.o(.ARM.Collect$$_printf_percent$$00000016)
    _printf_percent_end                      0x080002b5   Thumb Code     0  _printf_percent_end.o(.ARM.Collect$$_printf_percent$$00000017)
    __rt_lib_init                            0x080002b9   Thumb Code     0  libinit.o(.ARM.Collect$$libinit$$00000000)
    __rt_lib_init_fp_1                       0x080002bb   Thumb Code     0  libinit2.o(.ARM.Collect$$libinit$$00000001)
    __rt_lib_init_heap_2                     0x080002bf   Thumb Code     0  libinit2.o(.ARM.Collect$$libinit$$00000007)
    __rt_lib_init_preinit_1                  0x080002bf   Thumb Code     0  libinit2.o(.ARM.Collect$$libinit$$00000006)
    __rt_lib_init_relocate_pie_1             0x080002bf   Thumb Code     0  libinit2.o(.ARM.Collect$$libinit$$00000004)
    __rt_lib_init_heap_1                     0x080002c7   Thumb Code     0  libinit2.o(.ARM.Collect$$libinit$$0000000C)
    __rt_lib_init_rand_2                     0x080002c7   Thumb Code     0  libinit2.o(.ARM.Collect$$libinit$$0000000F)
    __rt_lib_init_user_alloc_1               0x080002c7   Thumb Code     0  libinit2.o(.ARM.Collect$$libinit$$0000000E)
    __rt_lib_init_lc_common                  0x080002cb   Thumb Code     0  libinit2.o(.ARM.Collect$$libinit$$00000011)
    __rt_lib_init_rand_1                     0x080002cb   Thumb Code     0  libinit2.o(.ARM.Collect$$libinit$$00000010)
    __rt_lib_init_lc_collate_1               0x080002d1   Thumb Code     0  libinit2.o(.ARM.Collect$$libinit$$00000013)
    __rt_lib_init_lc_ctype_2                 0x080002d1   Thumb Code     0  libinit2.o(.ARM.Collect$$libinit$$00000014)
    __rt_lib_init_lc_ctype_1                 0x080002dd   Thumb Code     0  libinit2.o(.ARM.Collect$$libinit$$00000015)
    __rt_lib_init_lc_monetary_1              0x080002dd   Thumb Code     0  libinit2.o(.ARM.Collect$$libinit$$00000017)
    __rt_lib_init_lc_numeric_2               0x080002dd   Thumb Code     0  libinit2.o(.ARM.Collect$$libinit$$00000018)
    __rt_lib_init_atexit_1                   0x080002e7   Thumb Code     0  libinit2.o(.ARM.Collect$$libinit$$0000001D)
    __rt_lib_init_clock_1                    0x080002e7   Thumb Code     0  libinit2.o(.ARM.Collect$$libinit$$00000023)
    __rt_lib_init_fp_trap_1                  0x080002e7   Thumb Code     0  libinit2.o(.ARM.Collect$$libinit$$00000021)
    __rt_lib_init_getenv_1                   0x080002e7   Thumb Code     0  libinit2.o(.ARM.Collect$$libinit$$00000025)
    __rt_lib_init_lc_numeric_1               0x080002e7   Thumb Code     0  libinit2.o(.ARM.Collect$$libinit$$00000019)
    __rt_lib_init_lc_time_1                  0x080002e7   Thumb Code     0  libinit2.o(.ARM.Collect$$libinit$$0000001B)
    __rt_lib_init_signal_1                   0x080002e7   Thumb Code     0  libinit2.o(.ARM.Collect$$libinit$$0000001F)
    __rt_lib_init_stdio_2                    0x080002e7   Thumb Code     0  libinit2.o(.ARM.Collect$$libinit$$00000026)
    __rt_lib_init_alloca_1                   0x080002eb   Thumb Code     0  libinit2.o(.ARM.Collect$$libinit$$00000030)
    __rt_lib_init_argv_1                     0x080002eb   Thumb Code     0  libinit2.o(.ARM.Collect$$libinit$$0000002E)
    __rt_lib_init_cpp_1                      0x080002eb   Thumb Code     0  libinit2.o(.ARM.Collect$$libinit$$00000034)
    __rt_lib_init_exceptions_1               0x080002eb   Thumb Code     0  libinit2.o(.ARM.Collect$$libinit$$00000032)
    __rt_lib_init_return                     0x080002eb   Thumb Code     0  libinit2.o(.ARM.Collect$$libinit$$00000035)
    __rt_lib_init_stdio_1                    0x080002eb   Thumb Code     0  libinit2.o(.ARM.Collect$$libinit$$00000027)
    __rt_lib_shutdown                        0x080002ed   Thumb Code     0  libshutdown.o(.ARM.Collect$$libshutdown$$00000000)
    __rt_lib_shutdown_cpp_1                  0x080002ef   Thumb Code     0  libshutdown2.o(.ARM.Collect$$libshutdown$$00000002)
    __rt_lib_shutdown_stdio_2                0x080002ef   Thumb Code     0  libshutdown2.o(.ARM.Collect$$libshutdown$$00000003)
    __rt_lib_shutdown_fp_trap_1              0x080002f3   Thumb Code     0  libshutdown2.o(.ARM.Collect$$libshutdown$$00000007)
    __rt_lib_shutdown_heap_1                 0x080002f3   Thumb Code     0  libshutdown2.o(.ARM.Collect$$libshutdown$$0000000F)
    __rt_lib_shutdown_return                 0x080002f3   Thumb Code     0  libshutdown2.o(.ARM.Collect$$libshutdown$$00000010)
    __rt_lib_shutdown_signal_1               0x080002f3   Thumb Code     0  libshutdown2.o(.ARM.Collect$$libshutdown$$0000000A)
    __rt_lib_shutdown_stdio_1                0x080002f3   Thumb Code     0  libshutdown2.o(.ARM.Collect$$libshutdown$$00000004)
    __rt_lib_shutdown_user_alloc_1           0x080002f3   Thumb Code     0  libshutdown2.o(.ARM.Collect$$libshutdown$$0000000C)
    __rt_entry                               0x080002f5   Thumb Code     0  __rtentry.o(.ARM.Collect$$rtentry$$00000000)
    __rt_entry_presh_1                       0x080002f5   Thumb Code     0  __rtentry2.o(.ARM.Collect$$rtentry$$00000002)
    __rt_entry_sh                            0x080002f5   Thumb Code     0  __rtentry4.o(.ARM.Collect$$rtentry$$00000004)
    __rt_entry_li                            0x080002fb   Thumb Code     0  __rtentry2.o(.ARM.Collect$$rtentry$$0000000A)
    __rt_entry_postsh_1                      0x080002fb   Thumb Code     0  __rtentry2.o(.ARM.Collect$$rtentry$$00000009)
    __rt_entry_main                          0x080002ff   Thumb Code     0  __rtentry2.o(.ARM.Collect$$rtentry$$0000000D)
    __rt_entry_postli_1                      0x080002ff   Thumb Code     0  __rtentry2.o(.ARM.Collect$$rtentry$$0000000C)
    __rt_exit                                0x08000307   Thumb Code     0  rtexit.o(.ARM.Collect$$rtexit$$00000000)
    __rt_exit_ls                             0x08000309   Thumb Code     0  rtexit2.o(.ARM.Collect$$rtexit$$00000003)
    __rt_exit_prels_1                        0x08000309   Thumb Code     0  rtexit2.o(.ARM.Collect$$rtexit$$00000002)
    __rt_exit_exit                           0x0800030d   Thumb Code     0  rtexit2.o(.ARM.Collect$$rtexit$$00000004)
    rand                                     0x08000315   Thumb Code    48  rand.o(.emb_text)
    Reset_Handler                            0x08000349   Thumb Code     8  startup_stm32f469xx.o(.text)
    ADC_IRQHandler                           0x08000363   Thumb Code     0  startup_stm32f469xx.o(.text)
    CAN1_RX0_IRQHandler                      0x08000363   Thumb Code     0  startup_stm32f469xx.o(.text)
    CAN1_RX1_IRQHandler                      0x08000363   Thumb Code     0  startup_stm32f469xx.o(.text)
    CAN1_SCE_IRQHandler                      0x08000363   Thumb Code     0  startup_stm32f469xx.o(.text)
    CAN1_TX_IRQHandler                       0x08000363   Thumb Code     0  startup_stm32f469xx.o(.text)
    CAN2_RX0_IRQHandler                      0x08000363   Thumb Code     0  startup_stm32f469xx.o(.text)
    CAN2_RX1_IRQHandler                      0x08000363   Thumb Code     0  startup_stm32f469xx.o(.text)
    CAN2_SCE_IRQHandler                      0x08000363   Thumb Code     0  startup_stm32f469xx.o(.text)
    CAN2_TX_IRQHandler                       0x08000363   Thumb Code     0  startup_stm32f469xx.o(.text)
    DCMI_IRQHandler                          0x08000363   Thumb Code     0  startup_stm32f469xx.o(.text)
    DMA1_Stream0_IRQHandler                  0x08000363   Thumb Code     0  startup_stm32f469xx.o(.text)
    DMA1_Stream1_IRQHandler                  0x08000363   Thumb Code     0  startup_stm32f469xx.o(.text)
    DMA1_Stream2_IRQHandler                  0x08000363   Thumb Code     0  startup_stm32f469xx.o(.text)
    DMA1_Stream3_IRQHandler                  0x08000363   Thumb Code     0  startup_stm32f469xx.o(.text)
    DMA1_Stream4_IRQHandler                  0x08000363   Thumb Code     0  startup_stm32f469xx.o(.text)
    DMA1_Stream5_IRQHandler                  0x08000363   Thumb Code     0  startup_stm32f469xx.o(.text)
    DMA1_Stream6_IRQHandler                  0x08000363   Thumb Code     0  startup_stm32f469xx.o(.text)
    DMA1_Stream7_IRQHandler                  0x08000363   Thumb Code     0  startup_stm32f469xx.o(.text)
    DMA2D_IRQHandler                         0x08000363   Thumb Code     0  startup_stm32f469xx.o(.text)
    DMA2_Stream0_IRQHandler                  0x08000363   Thumb Code     0  startup_stm32f469xx.o(.text)
    DMA2_Stream2_IRQHandler                  0x08000363   Thumb Code     0  startup_stm32f469xx.o(.text)
    DMA2_Stream3_IRQHandler                  0x08000363   Thumb Code     0  startup_stm32f469xx.o(.text)
    DMA2_Stream4_IRQHandler                  0x08000363   Thumb Code     0  startup_stm32f469xx.o(.text)
    DMA2_Stream5_IRQHandler                  0x08000363   Thumb Code     0  startup_stm32f469xx.o(.text)
    DMA2_Stream7_IRQHandler                  0x08000363   Thumb Code     0  startup_stm32f469xx.o(.text)
    DSI_IRQHandler                           0x08000363   Thumb Code     0  startup_stm32f469xx.o(.text)
    ETH_IRQHandler                           0x08000363   Thumb Code     0  startup_stm32f469xx.o(.text)
    ETH_WKUP_IRQHandler                      0x08000363   Thumb Code     0  startup_stm32f469xx.o(.text)
    EXTI0_IRQHandler                         0x08000363   Thumb Code     0  startup_stm32f469xx.o(.text)
    EXTI15_10_IRQHandler                     0x08000363   Thumb Code     0  startup_stm32f469xx.o(.text)
    EXTI1_IRQHandler                         0x08000363   Thumb Code     0  startup_stm32f469xx.o(.text)
    EXTI2_IRQHandler                         0x08000363   Thumb Code     0  startup_stm32f469xx.o(.text)
    EXTI3_IRQHandler                         0x08000363   Thumb Code     0  startup_stm32f469xx.o(.text)
    EXTI4_IRQHandler                         0x08000363   Thumb Code     0  startup_stm32f469xx.o(.text)
    EXTI9_5_IRQHandler                       0x08000363   Thumb Code     0  startup_stm32f469xx.o(.text)
    FLASH_IRQHandler                         0x08000363   Thumb Code     0  startup_stm32f469xx.o(.text)
    FMC_IRQHandler                           0x08000363   Thumb Code     0  startup_stm32f469xx.o(.text)
    FPU_IRQHandler                           0x08000363   Thumb Code     0  startup_stm32f469xx.o(.text)
    HASH_RNG_IRQHandler                      0x08000363   Thumb Code     0  startup_stm32f469xx.o(.text)
    I2C1_ER_IRQHandler                       0x08000363   Thumb Code     0  startup_stm32f469xx.o(.text)
    I2C1_EV_IRQHandler                       0x08000363   Thumb Code     0  startup_stm32f469xx.o(.text)
    I2C2_ER_IRQHandler                       0x08000363   Thumb Code     0  startup_stm32f469xx.o(.text)
    I2C2_EV_IRQHandler                       0x08000363   Thumb Code     0  startup_stm32f469xx.o(.text)
    I2C3_ER_IRQHandler                       0x08000363   Thumb Code     0  startup_stm32f469xx.o(.text)
    I2C3_EV_IRQHandler                       0x08000363   Thumb Code     0  startup_stm32f469xx.o(.text)
    LTDC_ER_IRQHandler                       0x08000363   Thumb Code     0  startup_stm32f469xx.o(.text)
    LTDC_IRQHandler                          0x08000363   Thumb Code     0  startup_stm32f469xx.o(.text)
    OTG_FS_WKUP_IRQHandler                   0x08000363   Thumb Code     0  startup_stm32f469xx.o(.text)
    OTG_HS_EP1_IN_IRQHandler                 0x08000363   Thumb Code     0  startup_stm32f469xx.o(.text)
    OTG_HS_EP1_OUT_IRQHandler                0x08000363   Thumb Code     0  startup_stm32f469xx.o(.text)
    OTG_HS_IRQHandler                        0x08000363   Thumb Code     0  startup_stm32f469xx.o(.text)
    OTG_HS_WKUP_IRQHandler                   0x08000363   Thumb Code     0  startup_stm32f469xx.o(.text)
    PVD_IRQHandler                           0x08000363   Thumb Code     0  startup_stm32f469xx.o(.text)
    QUADSPI_IRQHandler                       0x08000363   Thumb Code     0  startup_stm32f469xx.o(.text)
    RCC_IRQHandler                           0x08000363   Thumb Code     0  startup_stm32f469xx.o(.text)
    RTC_Alarm_IRQHandler                     0x08000363   Thumb Code     0  startup_stm32f469xx.o(.text)
    RTC_WKUP_IRQHandler                      0x08000363   Thumb Code     0  startup_stm32f469xx.o(.text)
    SAI1_IRQHandler                          0x08000363   Thumb Code     0  startup_stm32f469xx.o(.text)
    SDIO_IRQHandler                          0x08000363   Thumb Code     0  startup_stm32f469xx.o(.text)
    SPI1_IRQHandler                          0x08000363   Thumb Code     0  startup_stm32f469xx.o(.text)
    SPI2_IRQHandler                          0x08000363   Thumb Code     0  startup_stm32f469xx.o(.text)
    SPI3_IRQHandler                          0x08000363   Thumb Code     0  startup_stm32f469xx.o(.text)
    SPI5_IRQHandler                          0x08000363   Thumb Code     0  startup_stm32f469xx.o(.text)
    SPI6_IRQHandler                          0x08000363   Thumb Code     0  startup_stm32f469xx.o(.text)
    TAMP_STAMP_IRQHandler                    0x08000363   Thumb Code     0  startup_stm32f469xx.o(.text)
    TIM1_BRK_TIM9_IRQHandler                 0x08000363   Thumb Code     0  startup_stm32f469xx.o(.text)
    TIM1_CC_IRQHandler                       0x08000363   Thumb Code     0  startup_stm32f469xx.o(.text)
    TIM1_TRG_COM_TIM11_IRQHandler            0x08000363   Thumb Code     0  startup_stm32f469xx.o(.text)
    TIM1_UP_TIM10_IRQHandler                 0x08000363   Thumb Code     0  startup_stm32f469xx.o(.text)
    TIM2_IRQHandler                          0x08000363   Thumb Code     0  startup_stm32f469xx.o(.text)
    TIM3_IRQHandler                          0x08000363   Thumb Code     0  startup_stm32f469xx.o(.text)
    TIM4_IRQHandler                          0x08000363   Thumb Code     0  startup_stm32f469xx.o(.text)
    TIM5_IRQHandler                          0x08000363   Thumb Code     0  startup_stm32f469xx.o(.text)
    TIM6_DAC_IRQHandler                      0x08000363   Thumb Code     0  startup_stm32f469xx.o(.text)
    TIM7_IRQHandler                          0x08000363   Thumb Code     0  startup_stm32f469xx.o(.text)
    TIM8_BRK_TIM12_IRQHandler                0x08000363   Thumb Code     0  startup_stm32f469xx.o(.text)
    TIM8_CC_IRQHandler                       0x08000363   Thumb Code     0  startup_stm32f469xx.o(.text)
    TIM8_TRG_COM_TIM14_IRQHandler            0x08000363   Thumb Code     0  startup_stm32f469xx.o(.text)
    TIM8_UP_TIM13_IRQHandler                 0x08000363   Thumb Code     0  startup_stm32f469xx.o(.text)
    UART4_IRQHandler                         0x08000363   Thumb Code     0  startup_stm32f469xx.o(.text)
    UART5_IRQHandler                         0x08000363   Thumb Code     0  startup_stm32f469xx.o(.text)
    UART7_IRQHandler                         0x08000363   Thumb Code     0  startup_stm32f469xx.o(.text)
    UART8_IRQHandler                         0x08000363   Thumb Code     0  startup_stm32f469xx.o(.text)
    USART1_IRQHandler                        0x08000363   Thumb Code     0  startup_stm32f469xx.o(.text)
    WWDG_IRQHandler                          0x08000363   Thumb Code     0  startup_stm32f469xx.o(.text)
    __user_initial_stackheap                 0x08000365   Thumb Code     0  startup_stm32f469xx.o(.text)
    __aeabi_uldivmod                         0x08000389   Thumb Code     0  lludivv7m.o(.text)
    _ll_udiv                                 0x08000389   Thumb Code   240  lludivv7m.o(.text)
    printf                                   0x08000479   Thumb Code    20  printf.o(.text)
    sprintf                                  0x08000491   Thumb Code    38  sprintf.o(.text)
    abs                                      0x080004bd   Thumb Code     8  abs.o(.text)
    srand                                    0x080004c5   Thumb Code    42  rand.o(.text)
    _rand_init                               0x080004ef   Thumb Code     4  rand.o(.text)
    strlen                                   0x08000501   Thumb Code    62  strlen.o(.text)
    __aeabi_memcpy                           0x0800053f   Thumb Code     0  rt_memcpy_v6.o(.text)
    __rt_memcpy                              0x0800053f   Thumb Code   138  rt_memcpy_v6.o(.text)
    _memcpy_lastbytes                        0x080005a5   Thumb Code     0  rt_memcpy_v6.o(.text)
    __aeabi_memclr                           0x080005c9   Thumb Code     0  rt_memclr.o(.text)
    __rt_memclr                              0x080005c9   Thumb Code     0  rt_memclr.o(.text)
    _memset                                  0x080005cd   Thumb Code    64  rt_memclr.o(.text)
    __aeabi_memclr4                          0x0800060d   Thumb Code     0  rt_memclr_w.o(.text)
    __aeabi_memclr8                          0x0800060d   Thumb Code     0  rt_memclr_w.o(.text)
    __rt_memclr_w                            0x0800060d   Thumb Code     0  rt_memclr_w.o(.text)
    _memset_w                                0x08000611   Thumb Code    74  rt_memclr_w.o(.text)
    strcmp                                   0x08000661   Thumb Code   124  strcmpv7em.o(.text)
    __use_two_region_memory                  0x080006dd   Thumb Code     2  heapauxi.o(.text)
    __rt_heap_escrow                         0x080006df   Thumb Code     2  heapauxi.o(.text)
    __rt_heap_expand                         0x080006e1   Thumb Code     2  heapauxi.o(.text)
    __read_errno                             0x080006e3   Thumb Code    10  _rserrno.o(.text)
    __set_errno                              0x080006ed   Thumb Code    12  _rserrno.o(.text)
    _printf_pre_padding                      0x080006f9   Thumb Code    44  _printf_pad.o(.text)
    _printf_post_padding                     0x08000725   Thumb Code    34  _printf_pad.o(.text)
    _printf_truncate_signed                  0x08000747   Thumb Code    18  _printf_truncate.o(.text)
    _printf_truncate_unsigned                0x08000759   Thumb Code    18  _printf_truncate.o(.text)
    _printf_str                              0x0800076b   Thumb Code    82  _printf_str.o(.text)
    _printf_int_dec                          0x080007bd   Thumb Code   104  _printf_dec.o(.text)
    _printf_charcount                        0x08000835   Thumb Code    40  _printf_charcount.o(.text)
    _printf_char_common                      0x08000867   Thumb Code    32  _printf_char_common.o(.text)
    _sputc                                   0x0800088d   Thumb Code    10  _sputc.o(.text)
    _printf_char_file                        0x08000899   Thumb Code    32  _printf_char_file.o(.text)
    _printf_wctomb                           0x080008bd   Thumb Code   182  _printf_wctomb.o(.text)
    _printf_longlong_dec                     0x08000979   Thumb Code   108  _printf_longlong_dec.o(.text)
    _printf_longlong_oct                     0x080009f5   Thumb Code    68  _printf_oct_int_ll.o(.text)
    _printf_int_oct                          0x08000a39   Thumb Code    24  _printf_oct_int_ll.o(.text)
    _printf_ll_oct                           0x08000a51   Thumb Code    12  _printf_oct_int_ll.o(.text)
    _printf_longlong_hex                     0x08000a65   Thumb Code    86  _printf_hex_int_ll_ptr.o(.text)
    _printf_int_hex                          0x08000abb   Thumb Code    28  _printf_hex_int_ll_ptr.o(.text)
    _printf_ll_hex                           0x08000ad7   Thumb Code    12  _printf_hex_int_ll_ptr.o(.text)
    _printf_hex_ptr                          0x08000ae3   Thumb Code    18  _printf_hex_int_ll_ptr.o(.text)
    __printf                                 0x08000af9   Thumb Code   388  __printf_flags_ss_wp.o(.text)
    __aeabi_memcpy4                          0x08000c81   Thumb Code     0  rt_memcpy_w.o(.text)
    __aeabi_memcpy8                          0x08000c81   Thumb Code     0  rt_memcpy_w.o(.text)
    __rt_memcpy_w                            0x08000c81   Thumb Code   100  rt_memcpy_w.o(.text)
    _memcpy_lastbytes_aligned                0x08000cc9   Thumb Code     0  rt_memcpy_w.o(.text)
    __aeabi_errno_addr                       0x08000ce5   Thumb Code     8  rt_errno_addr_intlibspace.o(.text)
    __errno$intlibspace                      0x08000ce5   Thumb Code     0  rt_errno_addr_intlibspace.o(.text)
    __rt_errno_addr$intlibspace              0x08000ce5   Thumb Code     0  rt_errno_addr_intlibspace.o(.text)
    _ll_udiv10                               0x08000ced   Thumb Code   138  lludiv10.o(.text)
    _printf_int_common                       0x08000d77   Thumb Code   178  _printf_intcommon.o(.text)
    _printf_fp_dec_real                      0x08000fd9   Thumb Code   620  _printf_fp_dec.o(.text)
    _printf_fp_hex_real                      0x08001245   Thumb Code   756  _printf_fp_hex.o(.text)
    _printf_cs_common                        0x08001541   Thumb Code    20  _printf_char.o(.text)
    _printf_char                             0x08001555   Thumb Code    16  _printf_char.o(.text)
    _printf_string                           0x08001565   Thumb Code     8  _printf_char.o(.text)
    _printf_lcs_common                       0x0800156d   Thumb Code    20  _printf_wchar.o(.text)
    _printf_wchar                            0x08001581   Thumb Code    16  _printf_wchar.o(.text)
    _printf_wstring                          0x08001591   Thumb Code     8  _printf_wchar.o(.text)
    ferror                                   0x08001599   Thumb Code     8  ferror.o(.text)
    _initio                                  0x080015a1   Thumb Code   210  initio.o(.text)
    _terminateio                             0x08001673   Thumb Code    56  initio.o(.text)
    _c16rtomb                                0x080016d9   Thumb Code    72  _c16rtomb.o(.text)
    _wcrtomb                                 0x080016d9   Thumb Code     0  _c16rtomb.o(.text)
    __user_libspace                          0x08001721   Thumb Code     8  libspace.o(.text)
    __user_perproc_libspace                  0x08001721   Thumb Code     0  libspace.o(.text)
    __user_perthread_libspace                0x08001721   Thumb Code     0  libspace.o(.text)
    __user_setup_stackheap                   0x08001729   Thumb Code    74  sys_stackheap_outer.o(.text)
    __rt_ctype_table                         0x08001775   Thumb Code    16  rt_ctype_table.o(.text)
    __rt_locale                              0x08001785   Thumb Code     8  rt_locale_intlibspace.o(.text)
    free                                     0x0800178d   Thumb Code    78  h1_free.o(.text)
    _printf_fp_infnan                        0x080017dd   Thumb Code   112  _printf_fp_infnan.o(.text)
    _btod_etento                             0x0800185d   Thumb Code   224  bigflt0.o(.text)
    __flsbuf                                 0x08001941   Thumb Code   482  flsbuf.o(.text)
    __flsbuf_byte                            0x08001941   Thumb Code     0  flsbuf.o(.text)
    __flsbuf_wide                            0x08001941   Thumb Code     0  flsbuf.o(.text)
    setvbuf                                  0x08001b23   Thumb Code    70  setvbuf.o(.text)
    freopen                                  0x08001b69   Thumb Code   160  fopen.o(.text)
    fopen                                    0x08001c09   Thumb Code    74  fopen.o(.text)
    _fclose_internal                         0x08001c59   Thumb Code    76  fclose.o(.text)
    fclose                                   0x08001c59   Thumb Code     0  fclose.o(.text)
    exit                                     0x08001ca5   Thumb Code    18  exit.o(.text)
    __rt_SIGRTRED                            0x08001cb7   Thumb Code    14  defsig_rtred_outer.o(.text)
    __rt_heap_descriptor                     0x08001cc5   Thumb Code     8  rt_heap_descriptor_intlibspace.o(.text)
    __use_no_heap                            0x08001ccd   Thumb Code     2  hguard.o(.text)
    __heap$guard                             0x08001ccf   Thumb Code     2  hguard.o(.text)
    _terminate_user_alloc                    0x08001cd1   Thumb Code     2  init_alloc.o(.text)
    _init_user_alloc                         0x08001cd3   Thumb Code     2  init_alloc.o(.text)
    __Heap_Full                              0x08001cd5   Thumb Code    34  init_alloc.o(.text)
    __Heap_Broken                            0x08001cf7   Thumb Code     6  init_alloc.o(.text)
    _init_alloc                              0x08001cfd   Thumb Code    94  init_alloc.o(.text)
    malloc                                   0x08001d5b   Thumb Code    94  h1_alloc.o(.text)
    _fseek                                   0x08001db9   Thumb Code   242  fseek.o(.text)
    fseek                                    0x08001db9   Thumb Code     0  fseek.o(.text)
    _seterr                                  0x08001eb1   Thumb Code    20  stdio.o(.text)
    _writebuf                                0x08001ec5   Thumb Code    84  stdio.o(.text)
    _fflush                                  0x08001f19   Thumb Code    70  stdio.o(.text)
    _deferredlazyseek                        0x08001f5f   Thumb Code    60  stdio.o(.text)
    __sig_exit                               0x08001fa1   Thumb Code    10  defsig_exit.o(.text)
    __rt_SIGRTRED_inner                      0x08001fad   Thumb Code    14  defsig_rtred_inner.o(.text)
    __rt_SIGRTMEM                            0x08001fe1   Thumb Code    14  defsig_rtmem_outer.o(.text)
    _sys_exit                                0x08001ff1   Thumb Code     8  sys_exit.o(.text)
    __I$use$semihosting                      0x08001ffd   Thumb Code     0  use_no_semi.o(.text)
    __use_no_semihosting_swi                 0x08001ffd   Thumb Code     2  use_no_semi.o(.text)
    __Heap_Initialize                        0x08001fff   Thumb Code    10  h1_init.o(.text)
    __semihosting_library_function           0x08001fff   Thumb Code     0  indicate_semi.o(.text)
    _maybe_terminate_alloc                   0x08001fff   Thumb Code     0  maybetermalloc1.o(.text)
    __Heap_DescSize                          0x08002009   Thumb Code     4  h1_init.o(.text)
    __Heap_ProvideMemory                     0x0800200d   Thumb Code    52  h1_extend.o(.text)
    _ftell_internal                          0x08002041   Thumb Code    66  ftell.o(.text)
    ftell                                    0x08002041   Thumb Code     0  ftell.o(.text)
    __default_signal_display                 0x08002083   Thumb Code    50  defsig_general.o(.text)
    __rt_SIGRTMEM_inner                      0x080020b5   Thumb Code    22  defsig_rtmem_inner.o(.text)
    _ttywrch                                 0x08002105   Thumb Code    14  sys_wrch.o(.text)
    BusFault_Handler                         0x080022a1   Thumb Code     4  stm32f4xx_it.o(.text.BusFault_Handler)
    CDC_Transmit_FS                          0x08002375   Thumb Code    96  usbd_cdc_if.o(.text.CDC_Transmit_FS)
    CharTest                                 0x080023d5   Thumb Code   364  lcd_gui.o(.text.CharTest)
    CircleTest                               0x08002541   Thumb Code   244  lcd_gui.o(.text.CircleTest)
    ClearTest                                0x08002635   Thumb Code    18  lcd_gui.o(.text.ClearTest)
    DMA2_Stream1_IRQHandler                  0x08002649   Thumb Code    16  stm32f4xx_it.o(.text.DMA2_Stream1_IRQHandler)
    DMA2_Stream6_IRQHandler                  0x08002659   Thumb Code    16  stm32f4xx_it.o(.text.DMA2_Stream6_IRQHandler)
    DebugMon_Handler                         0x080027b1   Thumb Code     2  stm32f4xx_it.o(.text.DebugMon_Handler)
    Driver_Delay_ms                          0x080027b5   Thumb Code    16  dev_config.o(.text.Driver_Delay_ms)
    Driver_Delay_us                          0x080027c5   Thumb Code    32  dev_config.o(.text.Driver_Delay_us)
    Error_Handler                            0x080027e5   Thumb Code    14  main.o(.text.Error_Handler)
    EventRecordData                          0x0800288d   Thumb Code   388  eventrecorder.o(.text.EventRecordData)
    EventRecorderEnable                      0x08002b11   Thumb Code   146  eventrecorder.o(.text.EventRecorderEnable)
    EventRecorderInitialize                  0x08002ba5   Thumb Code   450  eventrecorder.o(.text.EventRecorderInitialize)
    EventRecorderStart                       0x08002d69   Thumb Code    74  eventrecorder.o(.text.EventRecorderStart)
    EventRecorderTimerGetCount               0x08002db5   Thumb Code    12  eventrecorder.o(.text.EventRecorderTimerGetCount)
    EventRecorderTimerGetFreq                0x08002dc1   Thumb Code    12  eventrecorder.o(.text.EventRecorderTimerGetFreq)
    EventRecorderTimerSetup                  0x08002dcd   Thumb Code    36  eventrecorder.o(.text.EventRecorderTimerSetup)
    FillRectTest                             0x08002df1   Thumb Code   234  lcd_gui.o(.text.FillRectTest)
    FullCircleTest                           0x08002edd   Thumb Code   240  lcd_gui.o(.text.FullCircleTest)
    GUI_Clear                                0x08002fcd   Thumb Code    20  lcd_gui.o(.text.GUI_Clear)
    GUI_DisChar                              0x08002fe1   Thumb Code   438  lcd_gui.o(.text.GUI_DisChar)
    GUI_DisNum                               0x08003199   Thumb Code   300  lcd_gui.o(.text.GUI_DisNum)
    GUI_DisString_EN                         0x080032c5   Thumb Code   270  lcd_gui.o(.text.GUI_DisString_EN)
    GUI_DrawCircle                           0x080033d5   Thumb Code  1068  lcd_gui.o(.text.GUI_DrawCircle)
    GUI_DrawLine                             0x08003801   Thumb Code   586  lcd_gui.o(.text.GUI_DrawLine)
    GUI_DrawPoint                            0x08003a4d   Thumb Code   336  lcd_gui.o(.text.GUI_DrawPoint)
    GUI_DrawRectangle                        0x08003b9d   Thumb Code   420  lcd_gui.o(.text.GUI_DrawRectangle)
    GUI_Show                                 0x08003d41   Thumb Code  1752  lcd_gui.o(.text.GUI_Show)
    GUI_Swop                                 0x08004419   Thumb Code    38  lcd_gui.o(.text.GUI_Swop)
    HAL_ADC_ConfigChannel                    0x080044c5   Thumb Code   568  stm32f4xx_hal_adc.o(.text.HAL_ADC_ConfigChannel)
    HAL_ADC_Init                             0x080046fd   Thumb Code   168  stm32f4xx_hal_adc.o(.text.HAL_ADC_Init)
    HAL_ADC_MspInit                          0x080047a5   Thumb Code   198  stm32f4xx_hal_msp.o(.text.HAL_ADC_MspInit)
    HAL_CRC_Init                             0x0800486d   Thumb Code    64  stm32f4xx_hal_crc.o(.text.HAL_CRC_Init)
    HAL_CRC_MspInit                          0x080048ad   Thumb Code    62  stm32f4xx_hal_msp.o(.text.HAL_CRC_MspInit)
    HAL_DMA2D_ConfigLayer                    0x080048ed   Thumb Code   330  stm32f4xx_hal_dma2d.o(.text.HAL_DMA2D_ConfigLayer)
    HAL_DMA2D_Init                           0x08004a39   Thumb Code   144  stm32f4xx_hal_dma2d.o(.text.HAL_DMA2D_Init)
    HAL_DMA2D_MspInit                        0x08004ac9   Thumb Code    62  stm32f4xx_hal_msp.o(.text.HAL_DMA2D_MspInit)
    HAL_DMA_Abort                            0x08004b09   Thumb Code   236  stm32f4xx_hal_dma.o(.text.HAL_DMA_Abort)
    HAL_DMA_Abort_IT                         0x08004bf5   Thumb Code    68  stm32f4xx_hal_dma.o(.text.HAL_DMA_Abort_IT)
    HAL_DMA_IRQHandler                       0x08004c39   Thumb Code   798  stm32f4xx_hal_dma.o(.text.HAL_DMA_IRQHandler)
    HAL_DMA_Init                             0x08004f59   Thumb Code   366  stm32f4xx_hal_dma.o(.text.HAL_DMA_Init)
    HAL_Delay                                0x080050c9   Thumb Code    66  stm32f4xx_hal.o(.text.HAL_Delay)
    HAL_GPIO_DeInit                          0x0800510d   Thumb Code   604  stm32f4xx_hal_gpio.o(.text.HAL_GPIO_DeInit)
    HAL_GPIO_Init                            0x08005369   Thumb Code  1006  stm32f4xx_hal_gpio.o(.text.HAL_GPIO_Init)
    HAL_GPIO_ReadPin                         0x08005759   Thumb Code    46  stm32f4xx_hal_gpio.o(.text.HAL_GPIO_ReadPin)
    HAL_GPIO_WritePin                        0x08005789   Thumb Code    46  stm32f4xx_hal_gpio.o(.text.HAL_GPIO_WritePin)
    HAL_GetTick                              0x080057b9   Thumb Code    12  stm32f4xx_hal.o(.text.HAL_GetTick)
    HAL_I2C_Init                             0x080057c5   Thumb Code   676  stm32f4xx_hal_i2c.o(.text.HAL_I2C_Init)
    HAL_I2C_MspInit                          0x08005a69   Thumb Code   272  stm32f4xx_hal_msp.o(.text.HAL_I2C_MspInit)
    HAL_IncTick                              0x08005b79   Thumb Code    26  stm32f4xx_hal.o(.text.HAL_IncTick)
    HAL_Init                                 0x08005b95   Thumb Code    54  stm32f4xx_hal.o(.text.HAL_Init)
    HAL_InitTick                             0x08005bcd   Thumb Code   112  stm32f4xx_hal.o(.text.HAL_InitTick)
    HAL_MspInit                              0x08005c3d   Thumb Code    74  stm32f4xx_hal_msp.o(.text.HAL_MspInit)
    HAL_NVIC_DisableIRQ                      0x08005c89   Thumb Code    20  stm32f4xx_hal_cortex.o(.text.HAL_NVIC_DisableIRQ)
    HAL_NVIC_EnableIRQ                       0x08005c9d   Thumb Code    20  stm32f4xx_hal_cortex.o(.text.HAL_NVIC_EnableIRQ)
    HAL_NVIC_SetPriority                     0x08005cb1   Thumb Code    50  stm32f4xx_hal_cortex.o(.text.HAL_NVIC_SetPriority)
    HAL_NVIC_SetPriorityGrouping             0x08005ce5   Thumb Code    16  stm32f4xx_hal_cortex.o(.text.HAL_NVIC_SetPriorityGrouping)
    HAL_PCDEx_ActivateLPM                    0x08005cf5   Thumb Code    54  stm32f4xx_hal_pcd_ex.o(.text.HAL_PCDEx_ActivateLPM)
    HAL_PCDEx_LPM_Callback                   0x08005d2d   Thumb Code   146  usbd_conf.o(.text.HAL_PCDEx_LPM_Callback)
    HAL_PCDEx_SetRxFiFo                      0x08005dc1   Thumb Code    24  stm32f4xx_hal_pcd_ex.o(.text.HAL_PCDEx_SetRxFiFo)
    HAL_PCDEx_SetTxFiFo                      0x08005dd9   Thumb Code   156  stm32f4xx_hal_pcd_ex.o(.text.HAL_PCDEx_SetTxFiFo)
    HAL_PCD_ConnectCallback                  0x08005e75   Thumb Code    20  usbd_conf.o(.text.HAL_PCD_ConnectCallback)
    HAL_PCD_DataInStageCallback              0x08005e89   Thumb Code    38  usbd_conf.o(.text.HAL_PCD_DataInStageCallback)
    HAL_PCD_DataOutStageCallback             0x08005eb1   Thumb Code    40  usbd_conf.o(.text.HAL_PCD_DataOutStageCallback)
    HAL_PCD_DisconnectCallback               0x08005ed9   Thumb Code    20  usbd_conf.o(.text.HAL_PCD_DisconnectCallback)
    HAL_PCD_EP_Abort                         0x08005eed   Thumb Code    94  stm32f4xx_hal_pcd.o(.text.HAL_PCD_EP_Abort)
    HAL_PCD_EP_Close                         0x08005f4d   Thumb Code   168  stm32f4xx_hal_pcd.o(.text.HAL_PCD_EP_Close)
    HAL_PCD_EP_ClrStall                      0x08005ff5   Thumb Code   200  stm32f4xx_hal_pcd.o(.text.HAL_PCD_EP_ClrStall)
    HAL_PCD_EP_GetRxCount                    0x080060bd   Thumb Code    34  stm32f4xx_hal_pcd.o(.text.HAL_PCD_EP_GetRxCount)
    HAL_PCD_EP_Open                          0x080060e1   Thumb Code   234  stm32f4xx_hal_pcd.o(.text.HAL_PCD_EP_Open)
    HAL_PCD_EP_Receive                       0x080061cd   Thumb Code   134  stm32f4xx_hal_pcd.o(.text.HAL_PCD_EP_Receive)
    HAL_PCD_EP_SetStall                      0x08006255   Thumb Code   222  stm32f4xx_hal_pcd.o(.text.HAL_PCD_EP_SetStall)
    HAL_PCD_EP_Transmit                      0x08006335   Thumb Code   134  stm32f4xx_hal_pcd.o(.text.HAL_PCD_EP_Transmit)
    HAL_PCD_IRQHandler                       0x080063bd   Thumb Code  2188  stm32f4xx_hal_pcd.o(.text.HAL_PCD_IRQHandler)
    HAL_PCD_ISOINIncompleteCallback          0x08006c49   Thumb Code    28  usbd_conf.o(.text.HAL_PCD_ISOINIncompleteCallback)
    HAL_PCD_ISOOUTIncompleteCallback         0x08006c65   Thumb Code    28  usbd_conf.o(.text.HAL_PCD_ISOOUTIncompleteCallback)
    HAL_PCD_Init                             0x08006c81   Thumb Code   708  stm32f4xx_hal_pcd.o(.text.HAL_PCD_Init)
    HAL_PCD_MspInit                          0x08006f45   Thumb Code   208  usbd_conf.o(.text.HAL_PCD_MspInit)
    HAL_PCD_ResetCallback                    0x08007015   Thumb Code    82  usbd_conf.o(.text.HAL_PCD_ResetCallback)
    HAL_PCD_ResumeCallback                   0x08007069   Thumb Code    20  usbd_conf.o(.text.HAL_PCD_ResumeCallback)
    HAL_PCD_SOFCallback                      0x0800707d   Thumb Code    20  usbd_conf.o(.text.HAL_PCD_SOFCallback)
    HAL_PCD_SetAddress                       0x08007091   Thumb Code    94  stm32f4xx_hal_pcd.o(.text.HAL_PCD_SetAddress)
    HAL_PCD_SetupStageCallback               0x080070f1   Thumb Code    24  usbd_conf.o(.text.HAL_PCD_SetupStageCallback)
    HAL_PCD_Start                            0x08007109   Thumb Code   122  stm32f4xx_hal_pcd.o(.text.HAL_PCD_Start)
    HAL_PCD_SuspendCallback                  0x08007185   Thumb Code    62  usbd_conf.o(.text.HAL_PCD_SuspendCallback)
    HAL_QSPI_Init                            0x080071c5   Thumb Code   274  stm32f4xx_hal_qspi.o(.text.HAL_QSPI_Init)
    HAL_QSPI_MspInit                         0x080072d9   Thumb Code   458  stm32f4xx_hal_msp.o(.text.HAL_QSPI_MspInit)
    HAL_QSPI_SetTimeout                      0x080074a5   Thumb Code    16  stm32f4xx_hal_qspi.o(.text.HAL_QSPI_SetTimeout)
    HAL_RCCEx_PeriphCLKConfig                0x080074b5   Thumb Code  1302  stm32f4xx_hal_rcc_ex.o(.text.HAL_RCCEx_PeriphCLKConfig)
    HAL_RCC_CSSCallback                      0x080079cd   Thumb Code     2  stm32f4xx_hal_rcc.o(.text.HAL_RCC_CSSCallback)
    HAL_RCC_ClockConfig                      0x080079d1   Thumb Code   610  stm32f4xx_hal_rcc.o(.text.HAL_RCC_ClockConfig)
    HAL_RCC_EnableCSS                        0x08007c35   Thumb Code    12  stm32f4xx_hal_rcc.o(.text.HAL_RCC_EnableCSS)
    HAL_RCC_GetHCLKFreq                      0x08007c41   Thumb Code    12  stm32f4xx_hal_rcc.o(.text.HAL_RCC_GetHCLKFreq)
    HAL_RCC_GetPCLK1Freq                     0x08007c4d   Thumb Code    34  stm32f4xx_hal_rcc.o(.text.HAL_RCC_GetPCLK1Freq)
    HAL_RCC_GetPCLK2Freq                     0x08007c71   Thumb Code    34  stm32f4xx_hal_rcc.o(.text.HAL_RCC_GetPCLK2Freq)
    HAL_RCC_GetSysClockFreq                  0x08007c95   Thumb Code   230  stm32f4xx_hal_rcc.o(.text.HAL_RCC_GetSysClockFreq)
    HAL_RCC_NMI_IRQHandler                   0x08007d7d   Thumb Code    40  stm32f4xx_hal_rcc.o(.text.HAL_RCC_NMI_IRQHandler)
    HAL_RCC_OscConfig                        0x08007da5   Thumb Code  1750  stm32f4xx_hal_rcc_ex.o(.text.HAL_RCC_OscConfig)
    HAL_SPI_DeInit                           0x0800847d   Thumb Code    86  stm32f4xx_hal_spi.o(.text.HAL_SPI_DeInit)
    HAL_SPI_ErrorCallback                    0x080084d5   Thumb Code     8  stm32f4xx_hal_spi.o(.text.HAL_SPI_ErrorCallback)
    HAL_SPI_IRQHandler                       0x080084dd   Thumb Code   560  stm32f4xx_hal_spi.o(.text.HAL_SPI_IRQHandler)
    HAL_SPI_Init                             0x0800870d   Thumb Code   256  stm32f4xx_hal_spi.o(.text.HAL_SPI_Init)
    HAL_SPI_MspDeInit                        0x0800880d   Thumb Code   280  stm32f4xx_hal_msp.o(.text.HAL_SPI_MspDeInit)
    HAL_SPI_MspInit                          0x08008925   Thumb Code   820  stm32f4xx_hal_msp.o(.text.HAL_SPI_MspInit)
    HAL_SPI_Receive_IT                       0x08008c59   Thumb Code   342  stm32f4xx_hal_spi.o(.text.HAL_SPI_Receive_IT)
    HAL_SPI_RxCpltCallback                   0x08008db1   Thumb Code     8  stm32f4xx_hal_spi.o(.text.HAL_SPI_RxCpltCallback)
    HAL_SPI_Transmit                         0x08008db9   Thumb Code   644  stm32f4xx_hal_spi.o(.text.HAL_SPI_Transmit)
    HAL_SPI_TransmitReceive_IT               0x0800903d   Thumb Code   348  stm32f4xx_hal_spi.o(.text.HAL_SPI_TransmitReceive_IT)
    HAL_SPI_TxRxCpltCallback                 0x08009199   Thumb Code     8  stm32f4xx_hal_spi.o(.text.HAL_SPI_TxRxCpltCallback)
    HAL_SYSTICK_Config                       0x080091a1   Thumb Code    16  stm32f4xx_hal_cortex.o(.text.HAL_SYSTICK_Config)
    HAL_UARTEx_RxEventCallback               0x080091b1   Thumb Code    12  stm32f4xx_hal_uart.o(.text.HAL_UARTEx_RxEventCallback)
    HAL_UART_ErrorCallback                   0x080091bd   Thumb Code     8  stm32f4xx_hal_uart.o(.text.HAL_UART_ErrorCallback)
    HAL_UART_IRQHandler                      0x080091c5   Thumb Code  1054  stm32f4xx_hal_uart.o(.text.HAL_UART_IRQHandler)
    HAL_UART_Init                            0x080095e5   Thumb Code   154  stm32f4xx_hal_uart.o(.text.HAL_UART_Init)
    HAL_UART_MspInit                         0x08009681   Thumb Code   620  stm32f4xx_hal_msp.o(.text.HAL_UART_MspInit)
    HAL_UART_Receive_IT                      0x080098ed   Thumb Code   120  stm32f4xx_hal_uart.o(.text.HAL_UART_Receive_IT)
    HAL_UART_RxCpltCallback                  0x08009965   Thumb Code     8  stm32f4xx_hal_uart.o(.text.HAL_UART_RxCpltCallback)
    HAL_UART_Transmit                        0x0800996d   Thumb Code   334  stm32f4xx_hal_uart.o(.text.HAL_UART_Transmit)
    HAL_UART_TxCpltCallback                  0x08009abd   Thumb Code     8  stm32f4xx_hal_uart.o(.text.HAL_UART_TxCpltCallback)
    HardFault_Handler                        0x08009ac5   Thumb Code    26  stm32f4xx_it.o(.text.HardFault_Handler)
    LCD_Clear                                0x08009b85   Thumb Code    40  lcd_driver.o(.text.LCD_Clear)
    LCD_Init                                 0x08009bad   Thumb Code    86  lcd_driver.o(.text.LCD_Init)
    LCD_SetArealColor                        0x08009e75   Thumb Code   114  lcd_driver.o(.text.LCD_SetArealColor)
    LCD_SetColor                             0x08009ef5   Thumb Code    38  lcd_driver.o(.text.LCD_SetColor)
    LCD_SetCursor                            0x08009f1d   Thumb Code    32  lcd_driver.o(.text.LCD_SetCursor)
    LCD_SetGramScanWay                       0x08009f3d   Thumb Code   290  lcd_driver.o(.text.LCD_SetGramScanWay)
    LCD_SetPointlColor                       0x0800a061   Thumb Code    86  lcd_driver.o(.text.LCD_SetPointlColor)
    LCD_SetWindow                            0x0800a0b9   Thumb Code   126  lcd_driver.o(.text.LCD_SetWindow)
    LCD_WriteData                            0x0800a139   Thumb Code    76  lcd_driver.o(.text.LCD_WriteData)
    LCD_WriteReg                             0x0800a185   Thumb Code    68  lcd_driver.o(.text.LCD_WriteReg)
    LineTest                                 0x0800a235   Thumb Code   236  lcd_gui.o(.text.LineTest)
    MX_USB_DEVICE_Init                       0x0800a981   Thumb Code   118  usb_device.o(.text.MX_USB_DEVICE_Init)
    MemManage_Handler                        0x0800a9f9   Thumb Code     4  stm32f4xx_it.o(.text.MemManage_Handler)
    NMI_Handler                              0x0800a9fd   Thumb Code    10  stm32f4xx_it.o(.text.NMI_Handler)
    OTG_FS_IRQHandler                        0x0800aa75   Thumb Code    16  stm32f4xx_it.o(.text.OTG_FS_IRQHandler)
    PendSV_Handler                           0x0800ae0d   Thumb Code     2  stm32f4xx_it.o(.text.PendSV_Handler)
    PixelTest                                0x0800ae11   Thumb Code   150  lcd_gui.o(.text.PixelTest)
    RS485_set_mode                           0x0800af25   Thumb Code    56  main.o(.text.RS485_set_mode)
    SPI4W_Read_Byte                          0x0800af5d   Thumb Code    20  dev_config.o(.text.SPI4W_Read_Byte)
    SPI4W_Write_Byte                         0x0800af71   Thumb Code   132  dev_config.o(.text.SPI4W_Write_Byte)
    SPI4_IRQHandler                          0x0800aff5   Thumb Code   142  stm32f4xx_it.o(.text.SPI4_IRQHandler)
    SVC_Handler                              0x0800b66d   Thumb Code     2  stm32f4xx_it.o(.text.SVC_Handler)
    SysTick_Handler                          0x0800b6fd   Thumb Code   244  stm32f4xx_it.o(.text.SysTick_Handler)
    SystemClock_Config                       0x0800b7f1   Thumb Code   190  main.o(.text.SystemClock_Config)
    SystemInit                               0x0800b8b1   Thumb Code    18  system_stm32f4xx.o(.text.SystemInit)
    TP_Adjust                                0x0800b8c9   Thumb Code  3014  lcd_touch.o(.text.TP_Adjust)
    TP_Dialog                                0x0800c491   Thumb Code   578  lcd_touch.o(.text.TP_Dialog)
    TP_DrawBoard                             0x0800c6d5   Thumb Code  1488  lcd_touch.o(.text.TP_DrawBoard)
    TP_GetAdFac                              0x0800cd59   Thumb Code   292  lcd_touch.o(.text.TP_GetAdFac)
    TP_Init                                  0x0800ce7d   Thumb Code    52  lcd_touch.o(.text.TP_Init)
    UART_SHOW                                0x0800daa1   Thumb Code   150  lcd_gui.o(.text.UART_SHOW)
    UART_Start_Receive_IT                    0x0800dc75   Thumb Code   110  stm32f4xx_hal_uart.o(.text.UART_Start_Receive_IT)
    USART2_IRQHandler                        0x0800de4d   Thumb Code   164  stm32f4xx_it.o(.text.USART2_IRQHandler)
    USART3_IRQHandler                        0x0800def1   Thumb Code   164  stm32f4xx_it.o(.text.USART3_IRQHandler)
    USART6_IRQHandler                        0x0800df95   Thumb Code   164  stm32f4xx_it.o(.text.USART6_IRQHandler)
    USBD_CDC_GetDeviceQualifierDescriptor    0x0800e301   Thumb Code    22  usbd_cdc.o(.text.USBD_CDC_GetDeviceQualifierDescriptor)
    USBD_CDC_ReceivePacket                   0x0800e67d   Thumb Code   126  usbd_cdc.o(.text.USBD_CDC_ReceivePacket)
    USBD_CDC_RegisterInterface               0x0800e6fd   Thumb Code    52  usbd_cdc.o(.text.USBD_CDC_RegisterInterface)
    USBD_CDC_SetRxBuffer                     0x0800e731   Thumb Code    60  usbd_cdc.o(.text.USBD_CDC_SetRxBuffer)
    USBD_CDC_SetTxBuffer                     0x0800e76d   Thumb Code    70  usbd_cdc.o(.text.USBD_CDC_SetTxBuffer)
    USBD_CDC_TransmitPacket                  0x0800e981   Thumb Code   148  usbd_cdc.o(.text.USBD_CDC_TransmitPacket)
    USBD_ClrClassConfig                      0x0800ea15   Thumb Code    50  usbd_core.o(.text.USBD_ClrClassConfig)
    USBD_CoreFindEP                          0x0800ea89   Thumb Code    14  usbd_core.o(.text.USBD_CoreFindEP)
    USBD_CoreFindIF                          0x0800ea99   Thumb Code    14  usbd_core.o(.text.USBD_CoreFindIF)
    USBD_CtlContinueRx                       0x0800eaa9   Thumb Code    30  usbd_ioreq.o(.text.USBD_CtlContinueRx)
    USBD_CtlContinueSendData                 0x0800eac9   Thumb Code    30  usbd_ioreq.o(.text.USBD_CtlContinueSendData)
    USBD_CtlError                            0x0800eae9   Thumb Code    28  usbd_ctlreq.o(.text.USBD_CtlError)
    USBD_CtlPrepareRx                        0x0800eb05   Thumb Code    54  usbd_ioreq.o(.text.USBD_CtlPrepareRx)
    USBD_CtlReceiveStatus                    0x0800eb3d   Thumb Code    34  usbd_ioreq.o(.text.USBD_CtlReceiveStatus)
    USBD_CtlSendData                         0x0800eb61   Thumb Code    50  usbd_ioreq.o(.text.USBD_CtlSendData)
    USBD_CtlSendStatus                       0x0800eb95   Thumb Code    34  usbd_ioreq.o(.text.USBD_CtlSendStatus)
    USBD_FS_ConfigStrDescriptor              0x0800ebb9   Thumb Code    78  usbd_desc.o(.text.USBD_FS_ConfigStrDescriptor)
    USBD_FS_DeviceDescriptor                 0x0800ec09   Thumb Code    26  usbd_desc.o(.text.USBD_FS_DeviceDescriptor)
    USBD_FS_InterfaceStrDescriptor           0x0800ec25   Thumb Code    78  usbd_desc.o(.text.USBD_FS_InterfaceStrDescriptor)
    USBD_FS_LangIDStrDescriptor              0x0800ec75   Thumb Code    26  usbd_desc.o(.text.USBD_FS_LangIDStrDescriptor)
    USBD_FS_ManufacturerStrDescriptor        0x0800ec91   Thumb Code    40  usbd_desc.o(.text.USBD_FS_ManufacturerStrDescriptor)
    USBD_FS_ProductStrDescriptor             0x0800ecb9   Thumb Code    78  usbd_desc.o(.text.USBD_FS_ProductStrDescriptor)
    USBD_FS_SerialStrDescriptor              0x0800ed09   Thumb Code    32  usbd_desc.o(.text.USBD_FS_SerialStrDescriptor)
    USBD_FS_USR_BOSDescriptor                0x0800ed29   Thumb Code    26  usbd_desc.o(.text.USBD_FS_USR_BOSDescriptor)
    USBD_GetEpDesc                           0x0800f0c9   Thumb Code   118  usbd_core.o(.text.USBD_GetEpDesc)
    USBD_GetNextDesc                         0x0800f175   Thumb Code    38  usbd_core.o(.text.USBD_GetNextDesc)
    USBD_GetString                           0x0800f201   Thumb Code   152  usbd_ctlreq.o(.text.USBD_GetString)
    USBD_Get_USB_Status                      0x0800f299   Thumb Code    82  usbd_conf.o(.text.USBD_Get_USB_Status)
    USBD_Init                                0x0800f2ed   Thumb Code   106  usbd_core.o(.text.USBD_Init)
    USBD_LL_ClearStallEP                     0x0800f359   Thumb Code    58  usbd_conf.o(.text.USBD_LL_ClearStallEP)
    USBD_LL_CloseEP                          0x0800f395   Thumb Code    58  usbd_conf.o(.text.USBD_LL_CloseEP)
    USBD_LL_DataInStage                      0x0800f3d1   Thumb Code   402  usbd_core.o(.text.USBD_LL_DataInStage)
    USBD_LL_DataOutStage                     0x0800f565   Thumb Code   436  usbd_core.o(.text.USBD_LL_DataOutStage)
    USBD_LL_DevConnected                     0x0800f719   Thumb Code    10  usbd_core.o(.text.USBD_LL_DevConnected)
    USBD_LL_DevDisconnected                  0x0800f725   Thumb Code    64  usbd_core.o(.text.USBD_LL_DevDisconnected)
    USBD_LL_GetRxDataSize                    0x0800f765   Thumb Code    28  usbd_conf.o(.text.USBD_LL_GetRxDataSize)
    USBD_LL_Init                             0x0800f781   Thumb Code   126  usbd_conf.o(.text.USBD_LL_Init)
    USBD_LL_IsStallEP                        0x0800f801   Thumb Code    92  usbd_conf.o(.text.USBD_LL_IsStallEP)
    USBD_LL_IsoINIncomplete                  0x0800f85d   Thumb Code   110  usbd_core.o(.text.USBD_LL_IsoINIncomplete)
    USBD_LL_IsoOUTIncomplete                 0x0800f8cd   Thumb Code   110  usbd_core.o(.text.USBD_LL_IsoOUTIncomplete)
    USBD_LL_OpenEP                           0x0800f93d   Thumb Code    74  usbd_conf.o(.text.USBD_LL_OpenEP)
    USBD_LL_PrepareReceive                   0x0800f989   Thumb Code    66  usbd_conf.o(.text.USBD_LL_PrepareReceive)
    USBD_LL_Reset                            0x0800f9cd   Thumb Code   156  usbd_core.o(.text.USBD_LL_Reset)
    USBD_LL_Resume                           0x0800fa69   Thumb Code    36  usbd_core.o(.text.USBD_LL_Resume)
    USBD_LL_SOF                              0x0800fa8d   Thumb Code    62  usbd_core.o(.text.USBD_LL_SOF)
    USBD_LL_SetSpeed                         0x0800facd   Thumb Code    22  usbd_core.o(.text.USBD_LL_SetSpeed)
    USBD_LL_SetUSBAddress                    0x0800fae5   Thumb Code    58  usbd_conf.o(.text.USBD_LL_SetUSBAddress)
    USBD_LL_SetupStage                       0x0800fb21   Thumb Code   148  usbd_core.o(.text.USBD_LL_SetupStage)
    USBD_LL_StallEP                          0x0800fbb5   Thumb Code    58  usbd_conf.o(.text.USBD_LL_StallEP)
    USBD_LL_Start                            0x0800fbf1   Thumb Code    50  usbd_conf.o(.text.USBD_LL_Start)
    USBD_LL_Suspend                          0x0800fc25   Thumb Code    30  usbd_core.o(.text.USBD_LL_Suspend)
    USBD_LL_Transmit                         0x0800fc45   Thumb Code    66  usbd_conf.o(.text.USBD_LL_Transmit)
    USBD_ParseSetupRequest                   0x0800fc89   Thumb Code    98  usbd_ctlreq.o(.text.USBD_ParseSetupRequest)
    USBD_RegisterClass                       0x0800fced   Thumb Code   114  usbd_core.o(.text.USBD_RegisterClass)
    USBD_RunTestMode                         0x0800fd61   Thumb Code    10  usbd_core.o(.text.USBD_RunTestMode)
    USBD_SetClassConfig                      0x0800fdf9   Thumb Code    54  usbd_core.o(.text.USBD_SetClassConfig)
    USBD_Start                               0x08010001   Thumb Code    16  usbd_core.o(.text.USBD_Start)
    USBD_StdDevReq                           0x08010011   Thumb Code   204  usbd_ctlreq.o(.text.USBD_StdDevReq)
    USBD_StdEPReq                            0x080100dd   Thumb Code   940  usbd_ctlreq.o(.text.USBD_StdEPReq)
    USBD_StdItfReq                           0x08010489   Thumb Code   244  usbd_ctlreq.o(.text.USBD_StdItfReq)
    USBD_static_free                         0x0801057d   Thumb Code     8  usbd_conf.o(.text.USBD_static_free)
    USBD_static_malloc                       0x08010585   Thumb Code    16  usbd_conf.o(.text.USBD_static_malloc)
    USB_ActivateEndpoint                     0x08010595   Thumb Code   222  stm32f4xx_ll_usb.o(.text.USB_ActivateEndpoint)
    USB_ActivateSetup                        0x08010675   Thumb Code    44  stm32f4xx_ll_usb.o(.text.USB_ActivateSetup)
    USB_CoreInit                             0x080106a1   Thumb Code   252  stm32f4xx_ll_usb.o(.text.USB_CoreInit)
    USB_DeactivateEndpoint                   0x08010821   Thumb Code   312  stm32f4xx_ll_usb.o(.text.USB_DeactivateEndpoint)
    USB_DevConnect                           0x08010959   Thumb Code    42  stm32f4xx_ll_usb.o(.text.USB_DevConnect)
    USB_DevDisconnect                        0x08010985   Thumb Code    42  stm32f4xx_ll_usb.o(.text.USB_DevDisconnect)
    USB_DevInit                              0x080109b1   Thumb Code   696  stm32f4xx_ll_usb.o(.text.USB_DevInit)
    USB_DisableGlobalInt                     0x08010c69   Thumb Code    20  stm32f4xx_ll_usb.o(.text.USB_DisableGlobalInt)
    USB_EP0StartXfer                         0x08010c7d   Thumb Code   502  stm32f4xx_ll_usb.o(.text.USB_EP0StartXfer)
    USB_EP0_OutStart                         0x08010e75   Thumb Code   158  stm32f4xx_ll_usb.o(.text.USB_EP0_OutStart)
    USB_EPClearStall                         0x08010f15   Thumb Code   160  stm32f4xx_ll_usb.o(.text.USB_EPClearStall)
    USB_EPSetStall                           0x08010fb5   Thumb Code   168  stm32f4xx_ll_usb.o(.text.USB_EPSetStall)
    USB_EPStartXfer                          0x0801105d   Thumb Code   872  stm32f4xx_ll_usb.o(.text.USB_EPStartXfer)
    USB_EPStopXfer                           0x080113c5   Thumb Code   284  stm32f4xx_ll_usb.o(.text.USB_EPStopXfer)
    USB_EnableGlobalInt                      0x080114e1   Thumb Code    20  stm32f4xx_ll_usb.o(.text.USB_EnableGlobalInt)
    USB_FlushRxFifo                          0x080114f5   Thumb Code   128  stm32f4xx_ll_usb.o(.text.USB_FlushRxFifo)
    USB_FlushTxFifo                          0x08011575   Thumb Code   134  stm32f4xx_ll_usb.o(.text.USB_FlushTxFifo)
    USB_GetDevSpeed                          0x080115fd   Thumb Code    76  stm32f4xx_ll_usb.o(.text.USB_GetDevSpeed)
    USB_GetMode                              0x08011649   Thumb Code    16  stm32f4xx_ll_usb.o(.text.USB_GetMode)
    USB_ReadDevAllInEpInterrupt              0x08011659   Thumb Code    36  stm32f4xx_ll_usb.o(.text.USB_ReadDevAllInEpInterrupt)
    USB_ReadDevAllOutEpInterrupt             0x0801167d   Thumb Code    36  stm32f4xx_ll_usb.o(.text.USB_ReadDevAllOutEpInterrupt)
    USB_ReadDevInEPInterrupt                 0x080116a1   Thumb Code    78  stm32f4xx_ll_usb.o(.text.USB_ReadDevInEPInterrupt)
    USB_ReadDevOutEPInterrupt                0x080116f1   Thumb Code    46  stm32f4xx_ll_usb.o(.text.USB_ReadDevOutEPInterrupt)
    USB_ReadInterrupts                       0x08011721   Thumb Code    26  stm32f4xx_ll_usb.o(.text.USB_ReadInterrupts)
    USB_ReadPacket                           0x0801173d   Thumb Code   180  stm32f4xx_ll_usb.o(.text.USB_ReadPacket)
    USB_SetCurrentMode                       0x080117f1   Thumb Code   222  stm32f4xx_ll_usb.o(.text.USB_SetCurrentMode)
    USB_SetDevAddress                        0x080118d1   Thumb Code    54  stm32f4xx_ll_usb.o(.text.USB_SetDevAddress)
    USB_SetDevSpeed                          0x08011909   Thumb Code    34  stm32f4xx_ll_usb.o(.text.USB_SetDevSpeed)
    USB_SetTurnaroundTime                    0x0801192d   Thumb Code   442  stm32f4xx_ll_usb.o(.text.USB_SetTurnaroundTime)
    USB_WritePacket                          0x08011ae9   Thumb Code   130  stm32f4xx_ll_usb.o(.text.USB_WritePacket)
    UsageFault_Handler                       0x08011bd1   Thumb Code     4  stm32f4xx_it.o(.text.UsageFault_Handler)
    _sys_close                               0x08011ccd   Thumb Code    74  retarget_io.o(.text._sys_close)
    _sys_flen                                0x08011d19   Thumb Code    72  retarget_io.o(.text._sys_flen)
    _sys_istty                               0x08011d61   Thumb Code    72  retarget_io.o(.text._sys_istty)
    _sys_open                                0x08011da9   Thumb Code   132  retarget_io.o(.text._sys_open)
    _sys_seek                                0x08011e2d   Thumb Code    82  retarget_io.o(.text._sys_seek)
    _sys_write                               0x08011e81   Thumb Code   118  retarget_io.o(.text._sys_write)
    clear_UART_Buffer                        0x08011f85   Thumb Code   198  stm32f4xx_it.o(.text.clear_UART_Buffer)
    main                                     0x080120d1   Thumb Code   860  main.o(.text.main)
    string_show                              0x080124a9   Thumb Code    40  lcd_gui.o(.text.string_show)
    _btod_d2e                                0x080124d1   Thumb Code    62  btod.o(CL$$btod_d2e)
    _d2e_denorm_low                          0x0801250f   Thumb Code    70  btod.o(CL$$btod_d2e_denorm_low)
    _d2e_norm_op1                            0x08012555   Thumb Code    96  btod.o(CL$$btod_d2e_norm_op1)
    __btod_div_common                        0x080125b5   Thumb Code   696  btod.o(CL$$btod_div_common)
    _e2e                                     0x080128ed   Thumb Code   220  btod.o(CL$$btod_e2e)
    _btod_ediv                               0x080129c9   Thumb Code    42  btod.o(CL$$btod_ediv)
    _btod_emul                               0x080129f3   Thumb Code    42  btod.o(CL$$btod_emul)
    __btod_mult_common                       0x08012a1d   Thumb Code   580  btod.o(CL$$btod_mult_common)
    __ARM_fpclassify                         0x08012c61   Thumb Code    48  fpclassify.o(i.__ARM_fpclassify)
    __hardfp_sqrt                            0x08012c91   Thumb Code   122  sqrt.o(i.__hardfp_sqrt)
    _is_digit                                0x08012d0b   Thumb Code    14  __printf_wp.o(i._is_digit)
    fputc                                    0x08012d19   Thumb Code    28  fputc.o(i.fputc)
    _get_lc_numeric                          0x08012d35   Thumb Code    44  lc_numeric_c.o(locale$$code)
    _get_lc_ctype                            0x08012d61   Thumb Code    44  lc_ctype_c.o(locale$$code)
    __aeabi_dadd                             0x08012d8d   Thumb Code     0  daddsub_clz.o(x$fpl$dadd)
    _dadd                                    0x08012d8d   Thumb Code   332  daddsub_clz.o(x$fpl$dadd)
    __fpl_dcmp_Inf                           0x08012edd   Thumb Code    24  dcmpi.o(x$fpl$dcmpinf)
    __aeabi_cdcmpeq                          0x08012ef5   Thumb Code     0  deqf.o(x$fpl$deqf)
    _dcmpeq                                  0x08012ef5   Thumb Code   120  deqf.o(x$fpl$deqf)
    __aeabi_d2iz                             0x08012f6d   Thumb Code     0  dfix.o(x$fpl$dfix)
    _dfix                                    0x08012f6d   Thumb Code    94  dfix.o(x$fpl$dfix)
    __aeabi_i2d                              0x08012fcb   Thumb Code     0  dflt_clz.o(x$fpl$dflt)
    _dflt                                    0x08012fcb   Thumb Code    46  dflt_clz.o(x$fpl$dflt)
    __aeabi_ui2d                             0x08012ff9   Thumb Code     0  dflt_clz.o(x$fpl$dfltu)
    _dfltu                                   0x08012ff9   Thumb Code    38  dflt_clz.o(x$fpl$dfltu)
    __aeabi_cdcmpge                          0x08013021   Thumb Code     0  dgeqf.o(x$fpl$dgeqf)
    _dcmpge                                  0x08013021   Thumb Code   120  dgeqf.o(x$fpl$dgeqf)
    __aeabi_cdcmple                          0x08013099   Thumb Code     0  dleqf.o(x$fpl$dleqf)
    _dcmple                                  0x08013099   Thumb Code   120  dleqf.o(x$fpl$dleqf)
    __fpl_dcmple_InfNaN                      0x080130fb   Thumb Code     0  dleqf.o(x$fpl$dleqf)
    __aeabi_dmul                             0x08013111   Thumb Code     0  dmul.o(x$fpl$dmul)
    _dmul                                    0x08013111   Thumb Code   332  dmul.o(x$fpl$dmul)
    __fpl_dnaninf                            0x08013265   Thumb Code   156  dnaninf.o(x$fpl$dnaninf)
    __fpl_dretinf                            0x08013301   Thumb Code    12  dretinf.o(x$fpl$dretinf)
    _dsqrt                                   0x0801330d   Thumb Code   404  dsqrt_umaal.o(x$fpl$dsqrt)
    __aeabi_dsub                             0x080134a5   Thumb Code     0  daddsub_clz.o(x$fpl$dsub)
    _dsub                                    0x080134a5   Thumb Code   472  daddsub_clz.o(x$fpl$dsub)
    __aeabi_f2d                              0x08013681   Thumb Code     0  f2d.o(x$fpl$f2d)
    _f2d                                     0x08013681   Thumb Code    86  f2d.o(x$fpl$f2d)
    __aeabi_dcmpeq                           0x080136d7   Thumb Code     0  dcmp.o(x$fpl$fcmp)
    _deq                                     0x080136d7   Thumb Code    14  dcmp.o(x$fpl$fcmp)
    _dneq                                    0x080136e5   Thumb Code    14  dcmp.o(x$fpl$fcmp)
    __aeabi_dcmpgt                           0x080136f3   Thumb Code     0  dcmp.o(x$fpl$fcmp)
    _dgr                                     0x080136f3   Thumb Code    14  dcmp.o(x$fpl$fcmp)
    __aeabi_dcmpge                           0x08013701   Thumb Code     0  dcmp.o(x$fpl$fcmp)
    _dgeq                                    0x08013701   Thumb Code    14  dcmp.o(x$fpl$fcmp)
    __aeabi_dcmple                           0x0801370f   Thumb Code     0  dcmp.o(x$fpl$fcmp)
    _dleq                                    0x0801370f   Thumb Code    14  dcmp.o(x$fpl$fcmp)
    __aeabi_dcmplt                           0x0801371d   Thumb Code     0  dcmp.o(x$fpl$fcmp)
    _dls                                     0x0801371d   Thumb Code    14  dcmp.o(x$fpl$fcmp)
    __fpl_fnaninf                            0x0801372b   Thumb Code   140  fnaninf.o(x$fpl$fnaninf)
    _fp_init                                 0x080137b7   Thumb Code    26  fpinit.o(x$fpl$fpinit)
    __fplib_config_fpu_vfp                   0x080137cf   Thumb Code     0  fpinit.o(x$fpl$fpinit)
    __fplib_config_pureend_doubles           0x080137cf   Thumb Code     0  fpinit.o(x$fpl$fpinit)
    _printf_fp_dec                           0x080137d1   Thumb Code     4  printf1.o(x$fpl$printf1)
    _printf_fp_hex                           0x080137d5   Thumb Code     4  printf2.o(x$fpl$printf2)
    __I$use$fp                               0x080137d8   Number         0  usenofp.o(x$fpl$usenofp)
    AHBPrescTable                            0x080138d4   Data          16  system_stm32f4xx.o(.rodata.AHBPrescTable)
    APBPrescTable                            0x080138e4   Data           8  system_stm32f4xx.o(.rodata.APBPrescTable)
    EventRecorderInfo                        0x080138f4   Data          24  eventrecorder.o(.rodata.EventRecorderInfo)
    Font12_Table                             0x0801390c   Data        1140  font12.o(.rodata.Font12_Table)
    Font16_Table                             0x08013d80   Data        3040  font16.o(.rodata.Font16_Table)
    Font20_Table                             0x08014960   Data        3800  font20.o(.rodata.Font20_Table)
    Font24_Table                             0x08015838   Data        6840  font24.o(.rodata.Font24_Table)
    Font8_Table                              0x080172f0   Data         760  font8.o(.rodata.Font8_Table)
    __stderr_name                            0x080175e8   Data           8  retarget_io.o(.rodata.__stderr_name)
    __stdin_name                             0x080175f0   Data           7  retarget_io.o(.rodata.__stdin_name)
    __stdout_name                            0x080175f7   Data           8  retarget_io.o(.rodata.__stdout_name)
    Region$$Table$$Base                      0x08017c90   Number         0  anon$$obj.o(Region$$Table)
    Region$$Table$$Limit                     0x08017cb0   Number         0  anon$$obj.o(Region$$Table)
    __ctype                                  0x08017cd9   Data           0  lc_ctype_c.o(locale$$data)
    __aeabi_stdin                            0x20000000   Data           4  stdio_streams.o(.data)
    __aeabi_stdout                           0x20000004   Data           4  stdio_streams.o(.data)
    __aeabi_stderr                           0x20000008   Data           4  stdio_streams.o(.data)
    FS_Desc                                  0x20000010   Data          32  usbd_desc.o(.data.FS_Desc)
    Font12                                   0x20000030   Data           8  font12.o(.data.Font12)
    Font16                                   0x20000038   Data           8  font16.o(.data.Font16)
    Font20                                   0x20000040   Data           8  font20.o(.data.Font20)
    Font24                                   0x20000048   Data           8  font24.o(.data.Font24)
    Font8                                    0x20000050   Data           8  font8.o(.data.Font8)
    SystemCoreClock                          0x20000058   Data           4  system_stm32f4xx.o(.data.SystemCoreClock)
    USBD_CDC                                 0x2000005c   Data          56  usbd_cdc.o(.data.USBD_CDC)
    USBD_FS_BOSDesc                          0x200000e4   Data          12  usbd_desc.o(.data.USBD_FS_BOSDesc)
    USBD_FS_DeviceDesc                       0x200000f0   Data          18  usbd_desc.o(.data.USBD_FS_DeviceDesc)
    USBD_Interface_fops_FS                   0x20000104   Data          20  usbd_cdc_if.o(.data.USBD_Interface_fops_FS)
    USBD_LangIDDesc                          0x20000118   Data           4  usbd_desc.o(.data.USBD_LangIDDesc)
    USBD_StringSerial                        0x2000011c   Data          26  usbd_desc.o(.data.USBD_StringSerial)
    uwTickFreq                               0x20000136   Data           1  stm32f4xx_hal.o(.data.uwTickFreq)
    uwTickPrio                               0x20000138   Data           4  stm32f4xx_hal.o(.data.uwTickPrio)
    _random_number_data                      0x20000140   Data         228  rand.o(.bss)
    __stdin                                  0x20000224   Data          84  stdio_streams.o(.bss)
    __stdout                                 0x20000278   Data          84  stdio_streams.o(.bss)
    __stderr                                 0x200002cc   Data          84  stdio_streams.o(.bss)
    __libspace_start                         0x20000320   Data          96  libspace.o(.bss)
    SPI4_recieve                             0x20000380   Data         255  stm32f4xx_it.o(.bss.SPI4_recieve)
    __temporary_stack_top$libspace           0x20000380   Data           0  libspace.o(.bss)
    UART2_RxBuffer                           0x20000485   Data         256  stm32f4xx_it.o(.bss.UART2_RxBuffer)
    UART2_timer                              0x20000588   Data           4  stm32f4xx_it.o(.bss.UART2_timer)
    UART3_RxBuffer                           0x2000058c   Data         256  stm32f4xx_it.o(.bss.UART3_RxBuffer)
    UART3_timer                              0x2000068c   Data           4  stm32f4xx_it.o(.bss.UART3_timer)
    UART6_RxBuffer                           0x20000690   Data         256  stm32f4xx_it.o(.bss.UART6_RxBuffer)
    UART6_timer                              0x20000790   Data           4  stm32f4xx_it.o(.bss.UART6_timer)
    USBD_StrDesc                             0x20000798   Data         256  usbd_desc.o(.bss.USBD_StrDesc)
    UserRxBufferFS                           0x20000ab8   Data        2048  usbd_cdc_if.o(.bss.UserRxBufferFS)
    UserTxBufferFS                           0x200012b8   Data        2048  usbd_cdc_if.o(.bss.UserTxBufferFS)
    byte_counter2                            0x20001ab8   Data           2  stm32f4xx_it.o(.bss.byte_counter2)
    byte_counter3                            0x20001aba   Data           2  stm32f4xx_it.o(.bss.byte_counter3)
    byte_counter6                            0x20001abc   Data           2  stm32f4xx_it.o(.bss.byte_counter6)
    f_PosUpdate                              0x20001abe   Data           1  main.o(.bss.f_PosUpdate)
    f_UART2_Package_ready                    0x20001abf   Data           1  stm32f4xx_it.o(.bss.f_UART2_Package_ready)
    f_UART3_Package_ready                    0x20001ac0   Data           1  stm32f4xx_it.o(.bss.f_UART3_Package_ready)
    f_UART6_Package_ready                    0x20001ac1   Data           1  stm32f4xx_it.o(.bss.f_UART6_Package_ready)
    hUsbDeviceFS                             0x20001ac4   Data         732  usb_device.o(.bss.hUsbDeviceFS)
    hadc1                                    0x20001da0   Data          72  main.o(.bss.hadc1)
    hcrc                                     0x20001de8   Data           8  main.o(.bss.hcrc)
    hdma2d                                   0x20001df0   Data          64  main.o(.bss.hdma2d)
    hdma_usart6_rx                           0x20001e30   Data          96  main.o(.bss.hdma_usart6_rx)
    hdma_usart6_tx                           0x20001e90   Data          96  main.o(.bss.hdma_usart6_tx)
    hi2c1                                    0x20001ef0   Data          84  main.o(.bss.hi2c1)
    hi2c2                                    0x20001f44   Data          84  main.o(.bss.hi2c2)
    hpcd_USB_OTG_FS                          0x20001f98   Data        1292  usbd_conf.o(.bss.hpcd_USB_OTG_FS)
    hqspi                                    0x200024a4   Data          76  main.o(.bss.hqspi)
    hspi1                                    0x200024f0   Data          88  main.o(.bss.hspi1)
    hspi2                                    0x20002548   Data          88  main.o(.bss.hspi2)
    hspi3                                    0x200025a0   Data          88  main.o(.bss.hspi3)
    hspi4                                    0x200025f8   Data          88  main.o(.bss.hspi4)
    huart2                                   0x20002650   Data          68  main.o(.bss.huart2)
    huart3                                   0x20002694   Data          68  main.o(.bss.huart3)
    huart6                                   0x200026d8   Data          68  main.o(.bss.huart6)
    sLCD_DIS                                 0x20002be4   Data          10  lcd_driver.o(.bss.sLCD_DIS)
    spi_byte_counter                         0x20002c14   Data           1  stm32f4xx_it.o(.bss.spi_byte_counter)
    string                                   0x20002c24   Data          64  main.o(.bss.string)
